:100000000C9483260C94C3F00C94EFF00C941BF129
:100010000C9447F10C9473F10C949FF10C94CBF178
:100020000C94F7F10C94C0260C94C0260C94C026B6
:100030000C94C0260C94D4EC0C94C0260C942AED9D
:100040000C94C0260C94C0260C94C0260C94C02698
:100050000C94C0260C94C0260C94C0260C94C02688
:100060000C9499F30C948DEF0C9430EF0C945FEF9B
:100070000C94C0260C942AF30C948AF20C94C0269B
:100080000C94C0260C94C0260C94C0260C94C02658
:100090000C9427F00C94CAEF0C94F9EF0C9423F213
:1000A0000C94C0260C94C0260C941ADE0C947DE0AF
:1000B0000C94C0260C94C0260C94C0260C94C02628
:1000C0000C94C0260C94C0260C94C0260C94C02618
:1000D0000C94C0260C94C0260C94C0260C94C02608
:1000E0000C94C0260C94C0260C94C0260C94C026F8
:1000F0000C94D9E00C94C0260C94C0260C9401E119
:100100000C94C0260C94C0260C94C0260C94C026D7
:100110000C94C0260C94C0260C94C0260C9429E1A3
:100120000C94C0260C94C0260C94C0260C94C026B7
:100130000C94C02600000000000000000000000039
:1001400000000000000000000000000000000000AF
:10015000000000000000000000000000000000009F
:10016000000000000000000000000000000000008F
:10017000000000000000000000000000000000007F
:10440000F70E16001900EA0C030018002608BD007C
:1044100017004C13010016000014080015008D133E
:1044200001001400841302001300F01301002600A1
:10443000931301001E00831301000F000A140100F2
:104440000E00F41301000D00FC1302000C004D13CC
:1044500001000B00471302000A006A131100090053
:104460006013010008005F13010007005E130100E4
:104470000600F11301000500FA1301000400F21216
:10448000040003007B130800020045130100010033
:104490002A1308000000704712002E0094471500F0
:1044A0002D00BE4719002C00F04704002A00F847F1
:1044B000110029009D50C24FDB50DB50DB50C74F2D
:1044C000D14FDB50DB50D94FDE4F06500F50DB5041
:1044D00014501C502650DB502F503450DB503D50B0
:1044E00078508A50DB507D5085509D509D509D5096
:1044F000945094509450945094509450945094509C
:10450000945094509450945094509450945094508B
:10451000945050509450DB50DB50DB50DB50DB505C
:10452000DB50DB50DB50DB50DB50DB50DB50DB5033
:10453000DB5094508F509D5094504A509F509D5046
:10454000B650C450CB509D509D509D503752A451F1
:10455000795279527952AA51AF514D527952B25192
:10456000B551C651CB517952CE51D151D451795216
:10457000D951DC514D52E1512B52405279522E52B9
:104580003152A851345234524D524D524D524D5227
:104590004D524D524D524D524D524D524D524D5223
:1045A0004D524D524D524D524D5211524D52795223
:1045B00079527952795279527952795279527952A3
:1045C000795279527952795279524D524352465228
:1045D0004D52095255525E5258525B5279526C52AA
:1045E000715277527E5380538B5382538453865338
:1045F00088535D538E5390535D539353E853EB535D
:10460000EF53F253F653FA53FD53015401544358F8
:104610008158815881584A58675858585F5892585D
:1046200051586E586E587558815889588D58ED58A4
:10463000F058F358F358F558FF58F958FC580C59EE
:10464000F7580259045906590959F55AF85A195B8D
:10465000FB5AFF5A195B035B195B0E5B115B175B1F
:10466000805E2D5F3C5F3B5E835F835F385F3C5FB6
:10467000415F6F5F585F835F835F6F5F6E5E715FE7
:1046800075977D979497069806985D976A97069810
:1046900006980698B497C397E097EC9706985A97B0
:1046A00088972697F39BF39B1C9B249B249B319B11
:1046B000319B4E9B4E9B4E9BAC9BAC9BAC9B479CBB
:1046C000F39BD4A926AAFAA9FEA9FEA9FEA9FEA9D0
:1046D000FEA902AA02AA71BC74BC15BD15BD79BCA5
:1046E00015BD83BC6CBD6CBD6CBD6CBD6CBD6CBDC3
:1046F0006CBD6CBD6CBD15BD15BD6CBD6CBC7EBC10
:1047000015BDC2C710C810C810C810C810C8FFC750
:10471000E9C707C810C8F9C710C803C80BC8E5C95E
:10472000C0CA9ECBC9CB08CC34CD7DCDA0D3A0D3FD
:10473000A0D3A0D3A0D3A0D3A0D3A0D3A0D3B4CCD4
:10474000C2CCA0D3A0D3E9CC7FCB97D59FD5B1D590
:10475000BAD5BCD5BED5C0D5C3D596D60ED70ED743
:10476000BCD6C5D6D5D6DED6E1D6E4D6E7D6EDD6CC
:10477000000001000200030004000500060007001D
:10478000080009000A000B000C000D000E000F00CD
:104790001E001800000001000200030004000500D4
:1047A00006000700080009000A000B000C000D00BD
:1047B0000E000F001E00130014001500160000006C
:1047C00001000200030004000500060007000800C5
:1047D00009000A000B000C000D000E000F001E0067
:1047E0001300140015001600170018001900260009
:1047F0001300140015001600000001000200030061
:104800000400050006000700080009000A000B006C
:104810000C000D000E000F001E008F060000260881
:10482000000080070000E30800001A0800000000F4
:1048300000000D090000770E0000CF0E0000210CD3
:104840000000730C00003D0C0000AA0C0000ED0CF1
:104850000000310E00000000000000000000EA0C23
:104860000000F70E00000000000000000000000043
:104870000000000000000000000000000000000038
:104880000000000000000000000000000000000028
:1048900000000000000000000000000000000D0FFC
:1048A0000000350F0000140700006A4A02006E4A3B
:1048B0000100714A01006F4A0200744A0100754A02
:1048C0000100764A0100774A0100784A0100794ADE
:1048D00001007A4A0200724A02007C4A01007D4AC5
:1048E0000100964A0200874A0100884A0100894A6D
:1048F0000100924A04007E4A01007F4A0400834A74
:104900000100844A01008E4A01008F4A0100904A4A
:104910000200000000000000000000000000000095
:104920000000000000000000000000000000000087
:104930000000000000000000000000000000000077
:104940000000854A0100864A0100984A0100994A00
:1049500001009A4A01009B4A0100000000008A4AB7
:1049600004006C4A02002A130800341301004113AA
:10497000040045130100F8130100F91301000014AD
:104980000800FC130200841302008D130100F413CD
:1049900001000A140100FA130100491301004A132F
:1049A00001004B1301004C130100471302004D138B
:1049B00001004E130100F6130100F5130100051369
:1049C0000100061301007B130800F21204006113BA
:1049D0000400561304005A1304005E1301005F1311
:1049E0000100601301006A131100F1130100651347
:1049F000010066130400F012010007130200831384
:104A00000100461301000000000000000000F11248
:104A10000100000000000000000000000000000095
:104A20000000000000000000000000000000000086
:104A300000000000000000000000000000004F1314
:104A40000500541301005513010000000000000090
:104A50000000000000000000000000000000000056
:104A60000000000000003513010085006C0001000B
:104A70000007050007040205040204000308FF14F0
:104A80000000000108030303020A901A000001005D
:104A9000000000000203141061620003001E000009
:104AA00003013412000303000002000000000003B1
:104AB000031027000010270000010001E803000098
:104AC00004E80300001041746D656C202020202054
:104AD000202020202020FECAAAAAAAAAAA1A0002E0
:104AE0000301008000000000000000000000000042
:104AF000000000000005FF000000000000000000B2
:104B000000000000000000000000000000000000A5
:104B10000000000000000000000000000000000095
:104B20000000000000000000000000000000000085
:104B30000000000000000000000000000000000075
:104B40000000000000000000000000000000000065
:104B50000000000000000000000000000000000055
:104B60000000000000000002010002020508080029
:104B700000FFFF34120000000000000000020201EC
:104B80006D41CC4600000000000000000000000065
:104B900002B77D95780107F7984B730101F7984BA1
:104BA000730101767DA0900101FB7CFF9F0101FB59
:104BB0007CCE9F0107B07C3B730101587C1F8601AE
:104BC00001000000000107000000000101000000DA
:104BD0000001030000356B01040000356B01050086
:104BE000000000010600000000010D0000000001AF
:104BF00001F7980000000100000000010E00000015
:104C000000010700000000010A0000000001000090
:104C10000000000101000000000101000000000090
:104C20000000002277000900002277000C0000221B
:104C30007700000000227700B9798B7FB6965CA9D7
:104C4000C275EC9CCE7A747B4874318276885B772F
:104C500028A0557AC774B673000000008073F981EC
:104C600000000000EA68FA6B806955697969000004
:104C7000F168FF686E69F868F06BA868EC6AF36A1F
:104C8000626BE46A876900004A6C02010203030256
:104C90000201010101010101010102020101010200
:104CA00001020202020202010202020202020103E6
:104CB00003020203B1A7DD9D9496109F000013A686
:104CC000938FACAA000000006FB709BC94C5DABE90
:104CD000B0D373C48FE28FE28FE28FE201E4C5E1CB
:104CE0001FF4A5EC2EDF6CDE3FEBDAEDE3EA30E9F2
:104CF000ABE790E2E2E30EE521E3E0E30CE51FE33E
:104D0000030405060700112480916D18823159F0C3
:104D100084B780FD04C08F7180936D1807C081E057
:104D200080936D1803C081E180936D1814BE80914B
:104D300060008861809360001092600011241FBEA3
:104D4000CFEFD1E8DEBFCDBF00E00CBF12E0A0E0A6
:104D5000B2E0E2EDFCEE01E00BBF02C007900D9265
:104D6000AC3FB107D9F728E1ACEFB2E001C01D922A
:104D7000AD36B207E1F70E9438320E944E32FDCFC5
:104D80000C9400007F937FB7F8949D9AA5988AEFC2
:104D90004DD08AEF4BD09D9886E448D081E095991C
:104DA00080E08F9380EF42D08F917FBF7F910895F5
:104DB0007F937FB7F8949D9AA59886E037D09D9809
:104DC0008AE034D0889495990894881F8F9384E65C
:104DD0002DD08F917FBF7F9108959F937F9398E00F
:104DE000E7DF879577959A959923D1F7872F7F915C
:104DF0009F9108957F937FB7F894A5989D9A8F937C
:104E000086E014D08F91879508F49D988F9384E65F
:104E10000DD08F919D987FBF7F9108959F9398E0CB
:104E2000E9DF9A959923E1F79F910895000000002A
:104E3000000000008A958823C9F708955F937F9347
:104E40007FB7F894CF93DF93C0E0D0E07F93509189
:104E5000B2007091B2007517E1F3739521965091ED
:104E6000B2005717D9F77F91CE01DF91CF917FBF65
:104E70007F915F910895E1E0F0E0F0933C06E093CC
:104E80003B06E3E0E0932F06E2E3F6E02083318384
:104E900042835383648375838683978321E02093C1
:104EA0003A068AE593E0909343068093420686E0B3
:104EB00090E0909341068093400620933F0686E061
:104EC00098E29093470680934606089584E0809385
:104ED0008E032FB7F89480910F0590911005906183
:104EE0009093100580930F052FBF0895FC018785CF
:104EF000811112C06CE873E081E290E00E946D3392
:104F00002FB7F89480910F059091100590619093C0
:104F1000100580930F052FBF0895729A80E00C94BE
:104F200098320895729880E00C94A8320895CF9337
:104F3000DF938091550624E6829FC001112462E927
:104F400070E00E94E8F4EB018091FC02811117C02F
:104F500080911A0290E0A0E0B0E0AB01662757FD17
:104F60006095762F84179507A607B70728F0D5DF39
:104F700081E08093390303C0D5DF1092390385E4C3
:104F80008093360388E480933703C093380386E028
:104F9000E6E3F3E0AAE5B3E001900D928A95E1F72C
:104FA00085E080938E032FB7F89480910F05909140
:104FB000100590619093100580930F052FBFDF912E
:104FC000CF9108951092FD0286E0E6E3F3E0AAE5B2
:104FD000B3E001900D928A95E1F721E03CE040E0DA
:104FE00050E060E071E080E090E045DF85E0809394
:104FF0008E032FB7F89480910F0590911005906162
:105000009093100580930F052FBF0895FC018081B8
:10501000811115C08091FD02813011F4D3CF089524
:1050200086E080938E032FB7F89480910F059091BE
:10503000100590619093100580930F052FBF089580
:105040008091FE028031E9F48091FF028230C9F440
:1050500080E00E9498328091000380933603809113
:10506000010380933703E2E0F3E0A8E3B3E081912A
:10507000803111F08D93FBCF90819330D9F781E08F
:1050800001C082E080938D03089510928D03AC01DE
:105090006EEF72E08AEE95E00E9404E661E08EEF2A
:1050A00092E003D2CDDF80918D03813009F042C0C0
:1050B00086E0E6E3F3E0AAE5B3E001900D928A957D
:1050C000E1F780913603853441F0823519F082345E
:1050D00011F50DC021E03BE002C021E03CE040E0E2
:1050E00050E060E071E080E090E0C5DE14C08091A7
:1050F00037038D3421F4809138038093FC0221E042
:105100003BE040E050E060E071E080E090E0B3DE42
:1051100081E08093FD0285E080938E032FB7F894A1
:1051200080910F05909110059061909310058093E8
:105130000F052FBF089580E180934D0692E0909374
:105140004E069091300390934F06909131039093C7
:1051500050069091320390935106909133039093AF
:1051600052068093530683E0809354060895DC0131
:105170009696ED91FC91979786E0A0E3B3E00190BD
:105180000D928A95E1F7D7DF68E08DE496E08DC156
:1051900008951F93CF93DF9380918E03823009F49B
:1051A00042C098F48823F1F0813009F0A7C086E767
:1051B00097E290938B0380938A0384E793E00E94A5
:1051C000BBC482E080938E0399C0843009F491C0FF
:1051D00008F47BC0853009F091C089E196E00E9417
:1051E000E73E8CC029D188E893E1A0E0B0E080934D
:1051F000110690931206A0931306B0931406109212
:10520000150686E697E290931706809316060E948D
:10521000B83284B18E6084B980E092E00E94A3EA43
:105220006A9A81E057C0C1E0D0E0D0936C03C0938C
:105230006B03D0936A03C093690311E01093680372
:1052400080916D03807F816080936D0388E693E099
:10525000909364038093630387EB98E290936603D3
:105260008093650380E693E00E945642D0933C060B
:10527000C0933B0683E080932F06109332068AE0AA
:10528000809333061092340610923506109236063B
:1052900010933706109238061092390610933A068A
:1052A0008AE593E0909343068093420686E090E07F
:1052B000909341068093400610933F0686E098E263
:1052C000909347068093460604C08BE096E00E94C8
:1052D00014E286E080938E032FB7F89480910F0537
:1052E0009091100590619093100580930F052FBF4A
:1052F00005C060E080E092E00E94CDEADF91CF91AE
:105300001F9108950895089508950895CF92DF920A
:10531000FF920F931F93CF93DF93E42FF0E0F09071
:10532000BD042AEF30E02F1931092E173F0734F161
:105330005091BC0420E030E0EC01C60FD11D0AEF13
:1053400010E02E173F07ACF4852F90E0BC016F539F
:105350007C4F6B01BE01620F731FDB015C91D601B4
:105360005C932F5F3F4F0196B8010E94E8F4582FDD
:10537000E8CF5093BC04F40EF092BD04DF91CF91BE
:105380001F910F91FF90DF90CF9008951F93CF93BF
:10539000DF931092F0041092F1041091BD041123D8
:1053A00009F446C08091BB04EEEBF4E01333E0F463
:1053B000212F30E0CAEFD0E0AF014E5B54404217DE
:1053C00053075CF490E0DC01AF53BC4F4C91419328
:1053D0000196BE010E94E8F4EFCF8093BB041093C6
:1053E000F0041092BD0418C02AEF30E090E0DC0118
:1053F000AF53BC4F4C9141930196B9010E94E8F420
:1054000094E0E03FF90791F78093BB0482E3809337
:10541000F00412531093BD0481E08093F104409195
:10542000F00450E06EEB74E08AEE95E00E9477E5C0
:10543000DF91CF911F91089588EC8093F50510922C
:10544000F60589E190E09093F8058093F70586E0F2
:105450008093F9051092FA051092FB0510920A0646
:105460008FE893E09093FF058093FE0582E390E040
:105470009093010680930006109203061092020694
:10548000109205061092040686EC99E290930906A4
:105490008093080685E498E29093070680930606B9
:1054A0008AEE95E00C9418E50895462F2091F104BA
:1054B000222319F060E02ACF0895FC01AEEBB4E09E
:1054C000633370F4862F90E09D012E5B34402817E3
:1054D00039071CF421912D93F7CF4093F0040CC0B1
:1054E00021912D9324E0A03FB207D1F722E320932E
:1054F000F004425362E30ADF81E08093F1044091BB
:10550000F00450E06EEB74E08AEE95E00C9477E5E1
:105510000895A2E0B0E0EFE8FAE20C946CF56C01BB
:105520000091560610915706E12CF12C80915A06F5
:1055300090915B06E816F906A8F45801B8016C5F73
:105540007F4F42E050E0CE0101960E9432F60A5FA2
:105550001F4F29813A812C153D0539F08FEFE81A4C
:10556000F80AE4CF80E090E001C0C5012296EAE0AD
:105570000C9488F5ADE0B0E0E0ECFAE20C946EF546
:105580007C016B0123E0969587952A95E1F7FC0154
:10559000EA5AF94F228D30E0B70167707727062E5F
:1055A00002C0369527950A94E2F78E010F5F1F4FD0
:1055B00020FF42C027E0E0E7F6E0D80101900D921D
:1055C0002A95E1F7A0E020E030E04A2F50E04817AC
:1055D0005907D8F4F801E40FF51F4081542F569570
:1055E00055754575540F452F46954695437353732E
:1055F000450F4083E42FEF7042954F7050E04E0FFF
:10560000511D240F351FAF5FE0CFE0E0D801A80F98
:10561000B91F4E2F50E04617570780F44C9150E0C9
:105620000E2E02C0569547950A94E2F74170552711
:10563000240F351FEF5FEDCF2FEF3FEF1B870A875A
:1056400046E0429FC001439F900D11240496998724
:10565000888786E090E09D878C876CE67CE2CE01AF
:10566000089672D18D819E81E816F90639F084E0A2
:1056700090EA90938A0680938906E1D589819A8180
:10568000F601918380832D96E8E00C948AF5A6E0DC
:10569000B0E0EDE4FBE20C9470F57C018B0180E05E
:1056A00090E0FC0133E0F695E7953A95E1F7EE0DD1
:1056B000FF1D6081AC0147705527262F30E0042E76
:1056C00002C0369527950A94E2F720FF0DC021E02D
:1056D00030E001C0220F4A95EAF720952623208367
:1056E00018DF009731F431C0019683339105C9F674
:1056F0002CC046E050E0BC01CE0101960E9432F67B
:1057000089819A81F80193838283B8018D819E817A
:1057100031DFF801808191810596918380838B81AF
:105720009C819583848382819381892B39F480E0E5
:1057300090EA90938A068093890681D58D819E8117
:10574000F7019087878381E006C08FEF9FEFF70115
:105750009087878380E02696E6E00C948CF5A8E09D
:10576000B0E0E5EBFBE20C946AF57C01A0905806F2
:10577000B0905906FC01868182FD09C000E010E06E
:10578000812C76E0972ECC24C394D12C0CC047E01A
:1057900050E06FEF70E0C7010E9462F66DC0882490
:1057A00083940F5F1F4F80915C0690915D060817F0
:1057B000190708F05BC0909EB001919E700D1124F6
:1057C0006A0D7B1D46E050E0CE0101960E9432F644
:1057D0002D813E81F90163E0F695E7956A95E1F741
:1057E000EE0DFF1D408127703327842F90E0022E9D
:1057F00002C0969587950A94E2F780FFD2CFC60142
:1058000002C0880F991F2A95E2F79C012095242356
:105810002083812C882D90E02B813C818217930777
:1058200008F0BDCF880F991F69817A81680F791FB1
:1058300042E050E0CE0107960E9432F68F819885B3
:10584000FC0153E0F695E7955A95E1F7EE0DFF1D43
:1058500087709927960102C0220F331F8A95E2F7BD
:10586000C9019081982B90838394D4CF882021F014
:1058700000E010E0812C97CF2896ECE00C9486F5A0
:10588000CF93DF93EC018FEF9FEF98878F8387E0B3
:10589000FB01DE0101900D928A95E1F7CE015FDFF9
:1058A000E0E7F6E0919188818923899386E0E737E4
:1058B000F807C1F7DF91CF91089580918406909108
:1058C0008506A7C20895109281068DE59CE290930B
:1058D00083068093820608950895E9E6F6E0DC01E8
:1058E0003D91CD012081232B2193B6E0E037FB07CA
:1058F000B1F78091860684608093860608950E94A1
:1059000029E9882311F0DFD5FACF0895A2E0B0E0AD
:10591000ECE8FCE20C9472F58B0189839A83EFDF4B
:10592000B80189819A810E944CE8019631F08CE29D
:105930000C36180721F4E3DF02C081E001C080E0EB
:105940002296E4E00C948EF5A2E0B0E0EAEAFCE2F4
:105950000C9472F58B0189839A83D1DFB801898118
:105960009A810E94D9E7019631F08CE20C36180733
:1059700021F4C5DF02C081E001C080E02296E4E0AE
:105980000C948EF5A2E1B0E0E8ECFCE20C9467F533
:1059900080918606982F92609093860682FF0AC0B7
:1059A00069E676E082EF94E06BDF809186068B7F7C
:1059B00080938606CC24C394D12C7E013DE0E30E77
:1059C000F11C55E0A52EB12C4E0182E1880E911CF0
:1059D000BE01695F7F4F82EF94E059DE882309F4AE
:1059E00062C06090F9047090FA04F30163E0F695E8
:1059F000E7956A95E1F7EA5AF94FC301877099274D
:105A0000960102C0220F331F8A95E2F7C9018095E3
:105A100093898923838BFC82EB82BE82AD828F8146
:105A2000988505979A8389836CE67CE2CE0101967E
:105A30008BDF4B855C8569857A8580E05ED0582E4A
:105A40008D8558123AC08889998968167906A9F512
:105A50002B853C858E859F852817390771F59C829B
:105A60008B82DE82CD8200E010E02B853C85021720
:105A7000130708F0ADCF2F813885200F311F3A83EF
:105A800029836CE67CE2CE0101965EDFAB81BC81AE
:105A9000E985FA85E00FF11F9C91808198130DC074
:105AA0000F5F1F4FE2CF809186068D7F8093860621
:105AB00060E070E08FE001D21CC05D86798A688A60
:105AC0008B859C859F878E87FC82EB8285E090E0AA
:105AD0009E838D838F81988505979A83898362EC55
:105AE0007CE2CE01079612DF6CE67CE2CE010196E5
:105AF0000DDF6296EFE00C9483F5FB01460F571F14
:105B0000E417F50719F09191890FFACF08954F9294
:105B10005F927F928F929F92AF92BF92CF92DF92CD
:105B2000EF92FF920F931F93CF93DF93CDB7DEB722
:105B300062970FB6F894DEBF0FBECDBF80E094E44D
:105B4000909357068093560686E994E490935906FD
:105B50008093580606E914E400501444C80166E036
:105B600070E00E94D4F4892B39F080E290EA90939F
:105B70008A068093890663D326E030E0C801B90124
:105B80000E94D4F440915A0650915B06642B752B09
:105B900070935B0660935A0604EB14E406591444B0
:105BA000C801B9010E94D4F4892B39F081E290EA4E
:105BB00090938A068093890642D3C80166E070E01C
:105BC0000E94D4F480915C0690915D06682B792B3D
:105BD00070935D0660935C0600915606109157061F
:105BE00010925E0610925F06109260061092610697
:105BF00087E0E0E7F6E0DF011D928A95E9F7D12C16
:105C0000EE24E394F12C80915A0690915B062D2DA1
:105C100030E028173907C8F546E050E0B801CE015A
:105C200001960E9432F62B813C812B5F3F4F809181
:105C30005E0690915F06A0916006B0916106820FAA
:105C4000931FA11DB11D80935E0690935F06A093E4
:105C50006006B09361068D819E81FC0133E0F6956C
:105C6000E7953A95E1F7EA5AF94F87709927970136
:105C700002C0220F331F8A95E2F7C901928D982B3B
:105C8000928F0A5F1F4FD394BECF26E0289F6001FA
:105C9000299FD00C112434E0C30ED11CE12CF12C2F
:105CA000CE010796988B8F8786E090E09A8B898B40
:105CB000A12CB12C00E010E096E0792E22E2822E99
:105CC00020EA922EF80183E0F695E7958A95E1F7B0
:105CD000EA5AF94F828D90E098012770332702C06D
:105CE000969587952A95E2F780FF41C07A9CC0017E
:105CF0007B9C900D112404969E878D876CE67CE238
:105D0000CE010D9621DE8B859C858017910749F485
:105D10008F819885A985BA858C159D05AE05BF052F
:105D200059F01C870B87CF82D886E986FA866CE605
:105D30007CE2CE010D96EADDC801EBDB2C01009779
:105D400029F490928A068092890679D246E050E042
:105D5000B201CE0101960E9432F68B819C8105969C
:105D6000C80ED91EE11CF11C8FEFA81AB80A0F5FEC
:105D70001F4F0333110509F0A5CFA5DD62960FB6BD
:105D8000F894DEBF0FBECDBFDF91CF911F910F9171
:105D9000FF90EF90DF90CF90BF90AF909F908F904B
:105DA0007F905F904F90089520E0FC013191CF01EA
:105DB000311105C02F5F2730C1F780E0089581E0E1
:105DC000089527E0FB0111922A95E9F7FC0123E0F1
:105DD000F695E7952A95E1F7E60FF71F8770992763
:105DE00021E030E001C0220F8A95EAF78081822B02
:105DF0008083CB01B4CC0895A0E7B6E0FC013D91CF
:105E000020812323219326E0A737B207C1F7CCCF07
:105E10000895A7E0B0E0EFE0FFE20C9473F5BE0157
:105E20006F5F7F4FCEDFCE010196E6DFCE01019698
:105E3000BBDF182F882339F0CE0101964EDD80910B
:105E4000860681FF9FDD812F2796E3E00C948FF576
:105E500008950895A2E0B0E0E0E3FFE20C9474F549
:105E60008091FB048823E9F0BE016F5F7F4F81E2E0
:105E700090E033D4BE016E5F7F4F8DE190E02DD472
:105E80008981823071F48A8181110BC089E29FE29D
:105E900090930405809303058CEF94E00E9462C107
:105EA00002C00E9481DF2296E2E00C9490F580917E
:105EB000FB0408950C9468EB0895A0E0B0E0E3E6DD
:105EC000FFE20C946CF5B82E7B01082F10E093E0F4
:105ED000169507959A95E1F78770C1E0D0E001C06B
:105EE000CC0F8A95EAF7AC2E8FE38B1538F484E05B
:105EF00090E890938A0680938906A1D1F801EB5F20
:105F0000FA4F80818C2311F1C0910D05D0910E05BF
:105F100085E0C82E80E8D82E2097C1F0FE01E00F62
:105F2000F11F82818A2171F02A853B85232B29F478
:105F3000D0928A06C092890682D1EA85FB85B70194
:105F40008B2D19950990D881C02DE6CFCDB7DEB73E
:105F5000EAE00C9488F5E82FF0E023E0F695E79569
:105F60002A95E1F7EB5FFA4F208130E0877041E03E
:105F700050E002C0440F551F8A95E2F724233523D1
:105F800081E0232B09F480E00895282F30E043E0DE
:105F9000369527954A95E1F7620F731F877021E0C8
:105FA00030E001C0220F8A95EAF7FB01928192232B
:105FB00081E009F480E008951F93CF93DF93182FB9
:105FC000EB01803438F023E030E830938A062093E8
:105FD000890635D1BE01812FD8DF81112AC0BE01CB
:105FE0008DE095E09AD081110BC088E0FE013296D9
:105FF000DF011D928A95E9F7BE018DE095E09DD005
:10600000412F50E063E0569547956A95E1F7177088
:1060100021E030E001C0220F1A95EAF7C40FD51F26
:106020008A81822B8A83FA01EB5FFA4F8081822B6F
:106030008083DF91CF911F9108951F93CF93DF93BA
:10604000182FEB01803438F023E030E830938A06D3
:1060500020938906F4D0BE01812F97DF882369F150
:10606000212F30E073E0369527957A95E1F7177088
:1060700041E050E0012E01C0440F0A94EAF7942F4A
:106080009095C20FD31F8A8189238A83E0910D05E1
:10609000F0910E05309759F0DF01A20FB31F129651
:1060A0008C91842351F40190F081E02DF3CFF9011C
:1060B000EB5FFA4F808189238083DF91CF911F911D
:1060C0000895DC01ED91FC911197309721F020812A
:1060D00031812D933C93CF01089561157105A1F095
:1060E000DC01ED91FC911197E617F70759F4208137
:1060F00031812D933C930FC0808191818617970742
:1061000029F0FC013097C1F780E00895DB018D9103
:106110009C919183808381E00895DC01ED91FC9155
:10612000309739F0E617F70731F00190F081E02D54
:10613000F7CF80E0089581E008950F931F93CF93E8
:10614000DF938C01EB01E9DF882349F080E090E8E0
:1061500090938A06809389065AD080E014C01982F1
:106160001882D801ED91FC911197309719F4CD93D5
:10617000DC9308C080819181009711F0FC01FACF77
:10618000D183C08381E0DF91CF911F910F9108955A
:10619000CF93DF93FC0182819381009781F40E9469
:1061A00068E2C22FD32F0E947E5244E0FC0121916D
:1061B0003191CF01C227D3274150C1F7CE010E94B0
:1061C00027F681E0809326028EE292E00E9414E29C
:1061D000DF91CF91089580E292E00C94EF52089500
:1061E00080912602882369F08EE292E00E9444E2C8
:1061F00088EC90E390932D0280932C02109226025B
:10620000EACF08958EE292E00C9444E2089582E091
:1062100090E090938C0680938B06809189069091F4
:106220008A0690938E0680938D06E0918706F09102
:106230008806309719F08BE896E01995089583E069
:1062400090E090938C0680938B06809189069091C4
:106250008A0690938E0680938D06E0918706F091D2
:106260008806309719F08BE896E019950895EF921B
:106270000F93FC01618372834F3740F081E090E817
:1062800090938A0680938906C2DF20C0403808F0C8
:106290004FE7440F808181700187842BE0FA80F9F9
:1062A000808334832383CB01AC016081669504969F
:1062B0002181328174E0679F200D311D1124421726
:1062C000530720F4DC0111971C92EECF0F91EF9051
:1062D0000895A0E0B0E0EFE6F1E30C946DF5EC0179
:1062E0008B01B42E0E9468E269017A018D819E8142
:1062F000AF81B885A7019601281B390B4A0B5B0BB0
:10630000CA01B9012B813C8140E050E00E94FBF4BE
:106310002F3F31054105510518F42223F9F001C042
:106320002FEF89819A81BC01388136950496498185
:106330005A81E4E03E9F400D511D112464177507FA
:1063400048F4FC013291432F231708F4422F341BE9
:106350003083E9CFCD82DE82EF82F886A981BA81CF
:106360004881842F86959D0154E0859F200D311D25
:106370001124C901E0E0F0E0A817B907C0F41396B2
:106380005C911397552359F02D913C91119720174B
:10639000310729F412962C9112972B15C1F03097E2
:1063A00019F02381521708F4FD011496E5CF40FD42
:1063B00006C0309771F0838181110BC002C0309705
:1063C00051F011830083B2828985838304C080E009
:1063D00003C082E001C081E0CDB7DEB7E9E00C94F4
:1063E00089F5FECE08950895CF93DF9360913B0227
:1063F00070913C0280E090E0E1E0F0E09F01082E27
:1064000002C0220F331F0A94E2F740910F0550910A
:1064100010054623572342235323452B11F16FB711
:10642000F89440910F055091100520953095242344
:1064300035233093100520930F056FBFFC01EE0F3D
:10644000FF1FE954FD4FC081D181209739F486E0C8
:1064500090E890938A0680938906F1DEFE011995F3
:1064600004C001968E30910549F6DF91CF910895D1
:106470000E940CE00E94C0B1882371F02FB7F894FD
:1064800080910F0590911005806190931005809385
:106490000F052FBF81E0089582E00895A5DF60E039
:1064A00070E08BE20ADD80910F0590911005892B39
:1064B00009F4D0DC20910F053091100581E0232BE9
:1064C00009F480E0089590CF0895FC012081211106
:1064D00005C021E02193CF010C9414E20895FC0142
:1064E0002081213021F41192CF010C9444E20895CF
:1064F000A5E0B0E0EEE7F2E30C9470F57C012A83AE
:106500003B834C835D836983EADFF70110826981F5
:1065100063872A813B814C815D8127833087418756
:106520005287158704872596E6E00C948CF508952C
:10653000813041F028F0823039F0833039F008950D
:106540002C9808952D9808952E980895739808957D
:10655000813041F028F0823039F0833039F00895ED
:106560002C9A08952D9A08952E9A0895739A089555
:10657000249A259A269A6B9A2C9A81E0E9DF82E088
:10658000E7DF83E0E5DF80E0089588E3E9E0F3E119
:10659000DF011D928A95E9F7EAE2F3E181E0808369
:1065A0009AE0918312821382148285831682178265
:1065B00085E08093341347E850E069EF7AE484E89B
:1065C00093E10E9432F647E150E062EE7AE482EF16
:1065D00092E10E9432F643E050E06FED7AE48FEEF4
:1065E00092E10E9432F643E450E06CE97AE481E4FF
:1065F00093E10E9432F680E69CE0EFE8F6E0DF01EE
:106600009C011D9221503040E1F70895A4E0B0E0D4
:10661000ECE0F3E30C9474F5BC011A8219821C823D
:106620001B828827811521E0920769F0811522E0FD
:106630009207B9F0892BE9F4660F771F660F771F71
:106640006A59764B07C07727660F771F660F771F4B
:106650006655774B44E050E0CE0101960E9432F639
:106660000FC07727660F771F660F771F665E774B21
:10667000F1CF8AE090E690938A0680938906DFDD69
:1066800069817A818B819C812496E2E00C9490F55B
:106690007CDF3DCA0895A4E0B0E0E1E5F3E30C94AB
:1066A00070F57C018B01B2DFEE24E11422E0F206EA
:1066B00069F026E030E630938A06209389066983E4
:1066C0007A838B839C83BBDD7A816981F801718336
:1066D00060832496E6E00C948CF5A4E0B0E0E3E758
:1066E000F3E30C9470F58C017B0190DFE114F1046D
:1066F00079F420E030E630938A0620938906698396
:106700007A838B839C839BDD9C818B817A816981D9
:1067100000270115110549F0011521E0120751F478
:10672000AC01C7010E9432F60CC0AC01C7010E9447
:1067300048F607C081E090E690938A068093890628
:106740007EDD2496E6E00C948CF5A0E0B0E0EBEA68
:10675000F3E30C946EF58C01EB0158DF6B017C01C7
:10676000209739F484E090E690938A068093890616
:1067700066DD00270115110539F085E090E690935C
:106780008A06809389065BDDA701BE01C6010E94CF
:1067900048F6CDB7DEB7E8E00C948AF5FC0193A586
:1067A000892F887090FF09C0882379F081E027A1A4
:1067B00030A52236310550F408C0882331F081E03D
:1067C00027A130A52436310508F480E081700895B2
:1067D00021E030E001C0220F8A95EAF7809114058C
:1067E000822B809314052FB7F89480910F05909118
:1067F000100580629093100580930F052FBF0895B8
:10680000CF93DF93E0911014F09111148E179F072E
:1068100018F482E894E446C08E1B9F0B6CE670E08F
:106820000E94D4F480910B14681718F083E894E464
:1068300039C08CE6689FE00DF11D11248781869593
:1068400090E08230910559F014F00397D1F58091D2
:106850000F148823B1F1815080930F1432C08091BE
:106860000E14882319F0815080930E14DF01AC5A66
:10687000BF4FCD91DC912091131430911414CE01AF
:10688000821B930B63E270E00E94D4F4C217D3071B
:1068900018F484E894E406C080910C14681740F062
:1068A00085E894E490938A0680938906B0DC0CC056
:1068B000D90183E2689FA00DB11D11248C91811133
:1068C0001C9287818E7F8783DF91CF910895CF932C
:1068D000DF93EC011EA28CA19DA1892B39F484E4E5
:1068E00094E490938A0680938906A9DCECA1FDA12B
:1068F000CE0186961995DF91CF910895EF92FF9280
:106900000F931F93CF93DF93A0910B14409110141A
:106910005091111420E030E090E09A1709F45AC029
:10692000FA01E20FF31FB90164597F4FB781B0FD3F
:1069300063C07F0194E5E90EF11CD7011D921C9202
:106940008230B1F010F08330F1F590910F14409146
:106950000D14941708F03EC09F5F90930F1413829C
:1069600014821582168290859F709087128235C09E
:1069700010910E1490910C14191760F500911214D7
:10698000409113145091141490E09017B9F0EA015B
:106990004D5D5F4FBA0163527109DB016C9161116A
:1069A0000BC01F5F10930E1441E048836896D70117
:1069B000CD93DC93428302C09F5FE7CF40911214D6
:1069C00049130BC007C081E894E490938A06809332
:1069D000890635DC80E090E012C09085907F90873A
:1069E000880F8160878311821082809110149091AA
:1069F0001114820F931F03C09F5F9B018ECFCDB7F1
:106A0000DEB7E6E00C948CF520912505215020930B
:106A10002505BC018FE395E090DB81E0D9CE0F9393
:106A20001F93CF93DF938C01C0911505D09116056C
:106A3000809111059091120580519140813F9540C0
:106A400048F4B80185E195E078DBCD2B59F480E07E
:106A5000BFDE08C083E694E490938A06809389069B
:106A6000EEDBEFCFDF91CF911F910F910895BC0125
:106A70006F50710981E495E060DB81E0A9CEBC0133
:106A80006351710983E495E058DB81E0A1CE209148
:106A900025052F5F209325050C9457926F927F92C6
:106AA0009F92AF92BF92CF92DF92EF92FF920F939D
:106AB0001F93CF93DF931F92CDB7DEB78C017B017D
:106AC000FB01E25AFF4F84E095E3918380833E9778
:106AD00082E08083D80157968D919C91589731968A
:106AE000918380839C968C919C9737968083319676
:106AF000108231969B968C919B978095881F882752
:106B0000881F8083319681E08083319680839B96B5
:106B10008C919B9786FD0BC021E057968D919C919F
:106B20005897883F9F4F08F020E0822F01C081E0F6
:106B3000F701E35AFF4F81708083C8012FDEF70110
:106B4000ED5AFF4F6F0197012C5A3F4F39018823AF
:106B500009F442C09090BD144091BE14242F30E03F
:106B60008091C11490E001972817390739F4D801B2
:106B700097968C91499D80191124982EA92CB12C9F
:106B8000C5014E968236910538F081E594E49093E4
:106B90008A068093890653DB3091BD142091BE1480
:106BA0008091D3149091D414F80161A572A5329FFD
:106BB000600D711D1124A5014E960E9448F68AE0D1
:106BC000890DD6018C938091D3149091D41444965E
:106BD000F301918380830EC0D80197968C9197978B
:106BE000885F808399968D919C919A970897D90197
:106BF0008D939C93F301C080D180D6012C912C7F82
:106C00002F7E2C93F8018789908D237F883F9F4F9B
:106C100010F02860D6012C93F60180818F7D80834F
:106C2000D8019B969C9192FD03C08F7B808322C0EC
:106C30008064F6018083D70118962C911897207FE5
:106C4000216018962C93C8012983A8DD29812F7013
:106C5000882341F08091C3148295807F822BF701B5
:106C6000808708C08091F0128295807F822BD701A7
:106C700018968C93C80192DDF60190818823A1F0CB
:106C8000906890839091BE1480858C7F911106C08E
:106C9000816080878091C114818709C0826080876C
:106CA0008091BE14818703C09F77F6019083D8013D
:106CB00091968C919197F601818394968D919C91F8
:106CC00095979383828392968D919C9193979583C8
:106CD000848396968C918683C80160DD882331F089
:106CE0008091C214D60117968C9308C080913C0500
:106CF00091E0980F90933C05F6018783C7010996B0
:106D0000C6DE80E00F90DF91CF911F910F91FF9031
:106D1000EF90DF90CF90BF90AF909F907F906F905B
:106D20000895E091D114F091D214BF018081918136
:106D3000B5CEE0EBF4E1F0938114E093801492E09F
:106D400090937C14209123143091241430937E145A
:106D500020937D149BE090937F14109284141092E2
:106D6000851491E090938614909387141092881460
:106D700022E039E330938B1420938A149093891482
:106D80009081907892609068908390912A1490936B
:106D9000B11420912614309127143093B31420930A
:106DA000B21420912814309129143093B5142093F3
:106DB000B414909125149093B61490912B14909341
:106DC000B71492E09093B814909121149093B91451
:106DD000909122149093BA149091BB1490939914AB
:106DE00010921C1410921D1410921E1410921F1455
:106DF0008093151485E394E14ACEA4E0B0E0E3E08B
:106E0000F7E30C9472F5182FBE016F5F7F4F8AE194
:106E100090E063DC20912A0530912B0540912C05F0
:106E200050912D05A12FB0E00E9454F509811A81DF
:106E30002B813C81600F711F821F931F2496E4E019
:106E40000C948EF50F931F93CF93DF93EC018C017D
:106E500007551109FC013C970190F081E02D6FEF7F
:106E6000818192810E947A89882361F0FE013297A4
:106E700084E095E39183808323971882C8010E9460
:106E8000479202C0CE01C0DDDF91CF911F910F91DB
:106E9000089562E174E180E191E01FDC63E174E157
:106EA0008EE092E0F8DB809113149091141420E0AE
:106EB00030911214231748F4FC0133E2239FE00DB4
:106EC000F11D112410822F5FF3CF6BE074E18FE08E
:106ED00091E003DC60E174E18DE092E0DCDB209185
:106EE0000B14E0911014F091111480E0821739F026
:106EF00097819E7F97838F5FE459FF4FF7CF9091E3
:106F0000121490930C14823008F0815080930D1469
:106F100010920E1410920F146DEB74E188E291E060
:106F2000DCDB6BE174E189E291E0D7DB6AE174E1DB
:106F300088E191E0D2DB80911A14882351F066E158
:106F400074E18FE092E0A7DB63ED74E180E192E011
:106F5000A2DB30911A1420911B1480911614909189
:106F60001714329F800D911D112490931914809352
:106F7000181410921514089566E475E082E192E009
:106F80008ADB65E475E087E191E0A7DB8091450548
:106F9000E0914605F0914705882349F0309739F490
:106FA00089E294E490938A068093890630C99F0110
:106FB00046E1849F200D311D1124C90128EAE817FC
:106FC000F90718F4258B7696FACF08951F93CF937F
:106FD000DF93EC01162F0097B1F08D819E81892BF4
:106FE00091F085E195E06DD81F83ED81FE81CE01A2
:106FF000079619958091150590911605892B59F0E2
:1070000080E0E6DB08C08BE694E490938A068093E8
:10701000890615D9E6CFDF91CF911F910895A1E19F
:10702000B0E0E5E1F8E30C9464F58C01262E2987A5
:107030003A874B875C870E9410DEE0912E052985F8
:107040003A854B855C85EE2361F130900B14C0903E
:107050003105D0903205E0903305F09034052B01D6
:107060003C014C185D086E087F084D825E826F827D
:107070007886E0911014F0911114198A66246A94AC
:10708000762C430169827A828B829C824601570169
:10709000861A970AA80AB90A8D869E86AF86B88A8C
:1070A0000BC003E519E3A3C0A781A0FD09C0A9890E
:1070B000AF5FA98BE459FF4FB989B311F5CF40C039
:1070C000B085BF70B23099F7AA7FA23081F7838074
:1070D0009480A580B68081149104A104B10439F391
:1070E000E017F10721F34D805E806F8078844814AB
:1070F00059046A047B0468F44D845E846F84788844
:10710000840C951CA61CB71C83829482A582B6822F
:1071100004C0138214821582168283809480A58015
:10712000B68049805A806B807C8084149504A604C4
:10713000B70408F0BCCF89829A82AB82BC82B7CFF9
:10714000211046C080901C1490901D14A0901E1415
:10715000B0901F1481149104A104B104C9F12B0152
:107160003C014C185D086E087F08481459046A04F5
:107170007B0488F4C80CD91CEA1CFB1CC61AD70A6D
:10718000E80AF90AC0921C14D0921D14E0921E1451
:10719000F0921F1408C010921C1410921D1410922B
:1071A0001E1410921F1480911C1490911D14A09114
:1071B0001E14B0911F1449805A806B807C80841506
:1071C0009505A605B70520F489839A83AB83BC8314
:1071D00089819A81AB81BC81281739074A075B07EF
:1071E00010F4DA01C90103E519E39C01AD0161E086
:1071F0008EE295E07DD98EE295E067D96196E2E175
:107200000C9480F58091250581508093250580910F
:107210001514833009F43CC0823039F082E594E4DF
:1072200090938A06809389060AD8E091BC14EE23D5
:1072300079F181E080931514A091F112B0E01197DB
:107240002AE030E00E944EF59B01AC0180912605BA
:1072500090912705A0912805B0912905280F391F85
:107260004A1F5B1FA091F012B0E00E9454F59B01F1
:10727000AC0160931C1470931D1480931E149093A2
:107280001F14E150E093BC1461E080E090E0C7CEB1
:107290001092151410921C1410921D1410921E14AA
:1072A00010921F140895A4E0B0E0E9E5F9E30C940E
:1072B0006CF52FEF3FEFA90110E0AA24AA94B12C9E
:1072C00080910B14181708F054C0E0911014F0913D
:1072D00011148CE6189FE00DF11D1124678160FFE9
:1072E00046C07085872F8F70823009F040C0862F8E
:1072F0008A7F8230E1F583819481A581B681C09037
:107300003505D0903605E0903705F09038058C199A
:107310009D09AE09BF0983839483A583B683009733
:10732000A105B105E9F4872F807F846080876E7F97
:10733000663059F4C5010090F11202C0880F991F00
:107340000A94E2F780958093C01481E029833A8300
:107350004B835C833DDA29813A814B815C8107C094
:1073600082179307A407B50710F49C01AD011F5FB6
:10737000A7CF80911C1490911D14A0911E14B09160
:107380001F140097A105B10551F1C0903505D090AB
:107390003605E0903705F09038058C199D09AE0947
:1073A000BF0980931C1490931D14A0931E14B093D6
:1073B0001F140097A105B10559F482E029833A838F
:1073C0004B835C83B6DC29813A814B815C8107C0A9
:1073D00082179307A407B50710F49C01AD012F3F56
:1073E000EFEF3E074E075E0751F003E519E361E05A
:1073F0008EE295E07DD88EE295E067D803C08EE2FC
:1074000095E06DD82496EAE00C9488F5A0E0B0E011
:10741000ECE0FAE30C946BF58C01962EC0914605D6
:10742000D0914705809145056E0196E1899FC00C7A
:10743000D11C1124F8018589811109C07E01F6E172
:10744000EF0EF11C58018CE0A80EB11C09C085E2BA
:1074500094E432C08A3A89F06696F6E1EF0EF11CA8
:10746000F801CC15DD0508F04AC0908521853285EC
:10747000F70131978081843A69F7F7013E9780815F
:107480009813EACF89859A852817390729F748E0A4
:1074900050E0B801CE010E943BF6892BE9F6F801D5
:1074A0008385F7013B9790818913D6CF813059F0BE
:1074B000833091F086E294E490938A068093890663
:1074C0000E9407311DC0F801248535858C859D8576
:1074D0002817390709F617C0F8019489F701329780
:1074E00080819813B9CF48E050E0BE01645F7F4FC0
:1074F000C5010E943BF6892B09F0AECF04C0958AE6
:1075000080E090E001C0CE01CDB7DEB7EBE00C9497
:1075100087F5CF93DF93EC010097B1F18AEA8D8B69
:107520000E947E5248E050E0BC01CE010E943BF632
:10753000892B51F582E88D8B888581508E3F20F50F
:107540008B858330C9F48C8981508E3FE8F42C857B
:107550003D854E855F85688979898A899B89A0E008
:107560000E94CFF571F480E194E490938A068093B1
:1075700089060E94073108C0813019F086EA8D8B98
:1075800003C01D8A81E001C080E0DF91CF910895A2
:10759000CF93DF93EC01009761F16FA7411551057F
:1075A00051F0FA01408151816281738148AB59AB3E
:1075B0006AAB7BAB04C018AA19AA1AAA1BAAEDA52C
:1075C000FEA5309749F484E594E490938A0680936D
:1075D00089060E9407310DC0CE018F961995CE0104
:1075E000DDD8882331F01092D2141092D11481E0AA
:1075F000EFD8DF91CF910895A1E0B0E0E2E0FBE3A6
:107600000C9472F58C01FC0120813181809113145E
:10761000909114142817390740F487E494E4909368
:107620008A06809389060E941F31F801808191812A
:107630002091131430911414821B930B63E270E0B9
:107640000E94D4F480910C14681750F088E494E4FC
:1076500090938A068093890669830E941F3169810D
:107660008091131490911414F3E26F9F800D911D7B
:1076700011242196E4E00C948EF5A3E0B0E0E3E45D
:10768000FBE30C9472F58C01675F7F4F7A8369830B
:10769000BE016D5F7F4F8DE090E01FD88B81D801D8
:1076A00097965C91979740913C05882309F442C0D6
:1076B00089819A81FC01E95BFF4F21E02083579685
:1076C0002D913C9158973196318320833296585FA3
:1076D00050839996ED91FC919A979C01255B3F4FC1
:1076E0003897D901ED93FC938FEF8183D80194965D
:1076F0008D919C9195979383828392968D919C9185
:1077000093979583848396968C91868381E0840FEA
:1077100080933C054783D901ED91FC91808180786D
:1077200088608F778083E981FA81EB5AFF4F84E08C
:1077300095E344C089819A81FC01E95BFF4F22E017
:10774000208331962DEF3FEF318320833296575FB0
:107750005083D8019996ED91FC919A979C01255BF5
:107760003F4F3997D901ED93FC93D80157968D91EE
:107770009C9158979283818394968D919C91959733
:107780009483838392968D919C919397968385831E
:1077900096968C91878381E0840F80933C05408787
:1077A000D901ED91FC91808180788C608F77808306
:1077B000E981FA81EB5AFF4F82E297E3918380835C
:1077C000E981FA81D8019C968C919C97E15BFF4FEF
:1077D0008083E981FA81E05BFF4F8091EF12808323
:1077E000E981FA81EF5AFF4F9B968C918095881F13
:1077F0008827881F8083E981FA81EE5AFF4F81E054
:107800008083E981FA81ED5AFF4F8083E981FA8113
:10781000EC5AFF4F808389819A8139D980E0239681
:10782000E4E00C948EF5DC01ED91FC919093D21480
:107830008093D1141092BE141092BF148091F01254
:107840008093C3142091BD1430E087A190A5B901A5
:107850000E94D4F4462F6093C11487A190A5B9016A
:107860000E94D4F4892B19F04F5F4093C1148FEF1D
:1078700090E00090F11202C0880F991F0A94E2F77D
:1078800080958E7F8093C01480913C0591E0980F85
:1078900090933C058093C2140895A0E0B0E0E3E526
:1078A000FCE30C946BF5EC016B01942E59010091F3
:1078B00046051091470580914505780196E1899F1D
:1078C000E00CF11C1124209761F0C017D107F0F5EE
:1078D00083E294E490938A06809389060E941F3184
:1078E00035C0E801CE01801B910B66E170E00E947B
:1078F000D4F4892B79F084E294E490938A068093FF
:1079000089060E941F3106C01D89143A39F01A3ABF
:1079100029F06696CE15DF05B8F313C08885981256
:10792000F8CF89859A85C816D90699F748E050E0BE
:10793000B501CE010E943BF6892B59F7143A49F75D
:1079400003C080E090E004C0CE0102C06696CACFBA
:10795000CDB7DEB7EBE00C9487F54F925F927F9244
:107960008F929F92AF92BF92CF92DF92EF92FF924F
:107970000F931F93CF93DF931F92CDB7DEB72C01E8
:107980007B010E947E526C0157018AE6A80EB11C51
:10799000F501008111814114510431F0E114F10429
:1079A00019F0C114D10451F484E194E490938A064F
:1079B000809389060E94073188EA5EC058EAF20186
:1079C00064A175A1960146A1C801598366DF8C01A7
:1079D0005981009709F44FC0F20184899589892B58
:1079E00019F5F8017384F3E07F121EC048018CE0A2
:1079F000880E911CC4010E94FEC0892BA9F4F201DB
:107A00007086D2011B9688E0F40101900D928A9550
:107A1000E1F78DE49DE3F201958B848BC20106961C
:107A20000E94F8C080E028C0F50111830083F801AE
:107A300083858330B1F4C8010C960E94FEC0009784
:107A400011F459EABCCFF8012489F20121A3FC0109
:107A500080819181F201908F878BB701C2011ED87E
:107A60000BC0F80184859585F201908F878BB70153
:107A7000C20103DE01C0852F0F90DF91CF911F91CE
:107A80000F91FF90EF90DF90CF90BF90AF909F90BD
:107A90008F907F905F904F900895FF920F931F9368
:107AA000CF93DF938C010351110920910B14C091E6
:107AB0001014D0911114F12CF216E9F08F8180FF8F
:107AC00016C0888199818017910789F4BE01C80189
:107AD00044DF882381F040E050E0682FC80158DD82
:107AE000CE010E94003481E00E94E83304C0F39488
:107AF000C459DF4FE1CF80910B14F81640F085E1B7
:107B000094E490938A06809389060E941F31CDB732
:107B1000DEB7E5E00C948DF5EF92FF921F93CF93C3
:107B2000DF931F921F92CDB7DEB77B010097A1F0C4
:107B30006115710589F0FC01158A148AF701E6596F
:107B4000FF4F11821082B70108DF182F882389F0B8
:107B5000C7010E9400340DC023E134E430938A064B
:107B60002093890689839A830E941F3189819A8193
:107B7000E2CF812F0F900F90DF91CF911F91FF9057
:107B8000EF900895A1E0B0E0E8ECFDE30C9470F50F
:107B90008C01262FDC01ED90FC90009709F444C085
:107BA000E114F10409F440C02E3C61F0822F8F7D76
:107BB000803D41F0213D11F082E005C0F70183A531
:107BC00087FFFACF83E0F801EB59FF4F40815181E5
:107BD00062817381D701D0964D935D936D937C93B1
:107BE000D3979F962C93833071F0D801ED91FC913F
:107BF0008689811108C0F701158A148AB801C70166
:107C0000ACDE883AE1F4A701405D5F4FD7019F9653
:107C10006C91F80180819181BBDCC8010E94003425
:107C200081E00E94E8330BC08FE494E490938A06CD
:107C30008093890629830E941F312981B5CF21961F
:107C4000E6E00C948CF5CF93DF93EC0162DC8823A3
:107C500009F454C060E0CE01D9DB892BC1F520972F
:107C600009F43EC08D8981113BC05091450520919A
:107C700046053091470540E0451781F0C9012A5E6D
:107C80003F4FF90131976081683A31F424EAFC01F1
:107C9000258B009731F432C04F5FEECF8EEA8D8B8B
:107CA0002DC0209719F03D89332349F087E294E4F1
:107CB00090938A06809389060E9407311AC036E1A4
:107CC000FE01DC0101900D923A95E1F706C066EAEB
:107CD000CE019CDB009791F024EAFC01258B09C0C2
:107CE00080E294E490938A06809389060E941F3173
:107CF000BCCF60E070E080E10E945D2FDF91CF910A
:107D00000895CF93DF93EC010097D9F08091460559
:107D100090914705C817D907A0F02091450536E195
:107D2000239F800D911D1124C817D90750F48D8908
:107D3000843A11F08A3A71F488EA8D8BDF91CF9101
:107D4000089581E294E490938A06809389060E94C4
:107D50001F31EDCF82E294E490938A0680938906E6
:107D60000E941F31E9CFCF93DF93EC01D2DB882350
:107D700059F064EACE014ADB009731F0C2DF60E0DF
:107D800070E080E10E945D2FDF91CF9108952091F6
:107D9000460530914705009751F0FC017696809199
:107DA000450596E1899F200D311D112408C0F90178
:107DB000F6CF8589843A49F08A3A39F07696E21707
:107DC000F307B8F380E090E00895CF010895CF93D2
:107DD000DF93EC01BC0183E495E00E949D301D8A95
:107DE0001C8A81E00E94E833DF91CF910895CF9300
:107DF000DF93EC01BC0181E495E00E949D30198A7B
:107E0000188A81E00E94E833DF91CF910895AAE0BB
:107E1000B0E0EDE0FFE30C946AF510913413BE017D
:107E2000665F7F4F87E091E00E946D33BE016F5F18
:107E30007F4F8AE190E00E946D33C980DA80EB8049
:107E4000FC80812F90E0A0E0B0E08C159D05AE0590
:107E5000BF0578F0CC0CDD1CEE1CFF1CC982DA8259
:107E6000EB82FC82BE016F5F7F4F8AE190E00E944F
:107E7000A533C12ED12C87E0C80ED11CEE24D7FC2F
:107E8000E094FE2CC0922A05D0922B05E0922C059E
:107E9000F0922D052A8530E0A3E0B0E00E943FF586
:107EA0009B01AC01C701B6010E94B9F409811A8196
:107EB0002B813C81600F711F821F931F60932605E9
:107EC00070932705809328059093290581E0888782
:107ED000BE01675F7F4F87E091E00E946D33BE0176
:107EE000685F7F4F84E290E00E946D33898590E067
:107EF000A0E0B0E0880F991FAA1FBB1F8F3F91051C
:107F0000A105B10529F020F08FEF90E0A0E0B0E0EE
:107F10000E94FD36E885EE2309F45AC0812C912C8D
:107F200054018B019C0101501E4F2F4F3F4F800E7B
:107F3000911EA21EB31E660F771F881F991FE15066
:107F400081F718867501640129E0F694E794D794C7
:107F5000C7942A95D1F7D501C4019170AA27BB27F0
:107F600041E050E060E070E0892B8A2B8B2B19F404
:107F700040E050E0BA01C40ED51EE61EF71E1E8278
:107F80001D821F82BE01695F7F4F81E191E00E94E7
:107F90006D33BE016B5F7F4F88E092E00E944B33F0
:107FA000970186010F3F11052105310529F020F0C9
:107FB0000FEF10E020E030E06D817E81C12CEE24D7
:107FC000E39420E032E04F8187E195E00E94373171
:107FD0002A96ECE00C9486F5882331F00E9424F672
:107FE00080933C051092250510924405109243059C
:107FF00010924205109241051092400510923F05E3
:1080000010923E0510923D058AE090E0A0E0B0E0BD
:108010008093CA149093CB14A093CC14B093CD1436
:1080200081E996E39093D0148093CF1481E08093FC
:10803000CE141092221410922B141092201410922D
:1080400027141092261410922114109225141092C5
:1080500029141092281410922414109223141092B0
:108060002A141092151410921C1410921D141092C0
:108070001E1410921F148CE6ECE2F4E1DF011D9255
:108080008A95E9F783E2E8E9F4E1DF011D928A9538
:10809000E9F780911B1490E0019620911A14289F13
:1080A000A001299F500D112460E070E0809116140A
:1080B000909117140E9462F680EB94E190938114E2
:1080C00080938014A4CE4F925F927F928F929F9262
:1080D000AF92BF92CF92DF92EF92FF920F931F93D6
:1080E000CF93DF931F92CDB7DEB77C01009781F06D
:1080F0002C0127E0421A5108809115059091160530
:108100008415950529F4D20112968C91893149F094
:1081100086E694E490938A06809389060E9407314C
:10812000CBC080911105909112058115B7E09B0796
:1081300009F07FC000914305109144050115110518
:1081400051F083E495E00E94613040E050E063EA42
:10815000C8011EDAEFCF6CE6C62ED12C7CE6772E56
:10816000E2E4AE2EE4E4BE2EF3E48F2EF4E49F2E80
:1081700000913F05109140050115110509F444C017
:10818000B8018FE395E00E946D30809110149091BA
:108190001114F801E81BF90BCF01B6010E94D4F4C9
:1081A00080910B14681740F0B0928A06A09289065D
:1081B00069830E941F316981E0911014F0911114BC
:1081C000679DE00DF11D1124808191812781269505
:1081D00030E02130310561F02230310549F2232BA6
:1081E00061F4A8014B5F5F4FD80112966C9103C0F8
:1081F00040E050E067EACCD9BBCF90928A068092EB
:1082000089060E941F31B4CF10E080910B1418171B
:10821000D8F48091101490911114BCE61B9F800D2E
:10822000911D1124FC01278120FD0E9400341F5F55
:10823000ECCF8115924041F087E694E490938A0652
:10824000809389060E941F31109214051092130525
:1082500081E0C2DE0E9449370E94BC3782E393E08E
:108260009093120580931105D7018C91F2018287BA
:1082700085E195E00E946130D20118968D919C9124
:108280001997892B41F489E694E490938A068093A8
:1082900089060E941F31D2011896ED91FC91199721
:1082A000C701039619958091150590911605892BA4
:1082B00019F080E00E94E8330F90DF91CF911F9179
:1082C0000F91FF90EF90DF90CF90BF90AF909F9075
:1082D0008F907F905F904F900895CF93DF93C091E0
:1082E0001505D0911605209741F484E694E4909307
:1082F0008A06809389060E941F318A818A38F9F0A4
:10830000853C09F44FC0893109F06CC0809111059A
:10831000909112058031914019F480E092E002C002
:1083200080E097E0909312058093110583E690E436
:108330009E838D83CE0103960E9416A95BC0809117
:10834000110590911205823323E0920719F08031D4
:10835000964049F48FE394E09093120580931105C1
:1083600056DD1D8202C083EA8D8385E195E00E947F
:1083700061308B819C81892B41F48AE694E490934F
:108380008A06809389060E941F31EB81FC81CE0111
:10839000059619958091150590911605892B51F137
:1083A00080E018C080911105909112058F339440A0
:1083B000A1F480E095E0909312058093110582E08E
:1083C00090E09C838B838EE295E00E946F32109246
:1083D000250581E00E94E8330DC063EACE010E94CA
:1083E000E63708C085E694E490938A068093890670
:1083F0000E941F31DF91CF910895AAE0B0E0E3E041
:10840000F2E40C9474F5DC011396ED91FC91149751
:108410002181328140E450E05A834983AE01495FB3
:108420005F4F5C834B8341E050E05E834D836F3F41
:10843000BFEF7B0719F437FF15C003C026173707B6
:1084400089F098878F837A876987BE016F5F7F4F36
:108450008EE10E945D2F81E02D813E81232B19F05A
:1084600080E001C081E02A96E2E00C9490F500974C
:1084700029F480912305909124050895FC018081C1
:1084800091810895CF93C82FE0E0F0E0CF01EFDFB6
:10849000FC01009739F0A381B4818C91C813F6CF09
:1084A000CF0102C080E090E0CF910895CF93DF9399
:1084B000EC010097D9F086EA8F83EB81FC8130973D
:1084C000A9F080819FEF980F903F80F4DBDF892B2C
:1084D00069F421E08D819E81892B09F020E02A83B7
:1084E000BE0183E295E00E949D301F82DF91CF9113
:1084F0000895DF92EF92FF920F931F93CF93DF9334
:108500008C01009741F480E394E490938A06809371
:1085100089060E941F31C0E0D0E0A1E3EA2EA4E466
:10852000FA2ECE01A4DFEC01009789F18A81811136
:10853000F8CF8B819C81892B31F4F0928A06E092EE
:1085400089060E941F31F80160A171A1CE0155DF9B
:10855000882339F3EB81FC81D0806D2DF801878170
:1085600090850E947A898823E1F2F801D18AED8111
:10857000FE81309749F482E394E490938A068093D5
:1085800089060E94073103C0C8011995CACFCDB72B
:10859000DEB7E7E00C948BF5A1E3B0E0E2EDF2E4A6
:1085A0000C946AF58C01B62EDC015A96ED90FC9085
:1085B0005B9755966D917C915697F701478187E1BE
:1085C00095E00E946931882309F414C1D7011196FE
:1085D0008C919FEF980F9E3F28F454DF6C01009719
:1085E00019F408C1C12CD12CF801228983899489FE
:1085F000213009F022E02F8399878887D7011196CF
:108600008C918A8BF801858996890E9401C1FC01B1
:10861000009799F083E08B8B708161815281438157
:1086200034812581968187817E8B6F8B588F498F0E
:108630003A8F2B8F9C8F8D8F02C082E08B8BD8015D
:1086400055968D919C9156979D8B8C8B57968D91BD
:108650009C9158979F8F8E8FF701868188A3848184
:1086600095819AA389A3828193819CA38BA3599618
:108670008C9190E09C012A5031093EA32DA319A6AC
:10868000208127FD04C09C012850310906C02085A7
:10869000237029F49C01295031093EA32DA32DA15B
:1086A0003EA1821B930BF801228D338D280F391FB9
:1086B00038A72FA3BAA682A18BA7848D8CA7468D3D
:1086C000578D60A171A14DA75EA76FA778AB858D6F
:1086D00089ABD7018C9187FF48C018968C91837025
:1086E000823009F042C0E0911814F0911914808191
:1086F00090E09EA38DA38080912CAA24A394B12CFA
:108700002091201430E08091161490911714A21635
:10871000B3064CF5E0911814F0911914EA0DFB1D05
:10872000408150E020911B142A9DB0012B9D700DBB
:108730001124680F791F880D991D0E9448F6E09159
:108740001814F0911914EA0DFB1D20818DA19EA132
:10875000820F911D9EA38DA3BFEFAB1ABB0A808130
:10876000880E911CCDCF98A78FA3C114D10449F0D6
:10877000D6011596ED91FC911697CE0101961995AB
:1087800039C0F8018289813021F4CE010196B1DE31
:1087900031C0D70111968C918F3F41F5E12CF12C1E
:1087A000C70165DE7C01009729F1D7011396ED9191
:1087B000FC9114978081882399F312968C918111F2
:1087C000EFCF69A17AA1C70118DE882349F3D70149
:1087D0001396ED91FC91149780818A8B1596ED91FB
:1087E000FC911697CE0101961995DACFCE0101962C
:1087F0000E9462C8C8010E946734E196ECE00C94C4
:1088000086F5A1E0B0E0E7E0F4E40C946CF55C01DF
:10881000DC015A960D911C915B97F80181812FEF35
:10882000280F2E3F80F429832DDE7C0129810097BB
:1088300051F0D80114966D917C911597DEDD882357
:1088400009F405C105C02E3F08F401C1E12CF12C4B
:10885000F801808187FF04C09085937009F0F7C00C
:1088600086FFF7C08C70883009F4F1C0D5015596A9
:108870008D919C915697883FBFEF9B0708F0E7C00A
:10888000E114F10421F0F70122812111E0C0D501AA
:108890005A960D911C915B97F801208126FD02C02C
:1088A00090E0D2C02370213009F027E0F0900B1443
:1088B000E0911014F091111430E0422F50E0B80113
:1088C000640F751F3F15E9F0A781A530B1F4DF01F2
:1088D000AF5ABF4F0D90BC91A02D8A179B0769F42A
:1088E000DF01AC5ABF4FCD90DC90C40ED51EDB012A
:1088F000EC90D601DC90ED1499F23F5FE459FF4F04
:10890000E1CF82E029830E947E342981009741F2E1
:10891000FC01EC5AFF4F0190F081E02DDF015897E8
:108920003FEA11963C9311971396BC92AE92129720
:1089300062E0DC01A05BBF4F6C93D50155964D9171
:108940005C915697DC01AF5ABF4F11965C934E93E2
:1089500017961C9211961C9231E011963C93119639
:108960003C9311961C9244E055E3129611965C9349
:108970004E9311973C9330813C7F32603083D80115
:108980004C914C70337F342B30834C914295417025
:1089900040FB34F93E7D3F7B30834C9147FB4427BD
:1089A00040F940FB37F930834C9130E0DC01AD5A9F
:1089B000BF4F7D0144FF0DC0D5015A964D915C918A
:1089C0005B97420F531FDA012C912183F7016083DB
:1089D00037C048E04C93D80116964C9116974183C6
:1089E00012964D915C9113975383428314964D9147
:1089F0005C9115975583448311964C914683D5011C
:108A00005A964D915C915B97420F531FDA012C915E
:108A10002783D8012C9127FF13C018962C9123701F
:108A200031F41086F70120812F5F208309C0D70120
:108A30002C912D5F2C93D80118962C9123702087B0
:108A400009960E94473591E081E08927A1C190E015
:108A500001C091E0F801808187FF92C18085837019
:108A600009F48EC1D5015A960D911C915B975996C8
:108A70008C91F801F18420911A14222309F487C102
:108A800096EFE92EE80E80911514813009F456C056
:108A900030F0843008F06BC180E494E46AC1D08483
:108AA000B1E0DB1274C12F1508F471C180911B1461
:108AB0008E1508F46CC190E00196289FA001299FB3
:108AC000500D112460E070E08091161490911714FD
:108AD0000E9462F68FEA8093BB14D0921514F09234
:108AE0002014F5018589968990932414809323148A
:108AF000D80111968C9111978093251412968D911F
:108B00009C911397909327148093261414968D911B
:108B10009C911597909329148093281416968C9104
:108B2000169780932A1417968C9180932B1480911A
:108B3000F0128093BC1410922114F12CF80180855E
:108B4000982F9370923011F0F11021C18C7F09F0B1
:108B50001EC1809120148F1508F419C1209123148F
:108B600030912414D50155968D919C9156972817D4
:108B7000390709F00CC190912514F80181819813EF
:108B800006C12091261430912714828193812817E1
:108B9000390709F0FCC020912814309129148481F0
:108BA00095812817390709F0F2C090912A1486811F
:108BB0009813EDC090912B1487819813E8C02091F1
:108BC00021144091F1120F2D10E0822F90E0840FBC
:108BD000911D081719070CF0DAC08F2D642F0E9421
:108BE000C8F4D92EF21668F48F2D891B80932114B6
:108BF00021E030E001C0220F4A95EAF72195209349
:108C0000221420911B1480911614909117144E2D4C
:108C100050E0D5015A966D917C915B97665F7F4FCE
:108C2000F29E800D911D11240E9448F6E0911814C7
:108C3000F0911914E00FF11FE0827091211420913E
:108C400020147F1111C09091F112822F8F19981763
:108C500008F4892F41E050E0082E01C0440F0A9427
:108C6000EAF741954093221441E050E00D2C01C0F9
:108C7000440F0A94EAF760912214642B6093221443
:108C80006F3F79F4FF24FA94F70E822F90E0409121
:108C9000F11250E0871B9109481759070CF4CA01DB
:108CA000F80E8F2D90E030E02150310982179307A4
:108CB00051F46F3F21F483E00E94993663C082E053
:108CC0000E94993664C0A091F112B0E011979D0105
:108CD000270F311D8217930711F06F3F09F582E0CE
:108CE0000E949936809122148F3F09F050C08091E4
:108CF000F11290912114980F909321142091201437
:108D000021502F19821708F4282F81E090E0022EBD
:108D100001C0880F0A94EAF781958093221437C026
:108D20002AE030E00E944EF59B01AC0180912605BF
:108D300090912705A0912805B0912905280F391F8A
:108D40004A1F5B1FA091F012B0E00E9454F59B01F6
:108D5000AC0160931C1470931D1480931E149093A7
:108D60001F1461E080E090E00E940F3810C083E59E
:108D700094E490938A06809389060E941F3107C06D
:108D8000992329F06FEAC50107DC80E001C081E08A
:108D90002196EAE00C9488F5A7E3B0E0E2EDF6E472
:108DA0000C9464F5A0901105B090120520E1A21674
:108DB00021E0B20609F469C12DE4222E24E4322E0A
:108DC00088248394912C8FE395E00E9461307C018C
:108DD000009709F45AC10091101410911114C701A1
:108DE000801B910B6CE670E00E94D4F480910B1410
:108DF000681748F089E494E490938A068093890682
:108E00000E94073142C13CE6639F000D111D1124F1
:108E1000D80117968C91B0E1AB16B6E0BB0621F0F5
:108E2000A114E5E0BE0699F58E7F843019F5C801DE
:108E30008C5A9F4F0E94FC3A6C01DC0111966C9198
:108E4000119712968D919C911397892B51F4EAE416
:108E5000F4E4F0938A06E09389066CAB0E941F311C
:108E60006CA9D70112968C91811104C0F601828100
:108E7000938192DBA7014B5F5F4F63EAD8018D912D
:108E80009C910E94C83AC7010E9400349CCF8695ED
:108E9000482E512CB1E04B165104B1F054F4452842
:108EA00009F0EAC0D70112966C91C8010E94C23D38
:108EB0008ACFF2E04F16510409F4BBC023E04216FA
:108EC000510409F47BC0D8C0F80180858F708130CF
:108ED00009F079CF60807180D70119968C910E943A
:108EE000FD369B01AC01C090F012D12CF8018085B9
:108EF00082958F70C81AD108D70112966C916111B2
:108F00001EC02FAB3CAB4DAB5EAB0E9424F6FC0108
:108F1000F170D20102C0AA0FBB1FCA94E2F72FA9B9
:108F20003CA94DA95EA90E945EF56E0F7F1F811DB1
:108F3000911DF80163837483858396832DC06E3CF5
:108F400059F0603F49F0603D39F0613D91F4D30143
:108F50009B968C9187FF0DC0A7014B5F5F4FC301AC
:108F60000E94C83AC7010E94003481E00E94E833A1
:108F70008CC00E9424F69170E8EEF3E002C0EE0F80
:108F8000FF1FCA94E2F78E0F9F1FA0E0B0E0F80128
:108F900083839483A583B683D80118968C91189700
:108FA000807F826018968C93189713962D913D912F
:108FB0004D915C91169760E0C80102C2F80180856E
:108FC0008F70813009F0FFCE2091BE1430E0809187
:108FD000C11490E001972817390709F4B5C1E09151
:108FE000F1127091C014272F30E080E090E0682FDC
:108FF0008E1708F0A9C10196A901062E02C0559549
:1090000047950A94E2F740FFF2CFC401062E01C053
:10901000880F0A94EAF7809587238093C014809183
:10902000BF14860F8093BE1484EC94E10E9414E276
:10903000CACEC8018C5A9F4F0E94FC3A8C01DC01B9
:1090400011966C91119712968D919C911397892B83
:1090500041F430928A06209289066CAB0E941F313F
:109060006CA9F8018281938197DAC7010E940034CC
:1090700081E00E94E833A7CE2EE434E430938A06E0
:10908000209389060E941F319ECE1BAA1AAAA7E32D
:109090004A2EA5E35A2EBFEA2B2E13E0312EAA2426
:1090A000A394B12C66246A94712C95E4892E94E4DF
:1090B000992E81E495E00E9461308C01C0901105E9
:1090C000D0901205009761F1D80150968D919C9136
:1090D0005197892B09F077C15A96ED91FC915B97D6
:1090E00080818370813009F06EC18281853009F4FE
:1090F0006AC155968D919C9156970E9401C1892B0A
:1091000009F061C122E0F80124838589968996835C
:109110008583518A408AC80102960E94F8C0C9CF4F
:10912000C1FE11C050E5C52E54E4D52E62E0462E96
:1091300072E1A72E74E4B72EE8E05E2EFFE38F2ED7
:10914000F5E39F2E3BC000914305109144050115A6
:10915000110509F458C0B80183E495E00E946D3010
:1091600040E050E063EAC8010E94C83AECCF86892B
:10917000833081F57801F9E1EF0EF11CC7010E94FF
:10918000FEC0892B39F5D8011B96F701852D01907A
:109190000D928A95E1F7D80156968C9156971896BC
:1091A0008C93189755969C928E925497C801069668
:1091B0000E94F8C083E495E00E946130009143056D
:1091C0001091440501151105F1F0F8018489958984
:1091D000892B69F28091D1149091D214892B09F4D2
:1091E000BCC2C8010E94CE33882309F4B6C2C801AC
:1091F0000E94CE33882309F4B0C2F80100811181A6
:1092000001151105A1F780911105909112058115A5
:10921000B5E09B0721F08031F6E09F0769F5F12C5E
:109220000EC02CE6F29E80011124E0911014F09102
:109230001114E00FF11F8781833031F0F394809196
:109240000B14F81670F320C080858F70843011F0F5
:109250008230A1F740E050E063EA808191810E9472
:10926000C83A8091101490911114800F911F805A68
:109270009F4F0E940034E2CF8F33944029F4F12CA9
:1092800080910B14F81648F0809111059091120509
:109290008115954009F07EC351C0009110141091C2
:1092A00011148CE6F89E000D111D1124D80117969B
:1092B0008C91179780FF40C018969C911897292F82
:1092C0002F702430C9F5282F2A7F2230A9F5907FEE
:1092D00079F19160905118969C938E7F823071F451
:1092E000C80109960E944735F801238134814581E0
:1092F000568160E0C8010E940F381EC08630E1F43C
:109300008091C0148E7F8093C0148091BF1480938D
:10931000BE148091C31481508093C314E091D11482
:10932000F091D214BF01808191810E944E3504C01A
:1093300067EAC8010E94C23DF394A2CF809125053F
:10934000882309F4A8C226C3F70181850E94FD364F
:109350009B01AC01A091F012F801808582958F707D
:10936000A81BC40102C0880F991FAA95E2F7DC016F
:109370000E945EF56B017C010091D1141091D21412
:109380000E9424F69170C80ED91EE11CF11CD80170
:109390001396CD92DD92ED92FC921697E091D11446
:1093A000F091D2148085807F826080878091D11473
:1093B0009091D214FC01238134814581568160E073
:1093C0000E940F3800CDD8015A96ED90FC905B9723
:1093D000BFE3CB16B4E0DB0669F0D7018C91837054
:1093E000813041F0F80183A1811104C0C8010E94BD
:1093F0006734A4C1D7014C91642F607446FF11C03B
:1094000050910E1420910B1430E080910F1490E0D5
:10941000850F911D821793074CF780910C145817F4
:1094200028F7242F2C70243009F3662331F0842F81
:1094300083708230D9F243FDD9CF45FDD7CFF801F3
:10944000D288F1E0DF1671F032E0D312CFCF437053
:10945000842F90E0009721F0029709F47AC0C6CFDC
:109460002C3031F0C801CDD9882309F467C1BECFB3
:10947000D80155966D917C915697F701408587E10B
:1094800095E00E946931882309F4B0CFD80159963C
:109490008C91893008F4AACFB1E0BF83F7018181B4
:1094A000928199878887D80155968D919C9156977E
:1094B0000E9401C1FC01009791F03B8A708161819B
:1094C0005281438134812581968187817E8B6F8B88
:1094D000588F498F3A8F2B8F9C8F8D8F01C0DB8ADD
:1094E000F801858996899D8B8C8B8789908D9F8FBC
:1094F0008E8FD70117968C91179788A315968D910B
:109500009C9116979AA389A313968D919C91149779
:109510009CA38BA3818D90E009979EA38DA3828D40
:10952000938D099698A78FA319A62AA682A18BA727
:10953000848D8CA7868D978DA0A1B1A18DA79EA7A4
:10954000AFA7B8AB858D89ABCE0101960E94794259
:109550004DCF423031F090928A06809289060E9467
:109560001F31C0901014D090111480910B14F6018B
:109570002CE6829FE00DF11D1124CF01C816D906FB
:1095800008F034CFD60117966C91179760FFD2C0C0
:1095900018962C9118972F70223009F0CBC0F60145
:1095A000EC5AFF4F0190F081E02D2D913C91D801B4
:1095B00055964D915C915697D90157962D913C91B6
:1095C00058974217530709F0B5C0D70117963C9139
:1095D000179727813213AEC014964D915C91159761
:1095E000248135814217530709F0A4C012964D918A
:1095F0005C911397228133814217530709F09AC077
:1096000011963C9111972681321394C016963C9185
:10961000218132138FC06E7F623031F4F601808574
:10962000807F836080873FC0663009F083C0D701A8
:1096300019969C9119978091BF149813D7CE609179
:10964000F112262F30E0C501062E01C0880F0A94C2
:10965000EAF781951A969C911A97982B1A969C93E3
:109660001A97F6018085807F836080871A96EC9137
:10967000EF3F99F54091C11450E07091BF14E70F8E
:10968000CA01871B9109281739070CF4C9018E0FED
:109690008093BE1490E0415051098417950741F41E
:1096A000C6010E94133C60E0C6010E94C23D9ECEEE
:1096B000760F7093BF148091F0128093C31470934F
:1096C000BE14930102C0220F331F6A95E2F7B9015D
:1096D00060956E7F6093C01423C0E095E093C01442
:1096E00080E090E02E2F30E0782F8617C8F40196A6
:1096F000A901072E02C0559547950A94E2F740FF4D
:10970000F3CFC501072E01C0880F0A94EAF78095B0
:109710008E238093C0148091BF14870F8093BE1452
:10972000E091D114F091D214BF01808191810E9407
:109730004E355CCE3CE6C30ED11C20CFD8015C96E2
:109740008C915C978AAB5D968C918BABBE016E5C05
:109750007F4F8BE30E945D2FACCCC8010E94CE33BB
:10976000882361F08091D3149091D414892B09F44B
:10977000BDC0D8019B968C9182FFB8C0F80187A12B
:1097800090A58536910518F083A583FFB1C0D80157
:1097900096963C90332031F0832D0E944242892BD3
:1097A00009F448C0F80183A52689382F347082FF58
:1097B0000AC0223031F48789908D883F9F4FD0F5C1
:1097C00002C02130B9F18EEF820F823038F4D80117
:1097D00091968C91815F8E3068F18CC021118AC086
:1097E000332309F487C0F80164A075A087D67C01F3
:1097F000009719F080E090E00CC0B0928A06A09229
:1098000089060E94073176C0DC011B962C9121301D
:1098100089F09701432DB3010E944D3C0097A1F7B9
:1098200069C0813008F475C0823009F49AC0833071
:1098300009F48AC026EAE12CF12C612C712CB801C4
:1098400083E495E02FAB0E946D302FA921111CC03D
:10985000E114F10431F4D0928A06C09289060E9484
:109860001F31F30111830083C8010E94CE33882386
:1098700019F0C3010E94133CB301C801F701199507
:10988000282F882309F49ACC40E050E0622FC801C9
:109890000E94C83A93CC0091150510911605F80165
:1098A0008281853C41F08DE694E490938A06809312
:1098B00089060E941F31D80113968D919C911497AF
:1098C0008D7F14969C938E931397892B09F062C019
:1098D00080E00E94EC3F80E196E090931205809337
:1098E000110560E0C8010E94E63754C02AEAA3CF00
:1098F00020EAA1CFD80156968C91813009F091CF02
:1099000080E00E947E343C013DE3E32E3BE3F32EF6
:109910000DC0C8010E94CE33882371F083E00E94FD
:109920007E343C014CE8E42E4DE3F42E61147104C6
:1099300009F469CC20E083CFF80183A582FF02C03F
:1099400081E0EDCF80E0EBCFC80149960E94FEC0D8
:109950000097F1F0DC018D919C91F801908F878B3D
:10996000468AC8010E94CE33882311F083E008C0E4
:10997000D8019B968C9182FF02C081E001C080E0FB
:109980000E947E343C012EE4E22E25E3F22ECECF5F
:1099900029EA51CFE796E2E10C9480F5AFE1B0E01F
:1099A000E4EDFCE40C9471F5009749F485E495E44A
:1099B00090938A06809389060E94073182C0FC0139
:1099C0002081233009F07DC0218132813A832983AF
:1099D00028E03396DE01139601900D922A95E1F767
:1099E000FC0123852B87248535853D872C8728E03E
:1099F0003E96DE011E9601900D922A95E1F7FC013C
:109A0000218D2D8F238D2E8F0789108DF688F6E0FE
:109A1000FF1508F056C0F8018081982F937093309D
:109A200009F04FC0807E09F04CC08181811149C08E
:109A3000BE01615E7F4F84E190E00E946D33F801CA
:109A4000208126952695277030E08F8D90E028178D
:109A50003907B9F58281982F9370933091F5982F3B
:109A6000907F79F58C708C3091F481E08B87F8E0F1
:109A7000FF1538F5F801838194819F878E876FEFFA
:109A80000E947A898823E9F0F80129E003C0F801EF
:109A9000329727E085819681998F888F878190857D
:109AA0009F8B8E8BF21AFA8E020F111D1C8F0B8F5B
:109AB000E0912105F0912205309719F0CE01019631
:109AC00019956F96E5E00C948DF580E191E0909307
:109AD000120580931105109216051092150510922B
:109AE00014051092130510922405109223050E946C
:109AF00049370C9435A9CF93DF93EC016DE372E005
:109B000085E20E94DC2F6DE372E088E30E94DC2F87
:109B1000209749F480E694E490938A06809389061E
:109B20000E94073105C089E18A83CE010E940F356A
:109B3000DF91CF910895009741F481E694E49093EA
:109B40008A06809389060C9407312AE8FC01228357
:109B50000C940F35009741F482E694E490938A06C2
:109B6000809389060C94073125ECFC0122830C9428
:109B70000F35CF93309112148091131490911414D7
:109B800020E0231751F08396FC01B39740814423D2
:109B900011F081E029C02F5FF4CFC0E080910B1459
:109BA000C817E0F40E94572F9CE6C99F900111242A
:109BB0004091101450911114FA01E20FF31F882301
:109BC00041F0878180FF08C080858F70823021F04E
:109BD000E0CF878180FDDDCFCF5FE0CF81E0909146
:109BE0001514911101C080E0CF9108951F93CF9378
:109BF000DF93EB01853239F41881BBDF91E09827C0
:109C0000912398831FC08833E9F4388140910B1465
:109C1000E0911014F091111480E0841771F0278105
:109C200020FF07C090859F70923019F42A7F223060
:109C300031F08F5FE459FF4FF0CF80E001C081E049
:109C4000832B8883DF91CF911F910895FC01808140
:109C500084FD0C94BC370895A2E0B0E0E2E3FEE49A
:109C60000C9474F5E0911305F09114052F2F30E05A
:109C70009E2F9F5F983008F090E0692F70E0A90157
:109C8000092E02C0569547950A94E2F740FF26C078
:109C90009093130581E090E0062E01C0880F0A948E
:109CA000EAF78F2780931405660F771F6058744B6F
:109CB00042E050E0CE0101960E9432F689819A81FD
:109CC000892B41F480E094E490938A06809389067E
:109CD0000E941F31E981FA81199504C0E913C9CFA7
:109CE000E093130580911405882361F02FB7F89451
:109CF00080910F05909110058062909310058093DC
:109D00000F052FBF2296E2E00C9490F580913C1352
:109D1000853091F028F4882349F0823069F004C03E
:109D2000843141F0863141F080E00895809135130F
:109D30008B3010F488E0089582E00895833014F0A9
:109D400083E01BC096E0980F923010F48BEF15C0A3
:109D500098E0980F923010F489EF0FC09AE0980FB6
