S02B0000416C6C5F4D65676152665F41746D656761323536726672325F384D687A5F4763632F4578652F417000
S2840000000C9483260C941FF10C944BF10C9477F10C94A3F10C94CFF10C94FBF10C9427F20C9453F20C94C0260C94C0260C94C0260C94C0260C9430ED0C94C0260C9486ED0C94C0260C94C0260C94C0260C94C0260C94C0260C94C0260C94C0260C94C0260C94F5F30C94E9EF0C948CEF0C94BBEF0C94C0260C9486F30C94E6F20C94C02640
S2840000800C94C0260C94C0260C94C0260C94C0260C9483F00C9426F00C9455F00C947FF20C94C0260C94C0260C9476DE0C94D9E00C94C0260C94C0260C94C0260C94C0260C94C0260C94C0260C94C0260C94C0260C94C0260C94C0260C94C0260C94C0260C94C0260C94C0260C94C0260C94C0260C9435E10C94C0260C94C0260C945DE1CB
S2840001000C94C0260C94C0260C94C0260C94C0260C94C0260C94C0260C94C0260C9485E10C94C0260C94C0260C94C0260C94C0260C94C026000000000000000000000000000000000000000000000000000000000000000000000000000000000000000000000000000000000000000000000000000000000000000000000000000000002C
S2840001800000000000000000000000000000000000000000000000000000000000000000000000000000000000000000000000000000000000000000000000000000000000000000000000000000000000000000000000000000000000000000000000000000000000000000000000000000000000000000000000000000000000000000FA
S284000200000000000000000000000000000000000000000000000000000000000000000000000000000000000000000000000000000000000000000000000000000000000000000000000000000000000000000000000000000000000000000000000000000000000000000000000000000000000000000000000000000000000000000079
S2840002800000000000000000000000000000000000000000000000000000000000000000000000000000000000000000000000000000000000000000000000000000000000000000000000000000000000000000000000000000000000000000000000000000000000000000000000000000000000000000000000000000000000000000F9
S284000300000000000000000000000000000000000000000000000000000000000000000000000000000000000000000000000000000000000000000000000000000000000000000000000000000000000000000000000000000000000000000000000000000000000000000000000000000000000000000000000000000000000000000078
S284004400B10E16001900A40C03001800E007BD001700061301001600BA13080015004713010014003E1302001300AA13010026004D1301001E003D1301000F00C41301000E00AE1301000D00B61302000C00071301000B00011302000A002413110009001A1301000800191301000700181301000600AB1301000500B41301000400AC1204
S28400448004000300351308000200FF1201000100E41208000000704712002E00944715002D00BE4719002C00F04704002A00F84711002900F9501E5037513751375123502D503751375135503A5062506B50375170507850825037518B50905037519950D450E6503751D950E150F950F950F950F050F050F050F050F050F050F050F05099
S284004500F050F050F050F050F050F050F050F050F050AC50F05037513751375137513751375137513751375137513751375137513751F050EB50F950F050A650FB50F950125120512751F950F950F95093520052D552D552D55206520B52A952D5520E52115222522752D5522A522D523052D55235523852A9523D5287529C52D5528A5232
S2840045808D52045290529052A952A952A952A952A952A952A952A952A952A952A952A952A952A952A952A952A9526D52A952D552D552D552D552D552D552D552D552D552D552D552D552D552D552A9529F52A252A9526552B152BA52B452B752D552C852CD52D352DA53DC53E753DE53E053E253E453B953EA53EC53B953EF534454475492
S2840046004B544E545254565459545D545D549F58DD58DD58DD58A658C358B458BB58EE58AD58CA58CA58D158DD58E558E95849594C594F594F5951595B5955595859685953595E59605962596559515B545B755B575B5B5B755B5F5B755B6A5B6D5B735BDC5E895F985F975EDF5FDF5F945F985F9D5FCB5FB45FDF5FDF5FCB5FCA5ECD5FC3
S284004680D197D997F09762986298B997C69762986298629810981F983C9848986298B697E49782974F9C4F9C789B809B809B8D9B8D9BAA9BAA9BAA9B089C089C089CA39C4F9C30AA82AA56AA5AAA5AAA5AAA5AAA5AAA5EAA5EAACDBCD0BC71BD71BDD5BC71BDDFBCC8BDC8BDC8BDC8BDC8BDC8BDC8BDC8BDC8BD71BD71BDC8BDC8BCDABCE8
S28400470071BD1EC86CC86CC86CC86CC86CC85BC845C863C86CC855C86CC85FC867C841CA1CCBFACB25CC64CC90CDD9CDFCD3FCD3FCD3FCD3FCD3FCD3FCD3FCD3FCD310CD1ECDFCD3FCD345CDDBCBF3D5FBD50DD616D618D61AD61CD61FD6F2D66AD76AD718D721D731D73AD73DD740D743D749D700000100020003000400050006000700AF
S284004780080009000A000B000C000D000E000F001E00180000000100020003000400050006000700080009000A000B000C000D000E000F001E00130014001500160000000100020003000400050006000700080009000A000B000C000D000E000F001E0013001400150016001700180019002600130014001500160000000100020003008C
S2840048000400050006000700080009000A000B000C000D000E000F001E0049060000E00700003A0700009D080000D407000000000000C7080000310E0000890E0000DB0B00002D0C0000F70B0000640C0000A70C0000EB0D00000000000000000000A40C0000B10E000000000000000000000000000000000000000000000000000000005C
S284004880000000000000000000000000000000000000000000000000000000000000C70E0000EF0E0000CE0600006A4A02006E4A0100714A01006F4A0200744A0100754A0100764A0100774A0100784A0100794A01007A4A0200724A02007C4A01007D4A0100964A0200874A0100884A0100894A0100924A04007E4A01007F4A0400834AED
S2840049000100844A01008E4A01008F4A0100904A0200000000000000000000000000000000000000000000000000000000000000000000000000000000000000000000000000854A0100864A0100984A0100994A01009A4A01009B4A0100000000008A4A04006C4A0200E4120800EE120100FB120400FF120100B2130100B3130100BA1394
S2840049800800B61302003E13020047130100AE130100C4130100B413010003130100041301000513010006130100011302000713010008130100B0130100AF130100BF120100C012010035130800AC1204001B130400101304001413040018130100191301001A13010024131100AB1301001F13010020130400AA120100C11202003D1384
S284004A000100001301000000000000000000AB1201000000000000000000000000000000000000000000000000000000000000000000000000000000000000000000091305000E1301000F13010000000000000000000000000000000000000000000000000000000000EF12010085006C0001000007050007040205040204000308FF14BE
S284004A800000000108030303020A901A00000100000000000203141061620003001E000003013412000303000002000000000003031027000010270000010001E803000004E80300001041746D656C2020202020202020202020FECAAAAAAAAAAA1A000203010080000000000000000000000000000000000005FF00000000000000000018
S284004B000000000000000000000000000000000000000000000000000000000000000000000000000000000000000000000000000000000000000000000000000000000000000000000000000000000000000000000000000000000000000000000000000000000000000002010002020508080000FFFF34120000000000000000020201CB
S284004B80C941284700000000000000000000000002137EF17801075399A77301015399A7730101D27DFC900101577D5BA00101577D2AA001070C7D97730101B47C7B8601010000000001070000000001010000000001030000916B01040000916B010500000000010600000000010D00000000010153990000000100000000010E000000E3
S284004C0000010700000000010A00000000010000000000010100000000010100000000000000007E77000900007E77000C00007E77000000007E7700157AE77F1297B8A91E76489D2A7BD07BA4748D82D288B77784A0B17A2375127400000000DC735582000000004669566CDC69B169D56900004D695B69CA6954694C6C0469486B4F6B7A
S284004C80BE6B406BE3690000A66C0201020303020201010101010101010102020101010201020202020202010202020202020103030202030DA8399EF0966C9F00006FA6EF8F08AB00000000CBB765BCF0C536BF0CD4CFC4EBE2EBE2EBE2EBE25DE421E27BF401ED8ADFC8DE9BEB36EE3FEB8CE907E8ECE23EE46AE57DE33CE468E57BE38B
S284004D00030405060700112480912718823159F084B780FD04C08F718093271807C081E08093271803C081E18093271814BE809160008861809360001092600011241FBECFEFD1E8DEBFCDBF00E00CBF12E0A0E0B2E0EAE8FDEE01E00BBF02C007900D92AC3FB107D9F728E1ACEFB2E001C01D92A732B207E1F70E9494320E94AA32FDCF3E
S284004D800C9400007F937FB7F8949D9AA5988AEF4DD08AEF4BD09D9886E448D081E0959980E08F9380EF42D08F917FBF7F9108957F937FB7F8949D9AA59886E037D09D988AE034D0889495990894881F8F9384E62DD08F917FBF7F9108959F937F9398E0E7DF879577959A959923D1F7872F7F919F9108957F937FB7F894A5989D9A8F9375
S284004E0086E014D08F91879508F49D988F9384E60DD08F919D987FBF7F9108959F9398E0E9DF9A959923E1F79F91089500000000000000008A958823C9F708955F937F937FB7F894CF93DF93C0E0D0E07F935091B2007091B2007517E1F3739521965091B2005717D9F77F91CE01DF91CF917FBF7F915F91089584E0809350032FB7F894AC
S284004E808091D1049091D20490619093D2048093D1042FBF0895FC0164A186A197A130D362E084EB92E02CC30895FC018785811112C06FE473E081E290E00E94C9332FB7F8948091D1049091D20490619093D2048093D1042FBF0895AC016EEF72E08CEA95E00E9460E68091FE0280931D038093DA05853321F491E09093FC0204C08633EF
S284004F0011F41092FC028553823008F042C081E090E09093FE058093FD0583E08093F10521E02093F4058BE08093F5051092F6051092F7051092F8052093F9051092FA051092FB052093FC058DE193E0909305068093040686E090E09093030680930206209301068AED98E290930906809308062093FD0285E0809350032FB7F89480919D
S284004F80D1049091D20490619093D2048093D1042FBF2091FC02213009F055C08091DA059FEC980F923068F481E090E09093FE058093FD0583E08093F1052093F4058BE00FC08353823080F581E090E09093FE058093FD0583E08093F1052093F4058CE08093F5051092F6051092F7051092F8052093F9051092FA051092FB052093FC0558
S2840050008DE193E0909305068093040686E090E09093030680930206209301068AED98E2909309068093080685E0809350032FB7F8948091D1049091D20490619093D2048093D1042FBF0895719A80E00C94F4320895719880E00C94043308958F929F92AF92BF92EF920F9380910F0624E6829FC001112462E970E00E9444F54B01AA24E4
S28400508097FCA094BA2C2091FC0230E040E050E0EE24E39400E064E088E388169104A104B10470F480E192E05FD264E080E192E027D28091FC02811112C0C6DF81E30DC080E192E051D264E080E192E019D28091FC02811104C0BDDF80E38093220383E0E82E00E0A501940164E084E192E03CD28091140280931E038091150280931F0380
S284005100809116028093200385E0809350032FB7F8948091D1049091D20490619093D2048093D1042FBF0F91EF90BF90AF909F908F9008951092FD02ADE1B3E08091DA058C9381E090E09093FE058093FD0583E08093F105E4EFF5E021E020838CE081831282138214822583168217822093FC05B0930506A093040686E090E0909303067B
S28400518080930206209301068AED98E2909309068093080685E0809350032FB7F8948091D1049091D20490619093D2048093D1042FBF0895FC018081811115C08091FD02813011F4B7CF089586E0809350032FB7F8948091D1049091D20490619093D2048093D1042FBF08951F93CF93DF9380915003823009F442C098F48823F1F08130F0
S28400520009F0A7C085E597E290934E0380934D0387E393E00E9417C582E08093500399C0843009F491C008F47BC0853009F091C08BED95E00E94433F8CC029D180ED97E0A0E0B0E08093D3059093D405A093D505B093D6051092D7058BE397E29093D9058093D8050E94143384B18E6084B980E092E00E94FFEA699A81E057C0C1E0D0E036
S284005280D0932F03C0932E03D0932D03C0932C0311E010932B0380913003807F8160809330038BE293E090932703809326038BE497E2909329038093280383E293E00E94B242D093FE05C093FD0583E08093F1051093F4058CE08093F5051092F6051092F7051092F8051093F9051092FA051092FB051093FC058DE193E090930506809343
S284005300040686E090E09093030680930206109301068AED98E2909309068093080604C08DEC95E00E9470E286E0809350032FB7F8948091D1049091D20490619093D2048093D1042FBF05C060E080E092E00E9429EBDF91CF911F9108950895089508950895CF92DF92FF920F931F93CF93DF93E42FF0E0F0907F042AEF30E02F19310958
S2840053802E173F0734F150917E0420E030E0EC01C60FD11D0AEF10E02E173F07ACF4852F90E0BC016D577C4F6B01BE01620F731FDB015C91D6015C932F5F3F4F0196B8010E9444F5582FE8CF50937E04F40EF0927F04DF91CF911F910F91FF90DF90CF9008951F93CF93DF931092B2041092B30410917F04112309F446C080917D04E0E89D
S284005400F4E01333E0F4212F30E0CAEFD0E0AF0140585440421753075CF490E0DC01AD57BC4F4C9141930196BE010E9444F5EFCF80937D041093B20410927F0418C02AEF30E090E0DC01AD57BC4F4C9141930196B9010E9444F594E0E23BF90791F780937D0482E38093B204125310937F0481E08093B3044091B20450E060E874E08CEAEF
S28400548095E00E94D3E5DF91CF911F91089588EC8093B7051092B80589E190E09093BA058093B90586E08093BB051092BC051092BD051092CC0581E593E09093C1058093C00582E390E09093C3058093C2051092C5051092C4051092C7051092C60581EF99E29093CB058093CA058CE697E29093C9058093C8058CEA95E00C9474E5089536
S284005500462F2091B304222319F060E02ACF0895FC01A0E8B4E0633370F4862F90E09D0120583440281739071CF421912D93F7CF4093B2040CC021912D9324E0A23BB207D1F722E32093B204425362E30ADF81E08093B3044091B20450E060E874E08CEA95E00C94D3E50895A0E0B0E0EAEBFAE20C94C6F5F12CF701E00FF11DC62FD0E011
S284005580CE17DF07ECF0C0E0D0E08C010E0F1F1F6AE0862E912CA12CB12C2197F701EC0FFD1F319669F06801CC0EDD1EB901CA01A50194010E9457F5605DF6016083EDCFCDB7DEB7ECE00C94E2F5A2E0B0E0EBEEFAE20C94C8F56C010091100610911106E12CF12C8091140690911506E816F906A8F45801B8016C5F7F4F42E050E0CE01FA
S28400560001960E948EF60A5F1F4F29813A812C153D0539F08FEFE81AF80AE4CF80E090E001C0C5012296EAE00C94E4F5ADE0B0E0ECE1FBE20C94CAF57C016B0123E0969587952A95E1F7FC01E05FF94F228D30E0B70167707727062E02C0369527950A94E2F78E010F5F1F4F20FF42C027E0EAE2F6E0D80101900D922A95E1F7A0E020E050
S28400568030E04A2F50E048175907D8F4F801E40FF51F4081542F569555754575540F452F4695469543735373450F4083E42FEF7042954F7050E04E0F511D240F351FAF5FE0CFE0E0D801A80FB91F4E2F50E04617570780F44C9150E00E2E02C0569547950A94E2F741705527240F351FEF5FEDCF2FEF3FEF1B870A8746E0429FC001439F13
S284005700900D112404969987888786E090E09D878C8768EC7CE2CE01089672D18D819E81E816F90639F084E090EA9093440680934306E1D589819A81F601918380832D96E8E00C94E6F5A6E0B0E0E9EAFBE20C94CCF57C018B0180E090E0FC0133E0F695E7953A95E1F7EE0DFF1D6081AC0147705527262F30E0042E02C0369527950A941D
S284005780E2F720FF0DC021E030E001C0220F4A95EAF720952623208318DF009731F431C0019683339105C9F62CC046E050E0BC01CE0101960E948EF689819A81F80193838283B8018D819E8131DFF801808191810596918380838B819C819583848382819381892B39F480E090EA909344068093430681D58D819E81F7019087878381E0DD
S28400580006C08FEF9FEFF7019087878380E02696E6E00C94E8F5A8E0B0E0E1E1FCE20C94C6F57C01A0901206B0901306FC01868182FD09C000E010E0812C76E0972ECC24C394D12C0CC047E050E06FEF70E0C7010E94BEF66DC0882483940F5F1F4F80911606909117060817190708F05BC0909EB001919E700D11246A0D7B1D46E050E0E3
S284005880CE0101960E948EF62D813E81F90163E0F695E7956A95E1F7EE0DFF1D408127703327842F90E0022E02C0969587950A94E2F780FFD2CFC60102C0880F991F2A95E2F79C01209524232083812C882D90E02B813C818217930708F0BDCF880F991F69817A81680F791F42E050E0CE0107960E948EF68F819885FC0153E0F695E795AA
S2840059005A95E1F7EE0DFF1D87709927960102C0220F331F8A95E2F7C9019081982B90838394D4CF882021F000E010E0812C97CF2896ECE00C94E2F5CF93DF93EC018FEF9FEF98878F8387E0FB01DE0101900D928A95E1F7CE015FDFEAE2F6E0919188818923899386E0E133F807C1F7DF91CF91089580913E0690913F06A7C208951092A7
S2840059803B0689EB9CE290933D0680933C0608950895E3E2F6E0DC013D91CD012081232B2193B6E0EA32FB07B1F78091400684608093400608950E9485E9882311F0DFD5FACF0895A2E0B0E0E8EEFCE20C94CEF58B0189839A83EFDFB80189819A810E94A8E8019631F08CE2083C180721F4E3DF02C081E001C080E02296E4E00C94EAF505
S284005A00A2E0B0E0E6E0FDE20C94CEF58B0189839A83D1DFB80189819A810E9435E8019631F08CE2083C180721F4C5DF02C081E001C080E02296E4E00C94EAF5A2E1B0E0E4E2FDE20C94C3F580914006982F92609093400682FF0AC063E276E084EB94E06BDF809140068B7F80934006CC24C394D12C7E013DE0E30EF11C55E0A52EB12C6B
S284005A804E0182E1880E911CBE01695F7F4F84EB94E059DE882309F462C06090BB047090BC04F30163E0F695E7956A95E1F7E05FF94FC30187709927960102C0220F331F8A95E2F7C901809593898923838BFC82EB82BE82AD828F81988505979A83898368EC7CE2CE0101968BDF4B855C8569857A8580E05ED0582E8D8558123AC088895D
S284005B00998968167906A9F52B853C858E859F852817390771F59C828B82DE82CD8200E010E02B853C850217130708F0ADCF2F813885200F311F3A83298368EC7CE2CE0101965EDFAB81BC81E985FA85E00FF11F9C91808198130DC00F5F1F4FE2CF809140068D7F8093400660E070E08FE001D21CC05D86798A688A8B859C859F878E8734
S284005B80FC82EB8285E090E09E838D838F81988505979A8389836EE17DE2CE01079612DF68EC7CE2CE0101960DDF6296EFE00C94DFF5FB01460F571FE417F50719F09191890FFACF08954F925F927F928F929F92AF92BF92CF92DF92EF92FF920F931F93CF93DF93CDB7DEB762970FB6F894DEBF0FBECDBF80E094E4909311068093100625
S284005C0086E994E4909313068093120606E914E400501444C80166E070E00E9430F5892B39F080E290EA909344068093430663D326E030E0C801B9010E9430F54091140650911506642B752B709315066093140604EB14E406591444C801B9010E9430F5892B39F081E290EA909344068093430642D3C80166E070E00E9430F580911606F0
S284005C8090911706682B792B70931706609316060091100610911106109218061092190610921A0610921B0687E0EAE2F6E0DF011D928A95E9F7D12CEE24E394F12C80911406909115062D2D30E028173907C8F546E050E0B801CE0101960E948EF62B813C812B5F3F4F8091180690911906A0911A06B0911B06820F931FA11DB11D80932F
S284005D00180690931906A0931A06B0931B068D819E81FC0133E0F695E7953A95E1F7E05FF94F87709927970102C0220F331F8A95E2F7C901928D982B928F0A5F1F4FD394BECF26E0289F6001299FD00C112434E0C30ED11CE12CF12CCE010796988B8F8786E090E09A8B898BA12CB12C00E010E096E0792E22E2822E20EA922EF80183E049
S284005D80F695E7958A95E1F7E05FF94F828D90E098012770332702C0969587952A95E2F780FF41C07A9CC0017B9C900D112404969E878D8768EC7CE2CE010D9621DE8B859C858017910749F48F819885A985BA858C159D05AE05BF0559F01C870B87CF82D886E986FA8668EC7CE2CE010D96EADDC801EBDB2C01009729F490924406809253
S284005E00430679D246E050E0B201CE0101960E948EF68B819C810596C80ED91EE11CF11C8FEFA81AB80A0F5F1F4F0333110509F0A5CFA5DD62960FB6F894DEBF0FBECDBFDF91CF911F910F91FF90EF90DF90CF90BF90AF909F908F907F905F904F90089520E0FC013191CF01311105C02F5F2730C1F780E0089581E0089527E0FB011192DB
S284005E802A95E9F7FC0123E0F695E7952A95E1F7E60FF71F8770992721E030E001C0220F8A95EAF78081822B8083CB01B4CC0895AAE2B6E0FC013D9120812323219326E0A133B207C1F7CCCF0895A7E0B0E0EBE6FFE20C94CFF5BE016F5F7F4FCEDFCE010196E6DFCE010196BBDF182F882339F0CE0101964EDD8091400681FF9FDD812FE7
S284005F002796E3E00C94EBF508950895A2E0B0E0ECE8FFE20C94D0F58091BD048823E9F0BE016F5F7F4F81E290E033D4BE016E5F7F4F8DE190E02DD48981823071F48A8181110BC085E89FE29093C6048093C5048EEB94E00E94BEC102C00E94DDDF2296E2E00C94ECF58091BD0408950C94C4EB0895A0E0B0E0EFEBFFE20C94C8F5B82E20
S284005F807B01082F10E093E0169507959A95E1F78770C1E0D0E001C0CC0F8A95EAF7AC2E8FE38B1538F484E090E89093440680934306A1D1F801E953FB4F80818C2311F1C091CF04D091D00485E0C82E80E8D82E2097C1F0FE01E00FF11F82818A2171F02A853B85232B29F4D0924406C092430682D1EA85FB85B7018B2D19950990D881EA
S284006000C02DE6CFCDB7DEB7EAE00C94E4F5E82FF0E023E0F695E7952A95E1F7E953FB4F208130E0877041E050E002C0440F551F8A95E2F72423352381E0232B09F480E00895282F30E043E0369527954A95E1F7620F731F877021E030E001C0220F8A95EAF7FB019281922381E009F480E008951F93CF93DF93182FEB01803438F023E0D1
S28400608030E8309344062093430635D1BE01812FD8DF81112AC0BE018FEC94E09AD081110BC088E0FE013296DF011D928A95E9F7BE018FEC94E09DD0412F50E063E0569547956A95E1F7177021E030E001C0220F1A95EAF7C40FD51F8A81822B8A83FA01E953FB4F8081822B8083DF91CF911F9108951F93CF93DF93182FEB01803438F07A
S28400610023E030E83093440620934306F4D0BE01812F97DF882369F1212F30E073E0369527957A95E1F7177041E050E0012E01C0440F0A94EAF7942F9095C20FD31F8A8189238A83E091CF04F091D004309759F0DF01A20FB31F12968C91842351F40190F081E02DF3CFF901E953FB4F808189238083DF91CF911F910895DC01ED91FC915B
S2840061801197309721F0208131812D933C93CF01089561157105A1F0DC01ED91FC911197E617F70759F4208131812D933C930FC0808191818617970729F0FC013097C1F780E00895DB018D919C919183808381E00895DC01ED91FC91309739F0E617F70731F00190F081E02DF7CF80E0089581E008950F931F93CF93DF938C01EB01E9DF7C
S284006200882349F080E090E890934406809343065AD080E014C019821882D801ED91FC911197309719F4CD93DC9308C080819181009711F0FC01FACFD183C08381E0DF91CF911F910F910895CF93DF93FC0182819381009781F40E94C4E2C22FD32F0E94DA5244E0FC0121913191CF01C227D3274150C1F7CE010E9483F681E080932302D3
S2840062808BE292E00E9470E2DF91CF9108958DE192E00C944B53089580912302882369F08BE292E00E94A0E284E291E390932A028093290210922302EACF08958BE292E00C94A0E2089582E090E0909346068093450680914306909144069093480680934706E0914106F0914206309719F085E496E01995089583E090E09093460680933A
S284006300450680914306909144069093480680934706E0914106F0914206309719F085E496E019950895EF920F93FC01618372834F3740F081E090E89093440680934306C2DF20C0403808F04FE7440F808181700187842BE0FA80F9808334832383CB01AC016081669504962181328174E0679F200D311D11244217530720F4DC0111977B
S2840063801C92EECF0F91EF900895A0E0B0E0EBECF1E30C94C9F5EC018B01B42E0E94C4E269017A018D819E81AF81B885A7019601281B390B4A0B5B0BCA01B9012B813C8140E050E00E9457F52F3F31054105510518F42223F9F001C02FEF89819A81BC0138813695049649815A81E4E03E9F400D511D11246417750748F4FC013291432F95
S284006400231708F4422F341B3083E9CFCD82DE82EF82F886A981BA814881842F86959D0154E0859F200D311D1124C901E0E0F0E0A817B907C0F413965C911397552359F02D913C9111972017310729F412962C9112972B15C1F0309719F02381521708F4FD011496E5CF40FD06C0309771F0838181110BC002C0309751F011830083B28254
S2840064808985838304C080E003C082E001C081E0CDB7DEB7E9E00C94E5F5FECE08950895CF93DF93609138027091390280E090E0E1E0F0E09F01082E02C0220F331F0A94E2F74091D1045091D2044623572342235323452B11F16FB7F8944091D1045091D20420953095242335233093D2042093D1046FBFFC01EE0FFF1FE954FD4FC081A2
S284006500D181209739F486E090E89093440680934306F1DEFE01199504C001968E30910549F6DF91CF9108950E9468E00E941CB2882371F02FB7F8948091D1049091D20480619093D2048093D1042FBF81E0089582E00895A5DF60E070E08BE20ADD8091D1049091D204892B09F4D0DC2091D1043091D20481E0232B09F480E0089590CF39
S2840065800895FC012081211105C021E02193CF010C9470E20895FC012081213021F41192CF010C94A0E20895A5E0B0E0EAEDF2E30C94CCF57C012A833B834C835D836983EADFF7011082698163872A813B814C815D812783308741875287158704872596E6E00C94E8F50895813041F028F0823039F0833039F008952C9808952D98089567
S2840066002E98089573980895813041F028F0823039F0833039F008952C9A08952D9A08952E9A0895739A0895249A259A269A6B9A2C9A81E0E9DF82E0E7DF83E0E5DF80E0089588E3E3ECF2E1DF011D928A95E9F7E4EEF2E181E080839AE0918312821382148285831682178285E08093EE1247E850E069EF7AE48EE393E10E948EF647E17F
S28400668050E062EE7AE48CEA92E10E948EF643E050E06FED7AE489EA92E10E948EF643E450E06CE97AE48BEF92E10E948EF680E69CE0E9E4F6E0DF019C011D9221503040E1F70895A4E0B0E0E8E6F3E30C94D0F5BC011A8219821C821B828827811521E0920769F0811522E09207B9F0892BE9F4660F771F660F771F6A59764B07C077277D
S284006700660F771F660F771F6655774B44E050E0CE0101960E948EF60FC07727660F771F660F771F665E774BF1CF8AE090E69093440680934306DFDD69817A818B819C812496E2E00C94ECF57CDF3DCA0895A4E0B0E0EDEAF3E30C94CCF57C018B01B2DFEE24E11422E0F20669F026E030E6309344062093430669837A838B839C83BBDD80
S2840067807A816981F801718360832496E6E00C94E8F5A4E0B0E0EFECF3E30C94CCF58C017B0190DFE114F10479F420E030E6309344062093430669837A838B839C839BDD9C818B817A81698100270115110549F0011521E0120751F4AC01C7010E948EF60CC0AC01C7010E94A4F607C081E090E690934406809343067EDD2496E6E00C9437
S284006800E8F5A0E0B0E0E7E0F4E30C94CAF58C01EB0158DF6B017C01209739F484E090E6909344068093430666DD00270115110539F085E090E690934406809343065BDDA701BE01C6010E94A4F6CDB7DEB7E8E00C94E6F5FC0193A5892F887090FF09C0882379F081E027A130A52236310550F408C0882331F081E027A130A52436310565
S28400688008F480E08170089521E030E001C0220F8A95EAF78091D604822B8093D6042FB7F8948091D1049091D20480629093D2048093D1042FBF0895CF93DF93E091CA13F091CB138E179F0718F482E894E446C08E1B9F0B6CE670E00E9430F58091C513681718F083E894E439C08CE6689FE00DF11D11248781869590E08230910559F0EF
S28400690014F00397D1F58091C9138823B1F181508093C91332C08091C813882319F081508093C813DF01AC5ABF4FCD91DC912091CD133091CE13CE01821B930B63E270E00E9430F5C217D30718F484E894E406C08091C613681740F085E894E49093440680934306B0DC0CC0D90183E2689FA00DB11D11248C9181111C9287818E7F878391
S284006980DF91CF910895CF93DF93EC011EA28CA19DA1892B39F484E494E49093440680934306A9DCECA1FDA1CE0186961995DF91CF910895EF92FF920F931F93CF93DF93A091C5134091CA135091CB1320E030E090E09A1709F45AC0FA01E20FF31FB90164597F4FB781B0FD63C07F0194E5E90EF11CD7011D921C928230B1F010F083307E
S284006A00F1F59091C9134091C713941708F03EC09F5F9093C913138214821582168290859F709087128235C01091C8139091C613191760F50091CC134091CD135091CE1390E09017B9F0EA014D5D5F4FBA0163527109DB016C9161110BC01F5F1093C81341E048836896D701CD93DC93428302C09F5FE7CF4091CC1349130BC007C081E817
S284006A8094E4909344068093430635DC80E090E012C09085907F9087880F81608783118210828091CA139091CB13820F931F03C09F5F9B018ECFCDB7DEB7E6E00C94E8F52091E70421502093E704BC0181E095E090DB81E0D9CE0F931F93CF93DF938C01C091D704D091D8048091D3049091D40480519140813F954048F4B80187ED94E0B1
S284006B0078DBCD2B59F480E0BFDE08C083E694E49093440680934306EEDBEFCFDF91CF911F910F910895BC016F50710983E095E060DB81E0A9CEBC016351710985E095E058DB81E0A1CE2091E7042F5F2093E7040C94B3926F927F929F92AF92BF92CF92DF92EF92FF920F931F93CF93DF931F92CDB7DEB78C017B01FB01E25AFF4F80E6CF
S284006B8095E3918380833E9782E08083D80157968D919C9158973196918380839C968C919C97379680833196108231969B968C919B978095881F8827881F8083319681E08083319680839B968C919B9786FD0BC021E057968D919C915897883F9F4F08F020E0822F01C081E0F701E35AFF4F81708083C8012FDEF701ED5AFF4F6F01970195
S284006C002C5A3F4F3901882309F442C09090771440917814242F30E080917B1490E001972817390739F4D80197968C91499D80191124982EA92CB12CC5014E968236910538F081E594E4909344068093430653DB309177142091781480918D1490918E14F80161A572A5329F600D711D1124A5014E960E94A4F68AE0890DD6018C93809132
S284006C808D1490918E144496F301918380830EC0D80197968C919797885F808399968D919C919A970897D9018D939C93F301C080D180D6012C912C7F2F7E2C93F8018789908D237F883F9F4F10F02860D6012C93F60180818F7D8083D8019B969C9192FD03C08F7B808322C08064F6018083D70118962C911897207F216018962C93C8015A
S284006D002983A8DD29812F70882341F080917D148295807F822BF701808708C08091AA128295807F822BD70118968C93C80192DDF60190818823A1F0906890839091781480858C7F911106C08160808780917B14818709C08260808780917814818703C09F77F6019083D80191968C919197F601818394968D919C919597938382839296BD
S284006D808D919C9193979583848396968C918683C80160DD882331F080917C14D60117968C9308C08091FE0491E0980F9093FE04F6018783C7010996C6DE80E00F90DF91CF911F910F91FF90EF90DF90CF90BF90AF909F907F906F900895E0918B14F0918C14BF0180819181B5CEEAE6F4E1F0933B14E0933A1492E0909336142091DD13CC
S284006E003091DE1330933814209337149BE09093391410923E1410923F1491E09093401490934114109242142EE539E3309345142093441490934314908190789260906890839091E41390936B142091E0133091E11330936D1420936C142091E2133091E31330936F1420936E149091DF13909370149091E5139093711492E09093721444
S284006E809091DB13909373149091DC139093741490917514909353141092D6131092D7131092D8131092D9138093CF138FEE93E14ACEA4E0B0E0EFE5F7E30C94CEF5182FBE016F5F7F4F8AE190E063DC2091EC043091ED044091EE045091EF04A12FB0E00E94B0F509811A812B813C81600F711F821F931F2496E4E00C94EAF50F931F9312
S284006F00CF93DF93EC018C0107551109FC013C970190F081E02D6FEF818192810E94D689882361F0FE01329780E695E39183808323971882C8010E94A39202C0CE01C0DDDF91CF911F910F9108956CEC73E180E191E01FDC6DEC73E18EE092E0F8DB8091CD139091CE1320E03091CC13231748F4FC0133E2239FE00DF11D112410822F5F57
S284006F80F3CF65EC73E18FE091E003DC6AEC73E18DE092E0DCDB2091C513E091CA13F091CB1380E0821739F097819E7F97838F5FE459FF4FF7CF9091CC139093C613823008F081508093C7131092C8131092C91367E774E188E291E0DCDB65ED73E189E291E0D7DB64ED73E188E191E0D2DB8091D413882351F060ED73E18FE092E0A7DB64
S2840070006DE874E180E192E0A2DB3091D4132091D5138091D0139091D113329F800D911D11249093D3138093D2131092CF13089568E075E082E192E08ADB67E075E087E191E0A7DB80910705E0910805F0910905882349F0309739F489E294E4909344068093430630C99F0146E1849F200D311D1124C90128EAE817F90718F4258B7696C2
S284007080FACF08951F93CF93DF93EC01162F0097B1F08D819E81892B91F087ED94E06DD81F83ED81FE81CE01079619958091D7049091D804892B59F080E0E6DB08C08BE694E4909344068093430615D9E6CFDF91CF911F910895A1E1B0E0E1E7F8E30C94C0F58C01262E29873A874B875C870E946CDEE091F00429853A854B855C85EE232B
S28400710061F13090C513C090F304D090F404E090F504F090F6042B013C014C185D086E087F084D825E826F827886E091CA13F091CB13198A66246A94762C430169827A828B829C8246015701861A970AA80AB90A8D869E86AF86B88A0BC00FEA19E3A3C0A781A0FD09C0A989AF5FA98BE459FF4FB989B311F5CF40C0B085BF70B23099F7AE
S284007180AA7FA23081F783809480A580B68081149104A104B10439F3E017F10721F34D805E806F807884481459046A047B0468F44D845E846F847888840C951CA61CB71C83829482A582B68204C0138214821582168283809480A580B68049805A806B807C8084149504A604B70408F0BCCF89829A82AB82BC82B7CF211046C08090D613E9
S2840072009090D713A090D813B090D91381149104A104B104C9F12B013C014C185D086E087F08481459046A047B0488F4C80CD91CEA1CFB1CC61AD70AE80AF90AC092D613D092D713E092D813F092D91308C01092D6131092D7131092D8131092D9138091D6139091D713A091D813B091D91349805A806B807C8084159505A605B70520F4BB
S28400728089839A83AB83BC8389819A81AB81BC81281739074A075B0710F4DA01C9010FEA19E39C01AD0161E080EF94E07DD980EF94E067D96196E2E10C94DCF58091E70481508093E7048091CF13833009F43CC0823039F082E594E490934406809343060AD8E0917614EE2379F181E08093CF13A091AB12B0E011972AE030E00E94AAF566
S2840073009B01AC018091E8049091E904A091EA04B091EB04280F391F4A1F5B1FA091AA12B0E00E94B0F59B01AC016093D6137093D7138093D8139093D913E150E093761461E080E090E0C7CE1092CF131092D6131092D7131092D8131092D9130895A4E0B0E0E5EBF9E30C94C8F52FEF3FEFA90110E0AA24AA94B12C8091C513181708F0ED
S28400738054C0E091CA13F091CB138CE6189FE00DF11D1124678160FF46C07085872F8F70823009F040C0862F8A7F8230E1F583819481A581B681C090F704D090F804E090F904F090FA048C199D09AE09BF0983839483A583B6830097A105B105E9F4872F807F846080876E7F663059F4C5010090AB1202C0880F991F0A94E2F78095809333
S2840074007A1481E029833A834B835C833DDA29813A814B815C8107C082179307A407B50710F49C01AD011F5FA7CF8091D6139091D713A091D813B091D9130097A105B10551F1C090F704D090F804E090F904F090FA048C199D09AE09BF098093D6139093D713A093D813B093D9130097A105B10559F482E029833A834B835C83B6DC298110
S2840074803A814B815C8107C082179307A407B50710F49C01AD012F3FEFEF3E074E075E0751F00FEA19E361E080EF94E07DD880EF94E067D803C080EF94E06DD82496EAE00C94E4F5A0E0B0E0E8E6FAE30C94C7F58C01962EC0910805D0910905809107056E0196E1899FC00CD11C1124F8018589811109C07E01F6E1EF0EF11C58018CE09A
S284007500A80EB11C09C085E294E432C08A3A89F06696F6E1EF0EF11CF801CC15DD0508F04AC0908521853285F70131978081843A69F7F7013E9780819813EACF89859A852817390729F748E050E0B801CE010E9497F6892BE9F6F8018385F7013B9790818913D6CF813059F0833091F086E294E490934406809343060E9463311DC0F80120
S284007580248535858C859D852817390709F617C0F8019489F701329780819813B9CF48E050E0BE01645F7F4FC5010E9497F6892B09F0AECF04C0958A80E090E001C0CE01CDB7DEB7EBE00C94E3F5CF93DF93EC010097B1F18AEA8D8B0E94DA5248E050E0BC01CE010E9497F6892B51F582E88D8B888581508E3F20F58B858330C9F48C89F2
S28400760081508E3FE8F42C853D854E855F85688979898A899B89A0E00E942BF671F480E194E490934406809343060E94633108C0813019F086EA8D8B03C01D8A81E001C080E0DF91CF910895CF93DF93EC01009761F16FA74115510551F0FA01408151816281738148AB59AB6AAB7BAB04C018AA19AA1AAA1BAAEDA5FEA5309749F484E59C
S28400768094E490934406809343060E9463310DC0CE018F961995CE01DDD8882331F010928C1410928B1481E0EFD8DF91CF910895A1E0B0E0EEE5FBE30C94CEF58C01FC01208131818091CD139091CE132817390740F487E494E490934406809343060E947B31F801808191812091CD133091CE13821B930B63E270E00E9430F58091C613D5
S284007700681750F088E494E4909344068093430669830E947B3169818091CD139091CE13F3E26F9F800D911D11242196E4E00C94EAF5A3E0B0E0EFE9FBE30C94CEF58C01675F7F4F7A836983BE016D5F7F4F8DE090E01FD88B81D80197965C9197974091FE04882309F442C089819A81FC01E95BFF4F21E0208357962D913C9158973196A1
S284007780318320833296585F50839996ED91FC919A979C01255B3F4F3897D901ED93FC938FEF8183D80194968D919C9195979383828392968D919C9193979583848396968C91868381E0840F8093FE044783D901ED91FC918081807888608F778083E981FA81EB5AFF4F80E695E344C089819A81FC01E95BFF4F22E0208331962DEF3FEF82
S284007800318320833296575F5083D8019996ED91FC919A979C01255B3F4F3997D901ED93FC93D80157968D919C9158979283818394968D919C9195979483838392968D919C9193979683858396968C91878381E0840F8093FE044087D901ED91FC91808180788C608F778083E981FA81EB5AFF4F8EE797E391838083E981FA81D8019C96BA
S2840078808C919C97E15BFF4F8083E981FA81E05BFF4F8091A9128083E981FA81EF5AFF4F9B968C918095881F8827881F8083E981FA81EE5AFF4F81E08083E981FA81ED5AFF4F8083E981FA81EC5AFF4F808389819A8139D980E02396E4E00C94EAF5DC01ED91FC9190938C1480938B1410927814109279148091AA1280937D1420917714B8
S28400790030E087A190A5B9010E9430F5462F60937B1487A190A5B9010E9430F5892B19F04F5F40937B148FEF90E00090AB1202C0880F991F0A94E2F780958E7F80937A148091FE0491E0980F9093FE0480937C140895A0E0B0E0EFEAFCE30C94C7F5EC016B01942E5901009108051091090580910705780196E1899FE00CF11C112420975C
S28400798061F0C017D107F0F583E294E490934406809343060E947B3135C0E801CE01801B910B66E170E00E9430F5892B79F084E294E490934406809343060E947B3106C01D89143A39F01A3A29F06696CE15DF05B8F313C088859812F8CF89859A85C816D90699F748E050E0B501CE010E9497F6892B59F7143A49F703C080E090E004C0D7
S284007A00CE0102C06696CACFCDB7DEB7EBE00C94E3F54F925F927F928F929F92AF92BF92CF92DF92EF92FF920F931F93CF93DF931F92CDB7DEB72C017B010E94DA526C0157018AE6A80EB11CF501008111814114510431F0E114F10419F0C114D10451F484E194E490934406809343060E94633188EA5EC058EAF20164A175A1960146A1C3
S284007A80C801598366DF8C015981009709F44FC0F20184899589892B19F5F8017384F3E07F121EC048018CE0880E911CC4010E945AC1892BA9F4F2017086D2011B9688E0F40101900D928A95E1F789EA9DE3F201958B848BC20106960E9454C180E028C0F50111830083F80183858330B1F4C8010C960E945AC1009711F459EABCCFF8015B
S284007B002489F20121A3FC0180819181F201908F878BB701C2011ED80BC0F80184859585F201908F878BB701C20103DE01C0852F0F90DF91CF911F910F91FF90EF90DF90CF90BF90AF909F908F907F905F904F900895FF920F931F93CF93DF938C01035111092091C513C091CA13D091CB13F12CF216E9F08F8180FF16C088819981801763
S284007B80910789F4BE01C80144DF882381F040E050E0682FC80158DDCE010E945C3481E00E94443404C0F394C459DF4FE1CF8091C513F81640F085E194E490934406809343060E947B31CDB7DEB7E5E00C94E9F5EF92FF921F93CF93DF931F921F92CDB7DEB77B010097A1F06115710589F0FC01158A148AF701E659FF4F11821082B701CD
S284007C0008DF182F882389F0C7010E945C340DC023E134E4309344062093430689839A830E947B3189819A81E2CF812F0F900F90DF91CF911F91FF90EF900895A1E0B0E0E4E2FEE30C94CCF58C01262FDC01ED90FC90009709F444C0E114F10409F440C02E3C61F0822F8F7D803D41F0213D11F082E005C0F70183A587FFFACF83E0F80144
S284007C80EB59FF4F4081518162817381D701D0964D935D936D937C93D3979F962C93833071F0D801ED91FC918689811108C0F701158A148AB801C701ACDE883AE1F4A701405D5F4FD7019F966C91F80180819181BBDCC8010E945C3481E00E9444340BC08FE494E4909344068093430629830E947B312981B5CF2196E6E00C94E8F5CF93B7
S284007D00DF93EC0162DC882309F454C060E0CE01D9DB892BC1F5209709F43EC08D8981113BC050910705209108053091090540E0451781F0C9012A5E3F4FF90131976081683A31F424EAFC01258B009731F432C04F5FEECF8EEA8D8B2DC0209719F03D89332349F087E294E490934406809343060E9463311AC036E1FE01DC0101900D922F
S284007D803A95E1F706C066EACE019CDB009791F024EAFC01258B09C080E294E490934406809343060E947B31BCCF60E070E080E10E94B92FDF91CF910895CF93DF93EC010097D9F08091080590910905C817D907A0F02091070536E1239F800D911D1124C817D90750F48D89843A11F08A3A71F488EA8D8BDF91CF91089581E294E49093C2
S284007E004406809343060E947B31EDCF82E294E490934406809343060E947B31E9CFCF93DF93EC01D2DB882359F064EACE014ADB009731F0C2DF60E070E080E10E94B92FDF91CF9108952091080530910905009751F0FC0176968091070596E1899F200D311D112408C0F901F6CF8589843A49F08A3A39F07696E217F307B8F380E090E0F0
S284007E800895CF010895CF93DF93EC01BC0185E095E00E94F9301D8A1C8A81E00E944434DF91CF910895CF93DF93EC01BC0183E095E00E94F930198A188A81E00E944434DF91CF910895AAE0B0E0E9E6FFE30C94C6F51091EE12BE01665F7F4F87E091E00E94C933BE016F5F7F4F8AE190E00E94C933C980DA80EB80FC80812F90E0A0E040
S284007F00B0E08C159D05AE05BF0578F0CC0CDD1CEE1CFF1CC982DA82EB82FC82BE016F5F7F4F8AE190E00E940134C12ED12C87E0C80ED11CEE24D7FCE094FE2CC092EC04D092ED04E092EE04F092EF042A8530E0A3E0B0E00E949BF59B01AC01C701B6010E9415F509811A812B813C81600F711F821F931F6093E8047093E9048093EA0486
S284007F809093EB0481E08887BE01675F7F4F87E091E00E94C933BE01685F7F4F84E290E00E94C933898590E0A0E0B0E0880F991FAA1FBB1F8F3F9105A105B10529F020F08FEF90E0A0E0B0E00E945937E885EE2309F45AC0812C912C54018B019C0101501E4F2F4F3F4F800E911EA21EB31E660F771F881F991FE15081F71886750164012F
S28400800029E0F694E794D794C7942A95D1F7D501C4019170AA27BB2741E050E060E070E0892B8A2B8B2B19F440E050E0BA01C40ED51EE61EF71E1E821D821F82BE01695F7F4F81E191E00E94C933BE016B5F7F4F88E092E00E94A733970186010F3F11052105310529F020F00FEF10E020E030E06D817E81C12CEE24E39420E032E04F81BD
S28400808089ED94E00E9493312A96ECE00C94E2F5882331F00E9480F68093FE041092E704109206051092050510920405109203051092020510920105109200051092FF048AE090E0A0E0B0E08093841490938514A0938614B09387148DEE96E390938A148093891481E0809388141092DC131092E5131092DA131092E1131092E01310925F
S284008100DB131092DF131092E3131092E2131092DE131092DD131092E4131092CF131092D6131092D7131092D8131092D9138CE6E6EEF3E1DF011D928A95E9F783E2E2E5F4E1DF011D928A95E9F78091D51390E001962091D413289FA001299F500D112460E070E08091D0139091D1130E94BEF68AE694E190933B1480933A14A4CE4F925A
S2840081805F927F928F929F92AF92BF92CF92DF92EF92FF920F931F93CF93DF931F92CDB7DEB77C01009781F02C0127E0421A51088091D7049091D8048415950529F4D20112968C91893149F086E694E490934406809343060E946331CBC08091D3049091D4048115B7E09B0709F07FC000910505109106050115110551F085E095E00E9406
S284008200BD3040E050E063EAC8011EDAEFCF6CE6C62ED12C7CE6772EE2E4AE2EE4E4BE2EF3E48F2EF4E49F2E00910105109102050115110509F444C0B80181E095E00E94C9308091CA139091CB13F801E81BF90BCF01B6010E9430F58091C513681740F0B0924406A092430669830E947B316981E091CA13F091CB13679DE00DF11D1124A2
S284008280808191812781269530E02130310561F02230310549F2232B61F4A8014B5F5F4FD80112966C9103C040E050E067EACCD9BBCF90924406809243060E947B31B4CF10E08091C5131817D8F48091CA139091CB13BCE61B9F800D911D1124FC01278120FD0E945C341F5FECCF8115924041F087E694E490934406809343060E947B31BC
S2840083001092D6041092D50481E0C2DE0E94A5370E94183882E393E09093D4048093D304D7018C91F201828787ED94E00E94BD30D20118968D919C911997892B41F489E694E490934406809343060E947B31D2011896ED91FC911997C701039619958091D7049091D804892B19F080E00E9444340F90DF91CF911F910F91FF90EF90DF9061
S284008380CF90BF90AF909F908F907F905F904F900895CF93DF93C091D704D091D804209741F484E694E490934406809343060E947B318A818A38F9F0853C09F44FC0893109F06CC08091D3049091D4048031914019F480E092E002C080E097E09093D4048093D3048FEB90E49E838D83CE0103960E9472A95BC08091D3049091D40482338A
S28400840023E0920719F08031964049F48FE394E09093D4048093D30456DD1D8202C083EA8D8387ED94E00E94BD308B819C81892B41F48AE694E490934406809343060E947B31EB81FC81CE01059619958091D7049091D804892B51F180E018C08091D3049091D4048F339440A1F480E095E09093D4048093D30482E090E09C838B8380EFDE
S28400848094E00E94CB321092E70481E00E9444340DC063EACE010E94423808C085E694E490934406809343060E947B31DF91CF910895AAE0B0E0EFE5F2E40C94D0F5DC011396ED91FC9114972181328140E450E05A834983AE01495F5F4F5C834B8341E050E05E834D836F3FBFEF7B0719F437FF15C003C02617370789F098878F837A87DE
S2840085006987BE016F5F7F4F8EE10E94B92F81E02D813E81232B19F080E001C081E02A96E2E00C94ECF5009729F48091E5049091E6040895FC01808191810895CF93C82FE0E0F0E0CF01EFDFFC01009739F0A381B4818C91C813F6CFCF0102C080E090E0CF910895CF93DF93EC010097D9F086EA8F83EB81FC813097A9F080819FEF980F2A
S284008580903F80F4DBDF892B69F421E08D819E81892B09F020E02A83BE0185EE94E00E94F9301F82DF91CF910895DF92EF92FF920F931F93CF93DF938C01009741F480E394E490934406809343060E947B31C0E0D0E0A1E3EA2EA4E4FA2ECE01A4DFEC01009789F18A818111F8CF8B819C81892B31F4F0924406E09243060E947B31F8014B
S28400860060A171A1CE0155DF882339F3EB81FC81D0806D2DF801878190850E94D6898823E1F2F801D18AED81FE81309749F482E394E490934406809343060E94633103C0C8011995CACFCDB7DEB7E7E00C94E7F5A1E3B0E0EEE2F3E40C94C6F58C01B62EDC015A96ED90FC905B9755966D917C915697F701478189ED94E00E94C531882331
S28400868009F414C1D70111968C919FEF980F9E3F28F454DF6C01009719F408C1C12CD12CF801228983899489213009F022E02F8399878887D70111968C918A8BF801858996890E945DC1FC01009799F083E08B8B708161815281438134812581968187817E8B6F8B588F498F3A8F2B8F9C8F8D8F02C082E08B8BD80155968D919C91569715
S2840087009D8B8C8B57968D919C9158979F8F8E8FF701868188A3848195819AA389A3828193819CA38BA359968C9190E09C012A5031093EA32DA319A6208127FD04C09C012850310906C02085237029F49C01295031093EA32DA32DA13EA1821B930BF801228D338D280F391F38A72FA3BAA682A18BA7848D8CA7468D578D60A171A14DA799
S2840087805EA76FA778AB858D89ABD7018C9187FF48C018968C918370823009F042C0E091D213F091D313808190E09EA38DA38080912CAA24A394B12C2091DA1330E08091D0139091D113A216B3064CF5E091D213F091D313EA0DFB1D408150E02091D5132A9DB0012B9D700D1124680F791F880D991D0E94A4F6E091D213F091D313EA0DD9
S284008800FB1D20818DA19EA1820F911D9EA38DA3BFEFAB1ABB0A8081880E911CCDCF98A78FA3C114D10449F0D6011596ED91FC911697CE010196199539C0F8018289813021F4CE010196B1DE31C0D70111968C918F3F41F5E12CF12CC70165DE7C01009729F1D7011396ED91FC9114978081882399F312968C918111EFCF69A17AA1C70146
S28400888018DE882349F3D7011396ED91FC91149780818A8B1596ED91FC911697CE0101961995DACFCE0101960E94BEC8C8010E94C334E196ECE00C94E2F5A1E0B0E0E3E6F4E40C94C8F55C01DC015A960D911C915B97F80181812FEF280F2E3F80F429832DDE7C012981009751F0D80114966D917C911597DEDD882309F405C105C02E3F8D
S28400890008F401C1E12CF12CF801808187FF04C09085937009F0F7C086FFF7C08C70883009F4F1C0D50155968D919C915697883FBFEF9B0708F0E7C0E114F10421F0F70122812111E0C0D5015A960D911C915B97F801208126FD02C090E0D2C02370213009F027E0F090C513E091CA13F091CB1330E0422F50E0B801640F751F3F15E9F03E
S284008980A781A530B1F4DF01AF5ABF4F0D90BC91A02D8A179B0769F4DF01AC5ABF4FCD90DC90C40ED51EDB01EC90D601DC90ED1499F23F5FE459FF4FE1CF82E029830E94DA342981009741F2FC01EC5AFF4F0190F081E02DDF0158973FEA11963C9311971396BC92AE92129762E0DC01A05BBF4F6C93D50155964D915C915697DC01AF5AB2
S284008A00BF4F11965C934E9317961C9211961C9231E011963C9311963C9311961C9240E655E3129611965C934E9311973C9330813C7F32603083D8014C914C70337F342B30834C914295417040FB34F93E7D3F7B30834C9147FB442740F940FB37F930834C9130E0DC01AD5ABF4F7D0144FF0DC0D5015A964D915C915B97420F531FDA012B
S284008A802C912183F701608337C048E04C93D80116964C911697418312964D915C9113975383428314964D915C9115975583448311964C914683D5015A964D915C915B97420F531FDA012C912783D8012C9127FF13C018962C91237031F41086F70120812F5F208309C0D7012C912D5F2C93D80118962C912370208709960E94A33591E054
S284008B0081E08927A1C190E001C091E0F801808187FF92C18085837009F48EC1D5015A960D911C915B9759968C91F801F1842091D413222309F487C196EFE92EE80E8091CF13813009F456C030F0843008F06BC180E494E46AC1D084B1E0DB1274C12F1508F471C18091D5138E1508F46CC190E00196289FA001299F500D112460E070E046
S284008B808091D0139091D1130E94BEF68FEA80937514D092CF13F092DA13F501858996899093DE138093DD13D80111968C9111978093DF1312968D919C9113979093E1138093E01314968D919C9115979093E3138093E21316968C9116978093E41317968C918093E5138091AA12809376141092DB13F12CF8018085982F9370923011F062
S284008C00F11021C18C7F09F01EC18091DA138F1508F419C12091DD133091DE13D50155968D919C9156972817390709F00CC19091DF13F8018181981306C12091E0133091E113828193812817390709F0FCC02091E2133091E313848195812817390709F0F2C09091E41386819813EDC09091E51387819813E8C02091DB134091AB120F2D06
S284008C8010E0822F90E0840F911D081719070CF0DAC08F2D642F0E9424F5D92EF21668F48F2D891B8093DB1321E030E001C0220F4A95EAF721952093DC132091D5138091D0139091D1134E2D50E0D5015A966D917C915B97665F7F4FF29E800D911D11240E94A4F6E091D213F091D313E00FF11FE0827091DB132091DA137F1111C090915B
S284008D00AB12822F8F19981708F4892F41E050E0082E01C0440F0A94EAF741954093DC1341E050E00D2C01C0440F0A94EAF76091DC13642B6093DC136F3F79F4FF24FA94F70E822F90E04091AB1250E0871B9109481759070CF4CA01F80E8F2D90E030E0215031098217930751F46F3F21F483E00E94F53663C082E00E94F53664C0A091E0
S284008D80AB12B0E011979D01270F311D8217930711F06F3F09F582E00E94F5368091DC138F3F09F050C08091AB129091DB13980F9093DB132091DA1321502F19821708F4282F81E090E0022E01C0880F0A94EAF781958093DC1337C02AE030E00E94AAF59B01AC018091E8049091E904A091EA04B091EB04280F391F4A1F5B1FA091AA1255
S284008E00B0E00E94B0F59B01AC016093D6137093D7138093D8139093D91361E080E090E00E946B3810C083E594E490934406809343060E947B3107C0992329F06FEAC50107DC80E001C081E02196EAE00C94E4F5A7E3B0E0EEE2F7E40C94C0F5A090D304B090D40420E1A21621E0B20609F469C12DE4222E24E4322E88248394912C81E044
S284008E8095E00E94BD307C01009709F45AC10091CA131091CB13C701801B910B6CE670E00E9430F58091C513681748F089E494E490934406809343060E94633142C13CE6639F000D111D1124D80117968C91B0E1AB16B6E0BB0621F0A114E5E0BE0699F58E7F843019F5C8018C5A9F4F0E94583B6C01DC0111966C91119712968D919C917A
S284008F001397892B51F4EAE4F4E4F0934406E09343066CAB0E947B316CA9D70112968C91811104C0F6018281938192DBA7014B5F5F4F63EAD8018D919C910E94243BC7010E945C349CCF8695482E512CB1E04B165104B1F054F4452809F0EAC0D70112966C91C8010E941E3E8ACFF2E04F16510409F4BBC023E04216510409F47BC0D8C0EC
S284008F80F80180858F70813009F079CF60807180D70119968C910E9459379B01AC01C090AA12D12CF801808582958F70C81AD108D70112966C9161111EC02FAB3CAB4DAB5EAB0E9480F6FC01F170D20102C0AA0FBB1FCA94E2F72FA93CA94DA95EA90E94BAF56E0F7F1F811D911DF80163837483858396832DC06E3C59F0603F49F0603D93
S28400900039F0613D91F4D3019B968C9187FF0DC0A7014B5F5F4FC3010E94243BC7010E945C3481E00E9444348CC00E9480F69170E8EEF3E002C0EE0FFF1FCA94E2F78E0F9F1FA0E0B0E0F80183839483A583B683D80118968C911897807F826018968C93189713962D913D914D915C91169760E0C80102C2F80180858F70813009F0FFCE4E
S2840090802091781430E080917B1490E001972817390709F4B5C1E091AB1270917A14272F30E080E090E0682F8E1708F0A9C10196A901062E02C0559547950A94E2F740FFF2CFC401062E01C0880F0A94EAF78095872380937A1480917914860F809378148EE794E10E9470E2CACEC8018C5A9F4F0E94583B8C01DC0111966C9111971296D7
S2840091008D919C911397892B41F430924406209243066CAB0E947B316CA9F8018281938197DAC7010E945C3481E00E944434A7CE2EE434E430934406209343060E947B319ECE1BAA1AAAA3E94A2EA5E35A2EBFEA2B2E13E0312EAA24A394B12C66246A94712C95E4892E94E4992E83E095E00E94BD308C01C090D304D090D404009761F190
S284009180D80150968D919C915197892B09F077C15A96ED91FC915B9780818370813009F06EC18281853009F46AC155968D919C9156970E945DC1892B09F061C122E0F80124838589968996838583518A408AC80102960E9454C1C9CFC1FE11C050E5C52E54E4D52E62E0462E72E1A72E74E4B72EE8E05E2EFBE98F2EF5E39F2E3BC00091CE
S2840092000505109106050115110509F458C0B80185E095E00E94C93040E050E063EAC8010E94243BECCF8689833081F57801F9E1EF0EF11CC7010E945AC1892B39F5D8011B96F701852D01900D928A95E1F7D80156968C91569718968C93189755969C928E925497C80106960E9454C185E095E00E94BD30009105051091060501151105E4
S284009280F1F0F80184899589892B69F280918B1490918C14892B09F4BCC2C8010E942A34882309F4B6C2C8010E942A34882309F4B0C2F8010081118101151105A1F78091D3049091D4048115B5E09B0721F08031F6E09F0769F5F12C0EC02CE6F29E80011124E091CA13F091CB13E00FF11F8781833031F0F3948091C513F81670F320C043
S28400930080858F70843011F08230A1F740E050E063EA808191810E94243B8091CA139091CB13800F911F805A9F4F0E945C34E2CF8F33944029F4F12C8091C513F81648F08091D3049091D4048115954009F07EC351C00091CA131091CB138CE6F89E000D111D1124D80117968C91179780FF40C018969C911897292F2F702430C9F5282FA8
S2840093802A7F2230A9F5907F79F19160905118969C938E7F823071F4C80109960E94A335F801238134814581568160E0C8010E946B381EC08630E1F480917A148E7F80937A14809179148093781480917D14815080937D14E0918B14F0918C14BF01808191810E94AA3504C067EAC8010E941E3EF394A2CF8091E704882309F4A8C226C30A
S284009400F70181850E9459379B01AC01A091AA12F801808582958F70A81BC40102C0880F991FAA95E2F7DC010E94BAF56B017C0100918B1410918C140E9480F69170C80ED91EE11CF11CD8011396CD92DD92ED92FC921697E0918B14F0918C148085807F8260808780918B1490918C14FC01238134814581568160E00E946B3800CDD8018D
S2840094805A96ED90FC905B97BFE3CB16B4E0DB0669F0D7018C918370813041F0F80183A1811104C0C8010E94C334A4C1D7014C91642F607446FF11C05091C8132091C51330E08091C91390E0850F911D821793074CF78091C613581728F7242F2C70243009F3662331F0842F83708230D9F243FDD9CF45FDD7CFF801D288F1E0DF1671F0BD
S28400950032E0D312CFCF4370842F90E0009721F0029709F47AC0C6CF2C3031F0C801CDD9882309F467C1BECFD80155966D917C915697F701408589ED94E00E94C531882309F4B0CFD80159968C91893008F4AACFB1E0BF83F7018181928199878887D80155968D919C9156970E945DC1FC01009791F03B8A70816181528143813481258186
S284009580968187817E8B6F8B588F498F3A8F2B8F9C8F8D8F01C0DB8AF801858996899D8B8C8B8789908D9F8F8E8FD70117968C91179788A315968D919C9116979AA389A313968D919C9114979CA38BA3818D90E009979EA38DA3828D938D099698A78FA319A62AA682A18BA7848D8CA7868D978DA0A1B1A18DA79EA7AFA7B8AB858D89ABED
S284009600CE0101960E94D5424DCF423031F090924406809243060E947B31C090CA13D090CB138091C513F6012CE6829FE00DF11D1124CF01C816D90608F034CFD60117966C91179760FFD2C018962C9118972F70223009F0CBC0F601EC5AFF4F0190F081E02D2D913C91D80155964D915C915697D90157962D913C9158974217530709F08F
S284009680B5C0D70117963C91179727813213AEC014964D915C911597248135814217530709F0A4C012964D915C911397228133814217530709F09AC011963C9111972681321394C016963C91218132138FC06E7F623031F4F6018085807F836080873FC0663009F083C0D70119969C911997809179149813D7CE6091AB12262F30E0C501FF
S284009700062E01C0880F0A94EAF781951A969C911A97982B1A969C931A97F6018085807F836080871A96EC91EF3F99F540917B1450E070917914E70FCA01871B9109281739070CF4C9018E0F8093781490E0415051098417950741F4C6010E946F3C60E0C6010E941E3E9ECE760F709379148091AA1280937D1470937814930102C0220F8C
S284009780331F6A95E2F7B90160956E7F60937A1423C0E095E0937A1480E090E02E2F30E0782F8617C8F40196A901072E02C0559547950A94E2F740FFF3CFC501072E01C0880F0A94EAF780958E2380937A1480917914870F80937814E0918B14F0918C14BF01808191810E94AA355CCE3CE6C30ED11C20CFD8015C968C915C978AAB5D9684
S2840098008C918BABBE016E5C7F4F8BE30E94B92FACCCC8010E942A34882361F080918D1490918E14892B09F4BDC0D8019B968C9182FFB8C0F80187A190A58536910518F083A583FFB1C0D80196963C90332031F0832D0E949E42892B09F448C0F80183A52689382F347082FF0AC0223031F48789908D883F9F4FD0F502C02130B9F18EEFC9
S284009880820F823038F4D80191968C91815F8E3068F18CC021118AC0332309F487C0F80164A075A087D67C01009719F080E090E00CC0B0924406A09243060E94633176C0DC011B962C91213089F09701432DB3010E94A93C0097A1F769C0813008F475C0823009F49AC0833009F48AC026EAE12CF12C612C712CB80185E095E02FAB0E94DB
S284009900C9302FA921111CC0E114F10431F4D0924406C09243060E947B31F30111830083C8010E942A34882319F0C3010E946F3CB301C801F7011995282F882309F49ACC40E050E0622FC8010E94243B93CC0091D7041091D804F8018281853C41F08DE694E490934406809343060E947B31D80113968D919C9114978D7F14969C938E93DD
S2840099801397892B09F062C080E00E94484080E196E09093D4048093D30460E0C8010E94423854C02AEAA3CF20EAA1CFD80156968C91813009F091CF80E00E94DA343C0139E9E32E3BE3F32E0DC0C8010E942A34882371F083E00E94DA343C0148EEE42E4DE3F42E6114710409F469CC20E083CFF80183A582FF02C081E0EDCF80E0EBCF2A
S284009A00C80149960E945AC10097F1F0DC018D919C91F801908F878B468AC8010E942A34882311F083E008C0D8019B968C9182FF02C081E001C080E00E94DA343C012AEAE22E25E3F22ECECF29EA51CFE796E2E10C94DCF5AFE1B0E0E0E3FDE40C94CDF5009749F485E495E490934406809343060E94633182C0FC012081233009F07DC058
S284009A80218132813A83298328E03396DE01139601900D922A95E1F7FC0123852B87248535853D872C8728E03E96DE011E9601900D922A95E1F7FC01218D2D8F238D2E8F0789108DF688F6E0FF1508F056C0F8018081982F9370933009F04FC0807E09F04CC08181811149C0BE01615E7F4F84E190E00E94C933F801208126952695277010
S284009B0030E08F8D90E028173907B9F58281982F9370933091F5982F907F79F58C708C3091F481E08B87F8E0FF1538F5F801838194819F878E876FEF0E94D6898823E9F0F80129E003C0F801329727E085819681998F888F878190859F8B8E8BF21AFA8E020F111D1C8F0B8FE091E304F091E404309719F0CE01019619956F96E5E00C9453
S284009B80E9F580E191E09093D4048093D3041092D8041092D7041092D6041092D5041092E6041092E5040E94A5370C9491A9CF93DF93EC016AE372E085E20E9438306AE372E088E30E943830209749F480E694E490934406809343060E94633105C089E18A83CE010E946B35DF91CF910895009741F481E694E490934406809343060C94E6
S284009C0063312AE8FC0122830C946B35009741F482E694E490934406809343060C94633125ECFC0122830C946B35CF933091CC138091CD139091CE1320E0231751F08396FC01B3974081442311F081E029C02F5FF4CFC0E08091C513C817E0F40E94B32F9CE6C99F900111244091CA135091CB13FA01E20FF31F882341F0878180FF08C021
S284009C8080858F70823021F0E0CF878180FDDDCFCF5FE0CF81E09091CF13911101C080E0CF9108951F93CF93DF93EB01853239F41881BBDF91E09827912398831FC08833E9F438814091C513E091CA13F091CB1380E0841771F0278120FF07C090859F70923019F42A7F223031F08F5FE459FF4FF0CF80E001C081E0832B8883DF91CF916D
S284009D001F910895FC01808184FD0C9418380895A2E0B0E0EEE8FEE40C94D0F5E091D504F091D6042F2F30E09E2F9F5F983008F090E0692F70E0A901092E02C0569547950A94E2F740FF26C09093D50481E090E0062E01C0880F0A94EAF78F278093D604660F771F6058744B42E050E0CE0101960E948EF689819A81892B41F480E094E499
S284009D8090934406809343060E947B31E981FA81199504C0E913C9CFE093D5048091D604882361F02FB7F8948091D1049091D20480629093D2048093D1042FBF2296E2E00C94ECF58091F612853091F028F4882349F0823069F004C0843141F0863141F080E008958091EF128B3010F488E0089582E00895833014F083E01BC096E0980F5E
S284009E00923010F48BEF15C098E0980F923010F489EF0FC09AE0980F923010F487EF09C09EE0980F943010F484EF03C0823F0CF48FEE8093F4120895C5DF282F220F220F280F30E0A90160E8869F400D511D1124CA0108958091F6128530E9F028F4882349F0823079F004C0843189F0863189F080E008958091EF12882349F08B3058F46E
S284009E8089E108958091EF12811105C002C082E3089588E2089580E10895CF93DF93EC01D9DFE82F9E01A0ECB3E00E949BF59B01AC01AE2FB0E00E94B0F528EE33E040E050E00E9457F5CA01B901DF91CF910895CF93DF93B1DFEC01BDDF282F2C9FC0012D9F900D1124BC0180E090E028EE33E040E050E00E9457F52F5F2093EE12DF913B
S284009F00CF910895CF93DF938BE08093EF1280E098EFAFEFB7E08093F0129093F112A093F212B093F31264EF72E183E090E00E94C9338091F4125EDF64EF72E183E090E00E940134C1E0C093F5121092F61274DF9093F8128093F71235DF94E0899F800D11248093F9122EDF8093FA1286E390E0A0E0B0E08093C3129093C412A093C5122A
S284009F80B093C6121092C7121092C812C093C9121092CB121092CA121092CC120E9480F68093CD12EEECF2E18FEF80838183828383838483858386838783CFEFDFEFD093D712C093D6120E9480F68093D81285E08093D91284E08093DA1283E08093DB128093DC12D093DE12C093DD1280E28093DF121092E0121092E112D093E312C09315
S28400A000E2121092EC121092ED1262DFDF91CF910895A4E0B0E0EFE0F0E50C94D0F5DC014C9150E0CA01805491098434910508F0D7C0865A9D4DFC010C9495F511968C918093C81208C011968D919C9112979093CB128093CA1280E00DC111968C91853308F007C18093CC12F6CF11968C918093CD12F1CF11968C9111978093CE1212964A
S28400A0808C9112978093CF1213968C9113978093D01214968C9114978093D11215968C9115978093D21216968C9116978093D31217968C9117978093D41218968C918093D512C9CF11968D919C9112979093D7128093D612C0CF11968C918093D812BBCF11968C91863008F0C4C08093DA12B3CF11968C919091D912981708F4BAC0809332
S28400A100DC12A9CF11968D919C9112979093DE128093DD12A0CF11968C918093E0129BCF11968D919C9112979093E3128093E21292CF11968D919C911297AFDE69837A838B839C83BE016F5F7F4F03C0BD016F5F7F4F82E090E071C011967C91119712966C91129713965C91139714964C91149715963C91159716962C91169717969C911E
S28400A180179718968C917093E4126093E5125093E6124093E7123093E8122093E9129093EA128093EB1257CF11968C918093C71252CF11968C91883008F05BC08093DB124ACF11968C918093DF1245CF11968C918093D91240CF11968C918093ED123BCF4830510508F043C042565D4DFA010C9495F58BEF3FC011962C918091F012909150
S28400A200F112A091F212B091F312022E04C0B695A795979587950A94D2F780FF2AC02093EF1223C011968C9190E2980F903408F5E1DD64EF72E183E090E00E9401340BCF11968C918430A8F48093F51204CF11968C91853041F018F4833058F404C0843111F0863131F48093F61232DEF4CE84EF01C088EE2496E2E00C94ECF5A4E0B0E0F7
S28400A280E4E4F1E50C94C2F56090DA126091D91270E0E091DC12F0E0262D30E0CB018E1B9F0B281739070CF4C901AA2797FDA095BA2F0097A105B10521F481E090E0A0E0B0E0712CC12CD12C76018C019D01015011092109310942E0442E512C872C912CA12CB12C081519052A053B05B0F0AF01470D511D41505109520102C0AA0CBB1C8A
S28400A3004A95E2F74501AA2497FCA094BA2CC80CD91CEA1CFB1C7394E1CF262D30E040E050E0281B390B4A0B5B0B61507109A2E0B0E002C0AA0FBB1F6A95E2F711970E94BAF59B01AC012C0D3D1D4E1D5F1DA4E1B0E00E94B0F59B01AC0169833A834B835C836ADD29813A814B815C81280F391F411D511D29833A834B835C836BDDA82FC7
S28400A380B0E029813A814B815C810E94B0F528EE33E040E050E00E9457F5CA01B9012496E0E10C94DEF556DDE82F2091DF1230E0A0ECB3E00E949BF59B01AC01AE2FB0E00E94B0F528EE33E040E050E00E9457F5CA01B9010895A4E0B0E0E1EFF1E50C94CAF58C01FC01408150E0FA01E054F109E434F10508F0ADC0EA55FD4D0C9495F5E3
S28400A4008091C812F801818380E0D0C08091CA129091CB12BEC08091CC12F4CF8091CD12F1CF7091CE126091CF125091D0124091D1123091D2122091D3129091D4128091D5125BC08091D6129091D712A2C08091D812D8CF8091DA12D5CF8091DC12D2CF8091DD129091DE1294C08091E012CACF8091E2129091E3128CC0BE016F5F7F4FAA
S28400A48082E090E00E94C933C980DA80EB80FC80C114D104E104F10491F0DCDC282F30E0A0ECB3E00E949BF528EE33E040E050E00E9457F5C701B6010E9457F502C024EF31E0F801328321839FCFBC016F5F7F4F82E090E00E94C93397CF7091E4126091E5125091E6124091E7123091E8122091E9129091EA128091EB12F8017183628359
S28400A5005383448335832683978380877DCF8091C71278CF8091DB1275CF8091DF1272CFFC01118271CF8091C3129091C412A091C512B091C61226C08091D91263CF8091ED1260CF30DFF80161837283838394835BCF4830510548F5FA01E651FD4D0C9495F58091EF124ECF8091F4124BCF8091F51248CF8091F0129091F112A091F212C0
S28400A580B091F312F80181839283A383B4833CCF53DCF8019283818337CF14DCF4E08F9F800D11242FCF0EDC2DCF84EF2496E8E00C94E6F584EE92E1089548E050E0BC0184EE92E10E9497F621E0892B09F020E0822F0895CF92DF92EF92FF92CF936B017C01F0DBC82F36DC2C2F30E0A82FB0E00E949BF59B01AC01C701B6010E9415F525
S28400A60028EE33E040E050E00E9457F5CA01B901CF91FF90EF90DF90CF9008952FB7F89480914E0590914F05946090934F0580934E053FB7F89480910A0581110FC04FB7F8948091D1049091D20481609093D2048093D1044FBF81E080930A053FBF2FBF0895BC018CE095E00E94F93080910B05811101C0D3CF0895FC011282F2CF21E037
S28400A680FC012283EECF22E0FC012283EACF23E0FC012283E6CF25E0FC0122831186108622E02783DECFA1E0B0E0E9E5F3E50C94CFF510920D0510920C055AD11FB7F894CE0101960E94A2D7811104C082E080930B0502C010920B0510924F0510924E051FBF2196E3E00C94EBF5A2E0B0E0EBE7F3E50C94CEF51FB7F89410920A05CE016F
S28400A70002960E94A2D7882339F080910B058230C9F410920B0516C081E090E00A8002C0880F991F0A94E2F78095909520914E0530914F052823392330934F0520934E0580E001C081E01FBF8111BAC081E080930B058A818A3029F500910C0510910D05209146023091470241E050E00115110539F4CE0101960E94A2D781114BC033C055
S28400A780CA01F801028002C0880F991F0A94E2F782239323892B09F065C0F80100811181E5CF90E08C30910520F7FC01EE50FD4D0C9495F5B0D214C0B7D212C026D410C0C1D30EC05AD30CC00E9427D509C00E94ABD406C03DD104C00E94F6D401C0A5D0811127C0C6CF2FB7F89480910A0581110FC03FB7F8948091D1049091D204816038
S28400A8009093D2048093D1043FBF81E080930A052FBF56C080911505811152C080910C0590910D05892B11F0F9DE4AC010920B0547C0813009F044C04FB7F89421E030E00A8002C0220F331F0A94E2F780914E0590914F05822B932B90934F0580934E054FBF2EC0B8018CE095E00E94C930F801428150E04930510508F07BCFFA01E250E7
S28400A880FD4DC8010C9495F593D393E002C03CD394E09A83A5CF87D295E0FBCF0E9413D596E0F7CF0E9488D492E0F3CFB5D098E0F0CF0E94D6D499E0ECCF06D09BE0E9CF2296E4E00C94EAF5CF93DF93EC0118868B819C819C01215031092F333105C8F4805C9E4F9C838B838A81873031F0883081F4CE010E944EB203C0CE010E9434B2E2
S28400A900882339F0813061F4D0934D05C0934C0507C01886EE81FF81CE010896199580E080930E05DF91CF910895CF93DF93C0914C05D0914D058A81873031F0883041F4CE010E944EB207C0CE010E9434B203C081E0888702C0811106C0EE81FF81CE010896199580E080930E05DF91CF910895AEE0B0E0EEEBF4E50C94CEF50E9468B27C
S28400A98082E088871E861D861A86198681E08F83CE0101960E9496B58B859C850E9483F673D00E943BD585D2ECD26AD30E94D1D468D00E9410D58EE489838091DA128A83CE0101960E945BB68FE489838091DC128A83CE0101960E945BB689E589838091DB128A83CE0101960E945BB680E589830FEF1FEF1B830A83CE0101960E945BB658
S28400AA0083E589831B830A83CE0101960E945BB62E96E4E00C94EAF51F93CF93DF93EC010E9496B5182F882339F0813051F4D0934D05C0934C0505C0EC85FD85CE010896199510930F05812FDF91CF911F9108951F93CF93DF93C0914C05D0914D05CE010E9496B5182F811105C0EC85FD85CE010896199510930F05812FDF91CF911F91C7
S28400AA80089510920F050895A2E0B0E0EAE4F5E50C94D0F56AEA77E180E092E00E94A733BE016F5F7F4F80E091E00E94C93329813A818091AA179091AB179093AF178093AE179093B1178093B0179093B3178093B217280F391F3093B5172093B4171092AD171092AC1766EB77E183E292E00E94A733BE016F5F7F4F8EE291E00E94C933D8
S28400AB0029813A818091B6179091B7179093BB178093BA179093BD178093BC179093BF178093BE17280F391F3093C1172093C0171092B9171092B8172296E2E00C94ECF59CE0899FF0011124E655F84E86819781019608959CE0899FF0011124E655F84E4FB7F894A681B7818C9190E001968A0F9B1F978386831C922681378180859185D9
S28400AB802817390751F484819581918780878081918195838483978386834FBF08959CE0899FF0011124E655F84EA681B78182819381A817B90721F081E09C91911101C080E0089581E0EBDF8823F9F080914E0590914F05816090934F0580934E052FB7F89480910A0581110FC03FB7F8948091D1049091D20481609093D2048093D104A9
S28400AC003FBF81E080930A052FBF80E0C8DF8823F9F080914E0590914F05826090934F0580934E052FB7F89480910A0581110FC03FB7F8948091D1049091D20481609093D2048093D1043FBF81E080930A052FBF0895A6E3B0E0EFE2F6E50C94CFF5182F6FDFFC01208130E0DC01A20FB31F12968C912F5F3F4F2E0F3F1FD9016C9181323B
S28400AC8020F4811103C081E001C080E26295669566956370689FB00111248FEF869FA001879F500D1124CA0160E670E00E9430F5D9016C93BF01CE0101960E948AD5882319F18A81982F977029F4807619F48B818C70B1F020913802309139022E7F3093390220933802CE010196A4D420913802309139022160309339022093380204C0C6
S28400AD008091EF12898FE6CF812F24DF80E0E696E3E00C94EBF581E042DF882311F081E098DF50DF80E0089580E039DF882311F080E08FDF47DF80E00895A9E0B0E0E3EAF6E50C94CDF58C018091120565E0813029F4C0D0F82E811121C01EC080E0BAD0F82E81111BC0F8018381898388E03496DE01129601900D928A95E1F7CE01019618
S28400AD800E945BB6F82E80911205823039F480911105AFD065E09ED0109212058F2D2996E5E00C94E9F5A9E0B0E0E9EDF6E50C94CEF58C01DC0113968C91813530F48E3480F48823D1F09EEF09C08F36B1F028F4833599F08935D1F40CC090E1980F9330A8F4813F41F4F801948120911005921339C091E00CC08935E1F39091C61790938F
S28400AE001105963119F492E09093120590E020911205211111C0911113C0898388E0F8013496DE01129601900D928A95E1F7CE0101960E945BB602C0C8017FDF811108C0D8011C96ED91FC911D97199580E004C010934D0500934C05809313052996E4E00C94EAF5909310059091C61790931105963109F0BECF91E0C7CFA1E0B0E0E3E489
S28400AE80F7E50C94CEF500914C0510914D05C80154DF811108C0D8011C96ED91FC911D97898319958981809313052196E4E00C94EAF51092130510921205109210050895882331F0813011F083E0089586E1089589E1089560938F14F3DF0C94F8B6882331F0813011F088E0089586E1089589E108958850823130F4E82FF0E0ED52FD4FFB
S28400AF008081089588E008951F93CF93DF93EC011091C6178B81E3DF181729F064E08B81D9DF811105C0EC81FD81199580E004C0D0934D05C0934C0580931405DF91CF911F910895A1E0B0E0E8EAF7E50C94CEF500914C0510914D0564E0D80113968C91B9DF811108C0D8011496ED91FC911597898319958981809314052196E4E00C9453
S28400AF80EAF5109214050895CF93DF93EC0163E080E0A0DF811109C082E080931505CE0103960E94CCD60E9456B7DF91CF910895CF93DF93EC0189AD83DF8093C417D0934D05C0934C058091DB12809390140E9480F690939214809391148091C617893151F482E080931505CE0103960E94CCD60E9456B705C081E080931505CE01C4DFF6
S28400B00080931605DF91CF910895A2E0B0E0EBE0F8E50C94CEF500914C0510914D0580911505813021F4C801AFDF811123C00E94FFB10E94D6B11A8219820E948AB5D801DC968C93DC97DA96ED91FC91DB97C801CC9619958091DB1290E020919014821B91099A838983BE016F5F7F4F8DE30E94B92F80E0809316052296E4E00C94EAF54A
S28400B08010921605109215050895809190148150809390140E948BE063E080E01BDF81110CC080914C0590914D0522E02093150503960E94CCD60C9456B781E0809316058093150580914E0590914F05886090934F0580934E0508952FB7F8948091D1049091D20484609093D2048093D1042FBF0895BC0183E497E10E94F930809132176B
S28400B10081110CC02FB7F8948091D1049091D20484609093D2048093D1042FBF0895CF93DF93DC0112964C9150E0FA013197E031F10508F053C0E95FFC4D0C9495F5DC011C96ED91FC911D970E963DC0DC011B96ED91FC911C970D9636C0DC011796ED91FC91189709962FC0DC015196ED91FC915297439628C0DC015396ED91FC915497FC
S28400B1804596199543C0DC011996ED91FC911A970B9619C0DC011E96ED91FC911F97409612C0FC01C08DC470D0E0018CF28DE02D4B961995CD2B51F511C0DC011496ED91FC9115970696199509C08091A3178E7F03C08091A3178D7F8093A317109232172091A3178091431790914417892B11F4222361F02FB7F8948091D1049091D204B2
S28400B20084609093D2048093D1042FBFDF91CF910895CF93DF9380913217882319F0833009F06AC08091A317882389F080FF09C08FE0809332170E94906761EF0E94E8655BC080E1809332170E9448DB55C080914802882309F450C0C0914317D0914417209709F449C083E497E10E94BD308A8180933217D0933517C09334178A8190E091
S28400B280FC013197EE30F10518F5E95EFC4D0C9495F50E94D9631AC00E94B36317C05CD415C0C7D713C0AAD411C00E94A8D90EC00E94EFD90BC00E94A66508C0EED006C052D304C00E9454DC01C01ED4811114C0109232178091431790914417892B61F02FB7F8948091D1049091D20484609093D2048093D1042FBFDF91CF91089527E05D
S28400B300FC012283F6CE28E0FC012283F2CE2BE0FC012283EECE22E0FC012283EACECF93DF93EC018B81882331F183E08A838093321710924417109243171092A31769E472E085E20E943830BE0183E497E10E94F930A9D986E397E10E94A0E22FB7F8948091D1049091D20484609093D2048093D1042FBF04C084E08A83CE01BADEDF916A
S28400B380CF9108952AE0FC012283B3CE25E0FC012283AFCE21E0FC012283ABCE26E0FC012283A7CE2CE0FC012283A3CE2DE0FC0122839FCE20913217233011F00C9451A5089520913217233011F00C94DBAD089520913217233011F00C9473A1089520913217233011F00C9429B1089520913217233011F00C9420A908952091321723304D
S28400B40011F00C9401B108958091A31781608093A31780913217811101C05ECE08958091A31782608093A31780913217811101C053CE089520913217211104C021E1209332171DC308958091A317811105C00E94FB6891E0982701C091E0892F08951F93CF93DF93EB011881EEDF91E0982791239883DF91CF911F910895CF93DF93C091A1
S28400B4803417D0913517FC0180810E94B7DB8CA3CE0145DEDF91CF9108951F93CF93DF93C0913417D09135178091DD129091DE12998B888B13E01A8B7DD8DE01539628E0FC0101900D922A95E1F71B8F8B818C8F8C818D8F8D818E8F8E818F8F8F8188A3888589A389858AA38A858BA38D85811105C01CA2CE0113DE80E077C08BE08093BD
S28400B50052178091D81291E0980F9093D81280935517809153178078209154172C6083628F77809353172C7C209354178FEF9FEF9093571780935617EB817C816D815E814F81388599858A85E09358177093591760935A1750935B1740935C1730935D1790935E1780935F17206C209354178091DD129091DE1290936117809360171AD8EA
S28400B58028E0FC01A2E6B7E101900D922A95E1F78091DD129091DE1290936B1780936A178091E2129091E31290936D1780936C178B859C859093701780936F178091EF1280936E178DE39AE590938A17809389178091E012882311F081E001C082E0809388178FE497E148D881E0DF91CF911F910895A8E0B0E0EFEFFAE50C94D0F5FC018F
S28400B6008281807C81F08089898381898A8382898B8383898C8384898D8385898E8386898F8387898887CE010196E0DE2896E2E00C94ECF5EF92FF920F931F93CF93DF93EC018A81807C8038C1F4AE014C5C5F4FBE016D5C7F4F888999890E9485DA811144C0488150E0FA013197EB30F10508F03CC0EB5DFC4D0C9495F5803C91F7288923
S28400B68039894A895B896C897D897E0184E3E80EF11C8E010D5C1F4F8E899F890E94C3DADECFCE018DD621C0CE01ADD01EC0CE010E947FD91AC0CE010E94FFD916C08DA980FD05C0CE010E949E6781119DDECE0173D00BC0CE018DDF08C08091ED12882321F09DDE02C0CE01A7D7CDB7DEB7E6E00C94E8F581E08093ED1208951092ED121A
