:100000000C9483260C94EAEF0C9416F00C9442F0B6
:100010000C946EF00C949AF00C94C6F00C94F2F0E0
:100020000C941EF10C94C0260C94C0260C94C0268F
:100030000C94C0260C94FBEB0C94C0260C9451EC51
:100040000C94C0260C94C0260C94C0260C94C02698
:100050000C94C0260C94C0260C94C0260C94C02688
:100060000C9475F20C94B4EE0C9457EE0C9486EE4E
:100070000C94C0260C9406F20C94B1F10C94C0269A
:100080000C94C0260C94C0260C94C0260C94C02658
:100090000C944EEF0C94F1EE0C9420EF0C944AF17A
:1000A0000C94C0260C94C0260C9457DD0C94BADF37
:1000B0000C94C0260C94C0260C94C0260C94C02628
:1000C0000C94C0260C94C0260C94C0260C94C02618
:1000D0000C94C0260C94C0260C94C0260C94C02608
:1000E0000C94C0260C94C0260C94C0260C94C026F8
:1000F0000C9416E00C94C0260C94C0260C943EE0A0
:100100000C94C0260C94C0260C94C0260C94C026D7
:100110000C94C0260C94C0260C94C0260C9466E067
:100120000C94C0260C94C0260C94C0260C94C026B7
:100130000C94C02600000000000000000000000039
:1001400000000000000000000000000000000000AF
:10015000000000000000000000000000000000009F
:10016000000000000000000000000000000000008F
:10017000000000000000000000000000000000007F
:10440000D60E16001900C90C030018000508BD00DF
:1044100017002B1301001600DF13080015006C13A2
:1044200001001400631302001300CF1301002600E3
:10443000721301001E00621301000F00E913010056
:104440000E00D31301000D00DB1302000C002C132F
:1044500001000B00261302000A0049131100090095
:104460003F13010008003E13010007003D13010047
:104470000600D01301000500D91301000400D11279
:10448000040003005A130800020024130100010075
:10449000091308000000704712002E009447150011
:1044A0002D00BE4719002C00F04704002A00F847F1
:1044B00011002900DA4FFF4E185018501850044FC1
:1044C0000E4F18501850164F1B4F434F4C4F18505B
:1044D000514F594F634F18506C4F714F18507A4FCE
:1044E000B54FC74F1850BA4FC24FDA4FDA4FDA4FB5
:1044F000D14FD14FD14FD14FD14FD14FD14FD14FBC
:10450000D14FD14FD14FD14FD14FD14FD14FD14FAB
:10451000D14F8D4FD14F1850185018501850185077
:10452000185018501850185018501850185018504B
:104530001850D14FCC4FDA4FD14F874FDC4FDA4F65
:10454000F34F01500850DA4FDA4FDA4F7451E1500F
:10455000B651B651B651E750EC508A51B651EF50B2
:10456000F25003510851B6510B510E511151B65131
:10457000165119518A511E5168517D51B6516B51D6
:104580006E51E550715171518A518A518A518A5147
:104590008A518A518A518A518A518A518A518A5143
:1045A0008A518A518A518A518A514E518A51B65143
:1045B000B651B651B651B651B651B651B651B651C3
:1045C000B651B651B651B651B6518A518051835148
:1045D0008A51465192519B5195519851B651A951CA
:1045E000AE51B451BB52BD52C852BF52C152C35258
:1045F000C5529A52CB52CD529A52D052255328537B
:104600002C532F53335337533A533E533E53805713
:10461000BE57BE57BE578757A45795579C57CF577D
:104620008E57AB57AB57B257BE57C657CA572A58C3
:104630002D583058305832583C5836583958495807
:1046400034583F58415843584658325A355A565AAA
:10465000385A3C5A565A405A565A4B5A4E5A545A3D
:10466000BD5D6A5E795E785DC05EC05E755E795ED6
:104670007E5EAC5E955EC05EC05EAC5EAB5DAE5E07
:10468000B296BA96D196439743979A96A796439730
:1046900043974397F19600971D97299743979796CD
:1046A000C5966396309B309B599A619A619A6E9A2F
:1046B0006E9A8B9A8B9A8B9AE99AE99AE99A849BDB
:1046C000309B11A963A937A93BA93BA93BA93BA9E9
:1046D0003BA93FA93FA9AEBBB1BB52BC52BCB6BBC4
:1046E00052BCC0BBA9BCA9BCA9BCA9BCA9BCA9BCE3
:1046F000A9BCA9BCA9BC52BC52BCA9BCA9BBBBBB30
:1047000052BCFFC64DC74DC74DC74DC74DC73CC76F
:1047100026C744C74DC736C74DC740C748C722C97B
:10472000FDC9DBCA06CB45CB71CCBACCDDD2DDD21C
:10473000DDD2DDD2DDD2DDD2DDD2DDD2DDD2F1CBF4
:10474000FFCBDDD2DDD226CCBCCAD4D4DCD4EED4AF
:10475000F7D4F9D4FBD4FDD400D5D3D54BD64BD662
:10476000F9D502D612D61BD61ED621D624D62AD6E5
:10477000000001000200030004000500060007001D
:10478000080009000A000B000C000D000E000F00CD
:104790001E001800000001000200030004000500D4
:1047A00006000700080009000A000B000C000D00BD
:1047B0000E000F001E00130014001500160000006C
:1047C00001000200030004000500060007000800C5
:1047D00009000A000B000C000D000E000F001E0067
:1047E0001300140015001600170018001900260009
:1047F0001300140015001600000001000200030061
:104800000400050006000700080009000A000B006C
:104810000C000D000E000F001E006E0600000508C3
:1048200000005F070000C2080000F9070000000058
:104830000000EC080000560E0000AE0E0000000C58
:104840000000520C00001C0C0000890C0000CC0C75
:104850000000100E00000000000000000000C90C65
:104860000000D60E00000000000000000000000064
:104870000000000000000000000000000000000038
:104880000000000000000000000000000000000028
:104890000000000000000000000000000000EC0E1E
:1048A0000000140F0000F30600006A4A02006E4A7E
:1048B0000100714A01006F4A0200744A0100754A02
:1048C0000100764A0100774A0100784A0100794ADE
:1048D00001007A4A0200724A02007C4A01007D4AC5
:1048E0000100964A0200874A0100884A0100894A6D
:1048F0000100924A04007E4A01007F4A0400834A74
:104900000100844A01008E4A01008F4A0100904A4A
:104910000200000000000000000000000000000095
:104920000000000000000000000000000000000087
:104930000000000000000000000000000000000077
:104940000000854A0100864A0100984A0100994A00
:1049500001009A4A01009B4A0100000000008A4AB7
:1049600004006C4A0200091308001313010020130D
:10497000040024130100D7130100D8130100DF1332
:104980000800DB130200631302006C130100D31351
:104990000100E9130100D9130100281301002913B4
:1049A00001002A1301002B130100261302002C130F
:1049B00001002D130100D5130100D4130100E412EE
:1049C0000100E51201005A130800D112040040133F
:1049D000040035130400391304003D1301003E1395
:1049E00001003F13010049131100D01301004413CB
:1049F000010045130400CF120100E6120200621309
:104A00000100251301000000000000000000D0128A
:104A10000100000000000000000000000000000095
:104A20000000000000000000000000000000000086
:104A300000000000000000000000000000002E1335
:104A400005003313010034130100000000000000D2
:104A50000000000000000000000000000000000056
:104A60000000000000001413010085006C0001002C
:104A70000007050007040205040204000308FF14F0
:104A80000000000108030303020A901A000001005D
:104A9000000000000203141061620003001E000009
:104AA00003013412000303000002000000000003B1
:104AB000031027000010270000010001E803000098
:104AC00004E80300001041746D656C202020202054
:104AD000202020202020FECAAAAAAAAAAA1A0002E0
:104AE0000301008000000000000000000000000042
:104AF000000000000005FF000000000000000000B2
:104B000000000000000000000000000000000000A5
:104B10000000000000000000000000000000000095
:104B20000000000000000000000000000000000085
:104B30000000000000000000000000000000000075
:104B40000000000000000000000000000000000065
:104B50000000000000000000000000000000000055
:104B60000000000000000002010002020508080029
:104B700000FFFF34120000000000000000020201EC
:104B8000AA400946000000000000000000000000EC
:104B900002F47CD277010734988872010134988836
:104BA000720101B37CDD8F0101387C3C9F0101382B
:104BB0007C0B9F0107ED7B78720101957B5C850181
:104BC00001000000000107000000000101000000DA
:104BD0000001030000726A01040000726A0105000E
:104BE000000000010600000000010D0000000001AF
:104BF0000134980000000100000000010E000000D8
:104C000000010700000000010A0000000001000090
:104C10000000000101000000000101000000000090
:104C20000000005F76000900005F76000C00005F66
:104C300076000000005F7600F678C87EF39599A8AC
:104C4000FF74299C0B7AB17A85736E81B38798764D
:104C5000659F92790474F37200000000BD72368182
:104C6000000000002768376BBD689268B6680000D6
:104C70002E683C68AB6835682D6BE567296A306A39
:104C80009F6A216AC4680000876B02010203030265
:104C90000201010101010101010102020101010200
:104CA00001020202020202010202020202020103E6
:104CB00003020203EEA61A9DD1954D9E000050A559
:104CC000D08EE9A900000000ACB646BBD1C417BE27
:104CD000EDD2B0C3CCE1CCE1CCE1CCE13EE302E1EA
:104CE000FBF2CCEB6BDEA9DD66EA01ED0AEA6DE8CA
:104CF000E8E6CDE11FE34BE45EE21DE349E45CE25C
:104D0000030405060700112480914C18823159F0E4
:104D100084B780FD04C08F7180934C1807C081E078
:104D200080934C1803C081E180934C1814BE80918D
:104D300060008861809360001092600011241FBEA3
:104D4000CFEFD1E8DEBFCDBF00E00CBF13E0A0E0A5
:104D5000B2E0E8E8FAEE01E00BBF02C007900D9266
:104D6000A432B107D9F728E1A4E2B3E001C01D9253
:104D7000AC34B207E1F70E948C310E94A231FDCF22
:104D80000C9400007F937FB7F8949D9AA5988AEFC2
:104D90004DD08AEF4BD09D9886E448D081E095991C
:104DA00080E08F9380EF42D08F917FBF7F910895F5
:104DB0007F937FB7F8949D9AA59886E037D09D9809
:104DC0008AE034D0889495990894881F8F9384E65C
:104DD0002DD08F917FBF7F9108959F937F9398E00F
:104DE000E7DF879577959A959923D1F7872F7F915C
:104DF0009F9108957F937FB7F894A5989D9A8F937C
:104E000086E014D08F91879508F49D988F9384E65F
:104E10000DD08F919D987FBF7F9108959F9398E0CB
:104E2000E9DF9A959923E1F79F910895000000002A
:104E3000000000008A958823C9F708955F937F9347
:104E40007FB7F894CF93DF93C0E0D0E07F93509189
:104E5000B2007091B2007517E1F3739521965091ED
:104E6000B2005717D9F77F91CE01DF91CF917FBF65
:104E70007F915F910895089584E080938D032FB70B
:104E8000F8948091DD049091DE0490619093DE04AB
:104E90008093DD042FBF0895CF93DF93EC0186EE5E
:104EA00095E00E9451E16CA18EA19FA121D262E008
:104EB00082ED92E01DD2DF91CF910895EF920F9392
:104EC0008091340624E6829FC001112462E970E0DB
:104ED0000E94C3F39B01442737FD4095542F28338C
:104EE00031054105510510F4739A01C0739888E0AB
:104EF000E82E0FE06BE180E192E02ED28091240257
:104F0000809343038091250280934403809126027D
:104F1000809345030F91EF900895FC0180818111EA
:104F200013C088EB95E00E9451E185E080938D03EA
:104F30002FB7F8948091DD049091DE0490619093F6
:104F4000DE048093DD042FBF0895FC018785811165
:104F500017C06CE873E081E290E00E94AA326DE035
:104F600087EC92E0C5D12FB7F8948091DD04909141
:104F7000DE0490619093DE048093DD042FBF0895DA
:104F800085E480934C0382E780934D0380934E0326
:104F90009FE690934F03809350030895CF93DF9340
:104FA000EC0169E085ED92E0A3D1AE0161E573E02B
:104FB00085EC95E00E9441E580E00E94EC316FE0D5
:104FC00081E593E095D1DF91CF910895CF938091C2
:104FD0008D03823009F45AC098F4882301F181309E
:104FE00009F0B1C085EA97E290938B0380938A031E
:104FF00084E793E00E94F8C382E080938D03A3C00E
:10500000833009F469C0843009F09DC08091510358
:105010008093420380E096E00E94243E94C02FD10A
:1050200084EF91E0A0E0B0E08093EC059093ED0573
:10503000A093EE05B093EF05C1E0C093F0058BE3BC
:1050400097E29093F2058093F10580ED97E0A0E060
:10505000B0E08093F9059093FA05A093FB05B09317
:10506000FC051092FD058CE397E29093FF05809379
:10507000FE050E94F83184B18E6084B980E092E030
:105080000E94E0E96B9AC0938D0351C081E090E0EB
:1050900090936C0380936B0390936A0380936903EE
:1050A0008093680380916D03807F816080936D039E
:1050B00088E693E090936403809363038CE497E223
:1050C000909366038093650380E693E00E9493418A
:1050D00083E080938D032BC081E090E090932306C2
:1050E0008093220682E08093160610921806109292
:1050F000170621E02093210682E493E090932A068C
:10510000809329068FE090E09093280680932706ED
:10511000209326068DE897E290932E0680932D0625
:1051200085E080938D0383EF95E00E9451E12FB7D6
:10513000F8948091DD049091DE0490619093DE04F8
:105140008093DD042FBFCF910895089508950895A9
:105150000895CF92DF92FF920F931F93CF93DF9327
:10516000E42FF0E0F0908B042AEF30E02F193109A2
:105170002E173F0734F150918A0420E030E0EC0113
:10518000C60FD11D0AEF10E02E173F07ACF4852F94
:1051900090E0BC0161577C4F6B01BE01620F731F31
:1051A000DB015C91D6015C932F5F3F4F0196B80104
:1051B0000E94C3F3582FE8CF50938A04F40EF09264
:1051C0008B04DF91CF911F910F91FF90DF90CF90D3
:1051D00008951F93CF93DF931092BE041092BF04E3
:1051E00010918B04112309F446C080918904ECE8E6
:1051F000F4E01333E0F4212F30E0CAEFD0E0AF0148
:105200004C585440421753075CF490E0DC01A1571E
:10521000BC4F4C9141930196BE010E94C3F3EFCF66
:10522000809389041093BE0410928B0418C02AEF57
:1052300030E090E0DC01A157BC4F4C9141930196C6
:10524000B9010E94C3F394E0EE3BF90791F7809314
:10525000890482E38093BE04125310938B0481E08F
:105260008093BF044091BE0450E06CE874E085EC8C
:1052700095E00E94B4E4DF91CF911F91089588ECEE
:105280008093D0051092D10589E190E09093D305E9
:105290008093D20586E08093D4051092D5051092B4
:1052A000D6051092E5058EE893E09093DA05809399
:1052B000D90581E090E09093DC058093DB051092A6
:1052C000DE051092DD051092E0051092DF0589EEF3
:1052D00098E29093E4058093E3058EEC97E2909337
:1052E000E2058093E10585EC95E00C9455E4089582
:1052F000462F2091BF04222319F060E02ACF0895A1
:10530000FC01ACE8B4E0633370F4862F90E09D01BB
:105310002C583440281739071CF421912D93F7CFCE
:105320004093BE040CC021912D9324E0AE3BB20704
:10533000D1F722E32093BE04425362E30ADF81E007
:105340008093BF044091BE0450E06CE874E085ECAB
:1053500095E00C94B4E40895A0E0B0E0E2EBF9E24B
:105360000C9445F4F12CF701E00FF11DC62FD0E0AD
:10537000CE17DF07ECF0C0E0D0E08C010E0F1F1F4E
:105380006AE0862E912CA12CB12C2197F701EC0F0D
:10539000FD1F319669F06801CC0EDD1EB901CA010E
:1053A000A50194010E94D6F3605DF6016083EDCF04
:1053B000CDB7DEB7ECE00C9461F4A2E0B0E0E3EE30
:1053C000F9E20C9447F46C01009135061091360611
:1053D000E12CF12C8091390690913A06E816F906F5
:1053E000A8F45801B8016C5F7F4F42E050E0CE0155
:1053F00001960E940DF50A5F1F4F29813A812C15F5
:105400003D0539F08FEFE81AF80AE4CF80E090E02C
:1054100001C0C5012296EAE00C9463F4ADE0B0E06F
:10542000E4E1FAE20C9449F47C016B0123E09695E7
:1054300087952A95E1F7FC01EB5CF94F228D30E06E
:10544000B70167707727062E02C0369527950A9414
:10545000E2F78E010F5F1F4F20FF42C027E0EFE40D
:10546000F6E0D80101900D922A95E1F7A0E020E046
:1054700030E04A2F50E048175907D8F4F801E40FFC
:10548000F51F4081542F569555754575540F452F7E
:105490004695469543735373450F4083E42FEF7051
:1054A00042954F7050E04E0F511D240F351FAF5FD6
:1054B000E0CFE0E0D801A80FB91F4E2F50E046170B
:1054C000570780F44C9150E00E2E02C05695479538
:1054D0000A94E2F741705527240F351FEF5FEDCF97
:1054E0002FEF3FEF1B870A8746E0429FC001439F93
:1054F000900D112404969987888786E090E09D8717
:105500008C8760EC7BE2CE01089672D18D819E8102
:10551000E816F90639F084E090EA909369068093E2
:105520006806E1D589819A81F601918380832D9661
:10553000E8E00C9465F4A6E0B0E0E1EAFAE20C944D
:105540004BF47C018B0180E090E0FC0133E0F695A8
:10555000E7953A95E1F7EE0DFF1D6081AC014770CC
:105560005527262F30E0042E02C0369527950A9441
:10557000E2F720FF0DC021E030E001C0220F4A9584
:10558000EAF720952623208318DF009731F431C0F5
:10559000019683339105C9F62CC046E050E0BC016A
:1055A000CE0101960E940DF589819A81F8019383BD
:1055B0008283B8018D819E8131DFF80180819181E4
:1055C0000596918380838B819C81958384838281DE
:1055D0009381892B39F480E090EA90936906809357
:1055E000680681D58D819E81F7019087878381E050
:1055F00006C08FEF9FEFF7019087878380E02696A4
:10560000E6E00C9467F4A8E0B0E0E9E0FBE20C947B
:1056100045F47C01A0903706B0903806FC018681E5
:1056200082FD09C000E010E0812C76E0972ECC24AA
:10563000C394D12C0CC047E050E06FEF70E0C7017D
:105640000E943DF56DC0882483940F5F1F4F8091A9
:105650003B0690913C060817190708F05BC0909E26
:10566000B001919E700D11246A0D7B1D46E050E043
:10567000CE0101960E940DF52D813E81F90163E076
:10568000F695E7956A95E1F7EE0DFF1D40812770CD
:105690003327842F90E0022E02C0969587950A94B6
:1056A000E2F780FFD2CFC60102C0880F991F2A956A
:1056B000E2F79C01209524232083812C882D90E003
:1056C0002B813C818217930708F0BDCF880F991F6B
:1056D00069817A81680F791F42E050E0CE01079618
:1056E0000E940DF58F819885FC0153E0F695E795B2
:1056F0005A95E1F7EE0DFF1D87709927960102C0BC
:10570000220F331F8A95E2F7C9019081982B90836D
:105710008394D4CF882021F000E010E0812C97CF33
:105720002896ECE00C9461F4CF93DF93EC018FEFBB
:105730009FEF98878F8387E0FB01DE0101900D9238
:105740008A95E1F7CE015FDFEFE4F6E09191888181
:105750008923899386E0E635F807C1F7DF91CF9179
:1057600008958091630690916406A7C208951092EF
:10577000600681EB9BE29093620680936106089538
:105780000895E8E4F6E0DC013D91CD012081232B72
:105790002193B6E0EF34FB07B1F780916506846092
:1057A0008093650608950E9466E8882311F0DFD58E
:1057B000FACF0895A2E0B0E0E0EEFBE20C944DF4E5
:1057C0008B0189839A83EFDFB80189819A810E94D6
:1057D00089E7019631F08BE2003C180721F4E3DF02
:1057E00002C081E001C080E02296E4E00C9469F4FC
:1057F000A2E0B0E0EEEFFBE20C944DF48B01898364
:105800009A83D1DFB80189819A810E9416E70196B7
:1058100031F08BE2003C180721F4C5DF02C081E0C3
:1058200001C080E02296E4E00C9469F4A2E1B0E0CB
:10583000ECE1FCE20C9442F480916506982F9260B2
:105840009093650682FF0AC068E476E080EC94E0FD
:105850006BDF809165068B7F80936506CC24C394B3
:10586000D12C7E013DE0E30EF11C55E0A52EB12CBC
:105870004E0182E1880E911CBE01695F7F4F80EC72
:1058800094E059DE882309F462C06090C7047090E8
:10589000C804F30163E0F695E7956A95E1F7EB5CE0
:1058A000F94FC30187709927960102C0220F331F59
:1058B0008A95E2F7C901809593898923838BFC82BD
:1058C000EB82BE82AD828F81988505979A8389830A
:1058D00060EC7BE2CE0101968BDF4B855C856985B0
:1058E0007A8580E05ED0582E8D8558123AC088891E
:1058F000998968167906A9F52B853C858E859F8543
:105900002817390771F59C828B82DE82CD8200E0F8
:1059100010E02B853C850217130708F0ADCF2F81CF
:105920003885200F311F3A83298360EC7BE2CE015A
:1059300001965EDFAB81BC81E985FA85E00FF11F3E
:105940009C91808198130DC00F5F1F4FE2CF809113
:1059500065068D7F8093650660E070E08FE001D280
:105960001CC05D86798A688A8B859C859F878E8717
:10597000FC82EB8285E090E09E838D838F81988509
:1059800005979A83898366E17CE2CE01079612DF50
:1059900060EC7BE2CE0101960DDF6296EFE00C94A5
:1059A0005EF4FB01460F571FE417F50719F09191BC
:1059B000890FFACF08954F925F927F928F929F92B4
:1059C000AF92BF92CF92DF92EF92FF920F931F930D
:1059D000CF93DF93CDB7DEB762970FB6F894DEBFF3
:1059E0000FBECDBF80E094E49093360680933506D9
:1059F00086E994E4909338068093370606E914E428
:105A000000501444C80166E070E00E94AFF3892B97
:105A100039F080E290EA909369068093680663D338
:105A200026E030E0C801B9010E94AFF34091390689
:105A300050913A06642B752B70933A0660933906A1
:105A400004EB14E406591444C801B9010E94AFF3F1
:105A5000892B39F081E290EA909369068093680679
:105A600042D3C80166E070E00E94AFF380913B062C
:105A700090913C06682B792B70933C0660933B0613
:105A8000009135061091360610923D0610923E06A2
:105A900010923F061092400687E0EFE4F6E0DF0147
:105AA0001D928A95E9F7D12CEE24E394F12C809194
:105AB000390690913A062D2D30E028173907C8F5A0
:105AC00046E050E0B801CE0101960E940DF52B8111
:105AD0003C812B5F3F4F80913D0690913E06A09107
:105AE0003F06B0914006820F931FA11DB11D809308
:105AF0003D0690933E06A0933F06B09340068D81ED
:105B00009E81FC0133E0F695E7953A95E1F7EB5C71
:105B1000F94F87709927970102C0220F331F8A958A
:105B2000E2F7C901928D982B928F0A5F1F4FD39491
:105B3000BECF26E0289F6001299FD00C112434E0BD
:105B4000C30ED11CE12CF12CCE010796988B8F87C8
:105B500086E090E09A8B898BA12CB12C00E010E0BC
:105B600096E0792E22E2822E20EA922EF80183E03E
:105B7000F695E7958A95E1F7EB5CF94F828D90E019
:105B800098012770332702C0969587952A95E2F7EA
:105B900080FF41C07A9CC0017B9C900D112404962B
:105BA0009E878D8760EC7BE2CE010D9621DE8B8592
:105BB0009C858017910749F48F819885A985BA85BE
:105BC0008C159D05AE05BF0559F01C870B87CF824C
:105BD000D886E986FA8660EC7BE2CE010D96EADD96
:105BE000C801EBDB2C01009729F4909269068092A2
:105BF000680679D246E050E0B201CE0101960E94DB
:105C00000DF58B819C810596C80ED91EE11CF11CF7
:105C10008FEFA81AB80A0F5F1F4F0333110509F061
:105C2000A5CFA5DD62960FB6F894DEBF0FBECDBF3F
:105C3000DF91CF911F910F91FF90EF90DF90CF9068
:105C4000BF90AF909F908F907F905F904F900895FE
:105C500020E0FC013191CF01311105C02F5F2730C9
:105C6000C1F780E0089581E0089527E0FB011192DB
:105C70002A95E9F7FC0123E0F695E7952A95E1F7E7
:105C8000E60FF71F8770992721E030E001C0220F4F
:105C90008A95EAF78081822B8083CB01B4CC08956A
:105CA000AFE4B6E0FC013D9120812323219326E05F
:105CB000A635B207C1F7CCCF0895A7E0B0E0E3E680
:105CC000FEE20C944EF4BE016F5F7F4FCEDFCE013B
:105CD0000196E6DFCE010196BBDF182F882339F04D
:105CE000CE0101964EDD8091650681FF9FDD812FFB
:105CF0002796E3E00C946AF408950895A2E0B0E0DA
:105D0000E4E8FEE20C944FF48091C9048823E9F0A2
:105D1000BE016F5F7F4F81E290E01CD4BE016E5FD9
:105D20007F4F8DE190E016D48981823071F48A81B1
:105D300081110BC08DE79EE29093D2048093D10431
:105D40008AEC94E00E949FC002C00E94BEDE2296B0
:105D5000E2E00C946BF48091C90408950C948FEAEE
:105D60000895A0E0B0E0E7EBFEE20C9447F4B82E13
:105D70007B01082F10E093E0169507959A95E1F7BF
:105D80008770C1E0D0E001C0CC0F8A95EAF7AC2E55
:105D90008FE38B1538F484E090E890936906809344
:105DA0006806A1D1F801ED52FB4F80818C2311F1DF
:105DB000C091DB04D091DC0485E0C82E80E8D82EA9
:105DC0002097C1F0FE01E00FF11F82818A2171F05E
:105DD0002A853B85232B29F4D0926906C092680658
:105DE00082D1EA85FB85B7018B2D19950990D88161
:105DF000C02DE6CFCDB7DEB7EAE00C9463F4E82F10
:105E0000F0E023E0F695E7952A95E1F7ED52FB4F98
:105E1000208130E0877041E050E002C0440F551F00
:105E20008A95E2F72423352381E0232B09F480E0CF
:105E30000895282F30E043E0369527954A95E1F7FD
:105E4000620F731F877021E030E001C0220F8A9536
:105E5000EAF7FB019281922381E009F480E0089542
:105E60001F93CF93DF93182FEB01803438F023E09A
:105E700030E8309369062093680635D1BE01812F42
:105E8000D8DF81112AC0BE018BED94E09AD0811138
:105E90000BC088E0FE013296DF011D928A95E9F77A
:105EA000BE018BED94E09DD0412F50E063E056950C
:105EB00047956A95E1F7177021E030E001C0220FA5
:105EC0001A95EAF7C40FD51F8A81822B8A83FA01BB
:105ED000ED52FB4F8081822B8083DF91CF911F9108
:105EE00008951F93CF93DF93182FEB01803438F080
:105EF00023E030E83093690620936806F4D0BE01B1
:105F0000812F97DF882369F1212F30E073E03695E8
:105F100027957A95E1F7177041E050E0012E01C016
:105F2000440F0A94EAF7942F9095C20FD31F8A81E9
:105F300089238A83E091DB04F091DC04309759F0E7
:105F4000DF01A20FB31F12968C91842351F40190AC
:105F5000F081E02DF3CFF901ED52FB4F80818923D1
:105F60008083DF91CF911F910895DC01ED91FC9129
:105F70001197309721F0208131812D933C93CF01EF
:105F8000089561157105A1F0DC01ED91FC91119767
:105F9000E617F70759F4208131812D933C930FC008
:105FA000808191818617970729F0FC013097C1F70E
:105FB00080E00895DB018D919C919183808381E045
:105FC0000895DC01ED91FC91309739F0E617F70761
:105FD00031F00190F081E02DF7CF80E0089581E06D
:105FE00008950F931F93CF93DF938C01EB01E9DFAB
:105FF000882349F080E090E89093690680936806D2
:106000005AD080E014C019821882D801ED91FC9119
:106010001197309719F4CD93DC9308C0808191815A
:10602000009711F0FC01FACFD183C08381E0DF91AA
:10603000CF911F910F910895CF93DF93FC0182813F
:106040009381009781F40E94A5E1C22FD32F0E9473
:10605000BB5144E0FC0121913191CF01C227D327EC
:106060004150C1F7CE010E9402F581E080933602D3
:106070008EE392E00E9451E1DF91CF91089580E399
:1060800092E00C942C52089580913602882369F096
:106090008EE392E00E9481E18CE190E390933D02D7
:1060A00080933C0210923602EACF08958EE392E08C
:1060B0000C9481E1089582E090E090936B068093C8
:1060C0006A06809168069091690690936D068093A8
:1060D0006C06E0916606F0916706309719F08AE643
:1060E00096E01995089583E090E090936B06809375
:1060F0006A06809168069091690690936D06809378
:106100006C06E0916606F0916706309719F08AE612
:1061100096E019950895EF920F93FC0161837283C5
:106120004F3740F081E090E89093690680936806CD
:10613000C2DF20C0403808F04FE7440F80818170F3
:106140000187842BE0FA80F9808334832383CB0199
:10615000AC016081669504962181328174E0679F6D
:10616000200D311D11244217530720F4DC01119733
:106170001C92EECF0F91EF900895A0E0B0E0E3EC19
:10618000F0E30C9448F4EC018B01B42E0E94A5E1DD
:1061900069017A018D819E81AF81B885A701960141
:1061A000281B390B4A0B5B0BCA01B9012B813C81BF
:1061B00040E050E00E94D6F32F3F310541055105E4
:1061C00018F42223F9F001C02FEF89819A81BC01D4
:1061D00038813695049649815A81E4E03E9F400D0E
:1061E000511D11246417750748F4FC013291432FA7
:1061F000231708F4422F341B3083E9CFCD82DE828F
:10620000EF82F886A981BA814881842F86959D0105
:1062100054E0859F200D311D1124C901E0E0F0E01C
:10622000A817B907C0F413965C911397552359F03A
:106230002D913C9111972017310729F412962C913A
:1062400012972B15C1F0309719F02381521708F4DB
:10625000FD011496E5CF40FD06C0309771F08381B3
:1062600081110BC002C0309751F011830083B282BC
:106270008985838304C080E003C082E001C081E09F
:10628000CDB7DEB7E9E00C9464F4FECE089508952E
:10629000CF93DF9360914B0270914C0280E090E0CD
:1062A000E1E0F0E09F01082E02C0220F331F0A94A4
:1062B000E2F74091DD045091DE0446235723422348
:1062C0005323452B11F16FB7F8944091DD045091A1
:1062D000DE0420953095242335233093DE0420936B
:1062E000DD046FBFFC01EE0FFF1FE152FD4FC081C7
:1062F000D181209739F486E090E8909369068093E5
:106300006806F1DEFE01199504C001968E309105F4
:1063100049F6DF91CF9108950E9449DF0E94FDB0B8
:10632000882371F02FB7F8948091DD049091DE04FA
:1063300080619093DE048093DD042FBF81E0089597
:1063400082E00895A5DF60E070E08BE20ADD8091D5
:10635000DD049091DE04892B09F4D0DC2091DD046A
:106360003091DE0481E0232B09F480E0089590CF82
:106370000895FC012081211105C021E02193CF0166
:106380000C9451E10895FC012081213021F41192F7
:10639000CF010C9481E10895A5E0B0E0E2EDF1E3D6
:1063A0000C944BF47C012A833B834C835D8369838B
:1063B000EADFF7011082698163872A813B814C8182
:1063C0005D8127833087418752871587048725960B
:1063D000E6E00C9467F40895813031F018F08230D3
:1063E00029F008952F9808952E9808952C980895CF
:1063F000279A269A249A2F9881E0EEDF82E0ECDF3C
:1064000080E0089588E3E8EEF2E1DF011D928A95CD
:10641000E9F7E9E0F3E181E080839AE09183128279
:106420001382148285831682178285E0809313136A
:1064300047E850E069EF7AE483E693E10E940DF5C6
:1064400047E150E062EE7AE481ED92E10E940DF5C1
:1064500043E050E06FED7AE48EEC92E10E940DF59E
:1064600043E450E06CE97AE480E293E10E940DF5A8
:1064700080E69CE0EEE6F6E0DF019C011D922150F3
:106480003040E1F70895A4E0B0E0E9E4F2E30C94D1
:106490004FF4BC011A8219821C821B828827811545
:1064A00021E0920769F0811522E09207B9F0892B6B
:1064B000E9F4660F771F660F771F6A59764B07C09E
:1064C0007727660F771F660F771F6655774B44E077
:1064D00050E0CE0101960E940DF50FC07727660FA0
:1064E000771F660F771F665E774BF1CF8AE090E6E5
:1064F0009093690680936806F6DD69817A818B81C5
:106500009C812496E2E00C946BF47CDF54CA0895DD
:10651000A4E0B0E0EEE8F2E30C944BF47C018B01D4
:10652000B2DFEE24E11422E0F20669F026E030E664
:10653000309369062093680669837A838B839C83F2
:10654000D2DD7A816981F801718360832496E6E067
:106550000C9467F4A4E0B0E0E0EBF2E30C944BF4AD
:106560008C017B0190DFE114F10479F420E030E646
:10657000309369062093680669837A838B839C83B2
:10658000B2DD9C818B817A8169810027011511051B
:1065900049F0011521E0120751F4AC01C7010E9436
:1065A0000DF50CC0AC01C7010E9423F507C081E0C6
:1065B00090E6909369068093680695DD2496E6E060
:1065C0000C9467F4A0E0B0E0E8EEF2E30C9449F438
:1065D0008C01EB0158DF6B017C01209739F484E0DA
:1065E00090E690936906809368067DDD002701158B
:1065F000110539F085E090E690936906809368066E
:1066000072DDA701BE01C6010E9423F5CDB7DEB73A
:10661000E8E00C9465F4FC0193A5892F887090FF45
:1066200009C0882379F081E027A130A52236310501
:1066300050F408C0882331F081E027A130A524362A
:10664000310508F480E08170089521E030E001C058
:10665000220F8A95EAF78091E204822B8093E2046C
:106660002FB7F8948091DD049091DE0480629093BE
:10667000DE048093DD042FBF0895CF93DF93E09174
:10668000EF13F091F0138E179F0718F482E894E44B
:1066900046C08E1B9F0B6CE670E00E94AFF38091AA
:1066A000EA13681718F083E894E439C08CE6689F11
:1066B000E00DF11D11248781869590E082309105CF
:1066C00059F014F00397D1F58091EE138823B1F1BE
:1066D00081508093EE1332C08091ED13882319F01E
:1066E00081508093ED13DF01AC5ABF4FCD91DC9107
:1066F0002091F2133091F313CE01821B930B63E2CE
:1067000070E00E94AFF3C217D30718F484E894E452
:1067100006C08091EB13681740F085E894E49093ED
:10672000690680936806C7DC0CC0D90183E2689FC4
:10673000A00DB11D11248C9181111C9287818E7F37
:106740008783DF91CF910895CF93DF93EC011EA251
:106750008CA19DA1892B39F484E494E4909369067B
:1067600080936806C0DCECA1FDA1CE018696199548
:10677000DF91CF910895EF92FF920F931F93CF93E4
:10678000DF93A091EA134091EF135091F01320E0B2
:1067900030E090E09A1709F45AC0FA01E20FF31FB3
:1067A000B90164597F4FB781B0FD63C07F0194E5A3
:1067B000E90EF11CD7011D921C928230B1F010F04D
:1067C0008330F1F59091EE134091EC13941708F09B
:1067D0003EC09F5F9093EE1313821482158216823F
:1067E00090859F709087128235C01091ED13909123
:1067F000EB13191760F50091F1134091F2135091CA
:10680000F31390E09017B9F0EA014D5D5F4FBA01C4
:1068100063527109DB016C9161110BC01F5F109312
:10682000ED1341E048836896D701CD93DC93428312
:1068300002C09F5FE7CF4091F11349130BC007C01F
:1068400081E894E490936906809368064CDC80E0CC
:1068500090E012C09085907F9087880F8160878339
:10686000118210828091EF139091F013820F931F89
:1068700003C09F5F9B018ECFCDB7DEB7E6E00C94DF
:1068800067F42091F30421502093F304BC018DE0C0
:1068900095E0A7DB81E0D9CE0F931F93CF93DF93D1
:1068A0008C01C091E304D091E4048091DF049091C5
:1068B000E00480519140813F954048F4B80183EE57
:1068C00094E08FDBCD2B59F480E0BFDE08C083E677
:1068D00094E4909369068093680605DCEFCFDF911E
:1068E000CF911F910F910895BC016F5071098FE0F6
:1068F00095E077DB81E0A9CEBC016351710981E1AC
:1069000095E06FDB81E0A1CE2091F3042F5F20930F
:10691000F3040C9494916F927F929F92AF92BF92E6
:10692000CF92DF92EF92FF920F931F93CF93DF935B
:106930001F92CDB7DEB78C017B01FB01E25AFF4FFE
:1069400081E494E3918380833E9782E08083D80141
:1069500057968D919C9158973196918380839C9600
:106960008C919C97379680833196108231969B96B6
:106970008C919B978095881F8827881F80833196EC
:1069800081E08083319680839B968C919B9786FDD6
:106990000BC021E057968D919C915897883F9F4F4F
:1069A00008F020E0822F01C081E0F701E35AFF4F99
:1069B00081708083C8012FDEF701ED5AFF4F6F0110
:1069C00097012C5A3F4F3901882309F442C0909017
:1069D0009C1440919D14242F30E08091A01490E0ED
:1069E00001972817390739F4D80197968C91499D5A
:1069F00080191124982EA92CB12CC5014E968236EF
:106A0000910538F081E594E49093690680936806D7
:106A10006ADB30919C1420919D148091B214909166
:106A2000B314F80161A572A5329F600D711D112488
:106A3000A5014E960E9423F58AE0890DD6018C931C
:106A40008091B2149091B3144496F30191838083A2
:106A50000EC0D80197968C919797885F80839996FE
:106A60008D919C919A970897D9018D939C93F301EE
:106A7000C080D180D6012C912C7F2F7E2C93F801E1
:106A80008789908D237F883F9F4F10F02860D60123
:106A90002C93F60180818F7D8083D8019B969C91F9
:106AA00092FD03C08F7B808322C08064F6018083C7
:106AB000D70118962C911897207F216018962C9357
:106AC000C8012983A8DD29812F70882341F0809196
:106AD000A2148295807F822BF701808708C0809165
:106AE000CF128295807F822BD70118968C93C80194
:106AF00092DDF60190818823A1F0906890839091B7
:106B00009D1480858C7F911106C081608087809163
:106B1000A014818709C08260808780919D1481873D
:106B200003C09F77F6019083D80191968C9191973D
:106B3000F601818394968D919C919597938382839E
:106B400092968D919C9193979583848396968C9140
:106B50008683C80160DD882331F08091A114D601BD
:106B600017968C9308C080910A0591E0980F909336
:106B70000A05F6018783C7010996C6DE80E00F90FB
:106B8000DF91CF911F910F91FF90EF90DF90CF9009
:106B9000BF90AF909F907F906F900895E091B01458
:106BA000F091B114BF0180819181B5CEEFE8F4E19D
:106BB000F0936014E0935F1492E090935B14209143
:106BC00002143091031430935D1420935C149BE005
:106BD00090935E14109263141092641491E0909359
:106BE000651490936614109267142FE338E3309382
:106BF0006A1420936914909368149081907892603D
:106C000090689083909109149093901420910514AA
:106C1000309106143093921420939114209107140C
:106C20003091081430939414209393149091041489
:106C30009093951490910A149093961492E09093E7
:106C4000971490910014909398149091011490933C
:106C5000991490919A14909378141092FB131092B7
:106C6000FC131092FD131092FE138093F41384E131
:106C700094E14ACEA4E0B0E0E0E4F6E30C944DF4F5
:106C8000182FBE016F5F7F4F8AE190E063DC209197
:106C9000F8043091F9044091FA045091FB04A12FBB
:106CA000B0E00E942FF409811A812B813C81600F92
:106CB000711F821F931F2496E4E00C9469F40F93D4
:106CC0001F93CF93DF93EC018C0107551109FC0151
:106CD0003C970190F081E02D6FEF818192810E94BD
:106CE000B788882361F0FE01329781E494E39183B1
:106CF000808323971882C8010E94849102C0CE012C
:106D0000C0DDDF91CF911F910F91089561EF73E185
:106D100080E191E01FDC62EF73E18EE092E0F8DB4E
:106D20008091F2139091F31320E03091F113231727
:106D300048F4FC0133E2239FE00DF11D1124108281
:106D40002F5FF3CF6AEE73E18FE091E003DC6FEE2B
:106D500073E18DE092E0DCDB2091EA13E091EF1328
:106D6000F091F01380E0821739F097819E7F97832E
:106D70008F5FE459FF4FF7CF9091F1139093EB138E
:106D8000823008F081508093EC131092ED13109232
:106D9000EE136CE974E188E291E0DCDB6AEF73E109
:106DA00089E291E0D7DB69EF73E188E191E0D2DB22
:106DB0008091F913882351F065EF73E18FE092E041
:106DC000A7DB62EB74E180E192E0A2DB3091F91382
:106DD0002091FA138091F5139091F613329F800D54
:106DE000911D11249093F8138093F7131092F413CC
:106DF000089564E175E082E192E08ADB63E175E089
:106E000087E191E0A7DB80911305E0911405F091F3
:106E10001505882349F0309739F489E294E490937A
:106E200069068093680647C99F0146E1849F200D4B
:106E3000311D1124C90128EAE817F90718F4258B38
:106E40007696FACF08951F93CF93DF93EC01162F18
:106E50000097B1F08D819E81892B91F083EE94E0B3
:106E600084D81F83ED81FE81CE010796199580910C
:106E7000E3049091E404892B59F080E0E6DB08C03C
:106E80008BE694E490936906809368062CD9E6CF4C
:106E9000DF91CF911F910895A1E1B0E0E2E5F7E322
:106EA0000C943FF48C01262E29873A874B875C8708
:106EB0000E944DDDE091FC0429853A854B855C8577
:106EC000EE2361F13090EA13C090FF04D0900005EA
:106ED000E0900105F09002052B013C014C185D0883
:106EE0006E087F084D825E826F827886E091EF1394
:106EF000F091F013198A66246A94762C4301698212
:106F00007A828B829C8246015701861A970AA80AC8
:106F1000B90A8D869E86AF86B88A0BC000E918E351
:106F2000A3C0A781A0FD09C0A989AF5FA98BE459BF
:106F3000FF4FB989B311F5CF40C0B085BF70B230F3
:106F400099F7AA7FA23081F783809480A580B680CC
:106F500081149104A104B10439F3E017F10721F37E
:106F60004D805E806F807884481459046A047B04E5
:106F700068F44D845E846F847888840C951CA61C0C
:106F8000B71C83829482A582B68204C013821482C5
:106F90001582168283809480A580B68049805A80AD
:106FA0006B807C8084149504A604B70408F0BCCFE1
:106FB00089829A82AB82BC82B7CF211046C0809072
:106FC000FB139090FC13A090FD13B090FE1381145E
:106FD0009104A104B104C9F12B013C014C185D08D6
:106FE0006E087F08481459046A047B0488F4C80CAE
:106FF000D91CEA1CFB1CC61AD70AE80AF90AC09277
:10700000FB13D092FC13E092FD13F092FE1308C024
:107010001092FB131092FC131092FD131092FE13AA
:107020008091FB139091FC13A091FD13B091FE137E
:1070300049805A806B807C8084159505A605B7052C
:1070400020F489839A83AB83BC8389819A81AB8145
:10705000BC81281739074A075B0710F4DA01C90118
:1070600000E918E39C01AD0161E08CEF94E094D954
:107070008CEF94E07ED96196E2E10C945BF4809110
:10708000F30481508093F3048091F413833009F466
:107090003CC0823039F082E594E490936906809395
:1070A000680621D8E0919B14EE2379F181E080936A
:1070B000F413A091D012B0E011972AE030E00E94C2
:1070C00029F49B01AC018091F4049091F504A09106
:1070D000F604B091F704280F391F4A1F5B1FA091D7
:1070E000CF12B0E00E942FF49B01AC016093FB1320
:1070F0007093FC138093FD139093FE13E150E09383
:107100009B1461E080E090E0C7CE1092F4131092DF
:10711000FB131092FC131092FD131092FE130895AE
:10712000A4E0B0E0E6E9F8E30C9447F42FEF3FEF7A
:10713000A90110E0AA24AA94B12C8091EA1318178F
:1071400008F054C0E091EF13F091F0138CE6189F13
:10715000E00DF11D1124678160FF46C07085872F07
:107160008F70823009F040C0862F8A7F8230E1F52F
:1071700083819481A581B681C0900305D0900405D8
:10718000E0900505F09006058C199D09AE09BF0930
:1071900083839483A583B6830097A105B105E9F4A1
:1071A000872F807F846080876E7F663059F4C501A9
:1071B0000090D01202C0880F991F0A94E2F78095C0
:1071C00080939F1481E029833A834B835C833DDA6B
:1071D00029813A814B815C8107C082179307A407FC
:1071E000B50710F49C01AD011F5FA7CF8091FB1381
:1071F0009091FC13A091FD13B091FE130097A1058F
:10720000B10551F1C0900305D0900405E09005054B
:10721000F09006058C199D09AE09BF098093FB13F8
:107220009093FC13A093FD13B093FE130097A10558
:10723000B10559F482E029833A834B835C83B6DC41
:1072400029813A814B815C8107C082179307A4078B
:10725000B50710F49C01AD012F3FEFEF3E074E073D
:107260005E0751F000E918E361E08CEF94E094D8F8
:107270008CEF94E07ED803C08CEF94E084D8249601
:10728000EAE00C9463F4A0E0B0E0E9E4F9E30C94E4
:1072900046F48C01962EC0911405D091150580916D
:1072A00013056E0196E1899FC00CD11C1124F801D1
:1072B0008589811109C07E01F6E1EF0EF11C5801AC
:1072C0008CE0A80EB11C09C085E294E432C08A3A71
:1072D00089F06696F6E1EF0EF11CF801CC15DD059C
:1072E00008F04AC0908521853285F7013197808169
:1072F000843A69F7F7013E9780819813EACF898530
:107300009A852817390729F748E050E0B801CE01DF
:107310000E9416F5892BE9F6F8018385F7013B9762
:1073200090818913D6CF813059F0833091F086E275
:1073300094E490936906809368060E945B301DC0B8
:10734000F801248535858C859D852817390709F630
:1073500017C0F8019489F701329780819813B9CF4B
:1073600048E050E0BE01645F7F4FC5010E9416F502
:10737000892B09F0AECF04C0958A80E090E001C06F
:10738000CE01CDB7DEB7EBE00C9462F4CF93DF9380
:10739000EC010097B1F18AEA8D8B0E94BB5148E065
:1073A00050E0BC01CE010E9416F5892B51F582E810
:1073B0008D8B888581508E3F20F58B858330C9F475
:1073C0008C8981508E3FE8F42C853D854E855F8504
:1073D000688979898A899B89A0E00E94AAF471F45E
:1073E00080E194E490936906809368060E945B3084
:1073F00008C0813019F086EA8D8B03C01D8A81E0B8
:1074000001C080E0DF91CF910895CF93DF93EC012D
:10741000009761F16FA74115510551F0FA014081C4
:1074200051816281738148AB59AB6AAB7BAB04C0BD
:1074300018AA19AA1AAA1BAAEDA5FEA5309749F405
:1074400084E594E490936906809368060E945B301B
:107450000DC0CE018F961995CE01DDD8882331F06D
:107460001092B1141092B01481E0EFD8DF91CF9157
:107470000895A1E0B0E0EFE3FAE30C944DF48C0141
:10748000FC01208131818091F2139091F313281730
:10749000390740F487E494E4909369068093680682
:1074A0000E947330F801808191812091F213309114
:1074B000F313821B930B63E270E00E94AFF38091A1
:1074C000EB13681750F088E494E490936906809376
:1074D000680669830E94733069818091F2139091EC
:1074E000F313F3E26F9F800D911D11242196E4E0C8
:1074F0000C9469F4A3E0B0E0E0E8FAE30C944DF4F6
:107500008C01675F7F4F7A836983BE016D5F7F4F18
:107510008DE090E01FD88B81D80197965C9197976A
:1075200040910A05882309F442C089819A81FC01AF
:10753000E95BFF4F21E0208357962D913C915897AE
:107540003196318320833296585F50839996ED911E
:10755000FC919A979C01255B3F4F3897D901ED9399
:10756000FC938FEF8183D80194968D919C91959790
:107570009383828392968D919C9193979583848334
:1075800096968C91868381E0840F80930A054783C9
:10759000D901ED91FC918081807888608F7780831C
:1075A000E981FA81EB5AFF4F81E494E344C0898179
:1075B0009A81FC01E95BFF4F22E0208331962DEF99
:1075C0003FEF318320833296575F5083D8019996DD
:1075D000ED91FC919A979C01255B3F4F3997D9011A
:1075E000ED93FC93D80157968D919C915897928377
:1075F000818394968D919C919597948383839296A1
:107600008D919C9193979683858396968C91878391
:1076100081E0840F80930A054087D901ED91FC91A8
:10762000808180788C608F778083E981FA81EB5A42
:10763000FF4F8FE596E391838083E981FA81D8013A
:107640009C968C919C97E15BFF4F8083E981FA8146
:10765000E05BFF4F8091CE128083E981FA81EF5A7F
:10766000FF4F9B968C918095881F8827881F808369
:10767000E981FA81EE5AFF4F81E08083E981FA8146
:10768000ED5AFF4F8083E981FA81EC5AFF4F8083E6
:1076900089819A8139D980E02396E4E00C9469F4D9
:1076A000DC01ED91FC919093B1148093B014109291
:1076B0009D1410929E148091CF128093A214209159
:1076C0009C1430E087A190A5B9010E94AFF3462F2A
:1076D0006093A01487A190A5B9010E94AFF3892BF4
:1076E00019F04F5F4093A0148FEF90E00090D012FC
:1076F00002C0880F991F0A94E2F780958E7F8093CD
:107700009F1480910A0591E0980F90930A05809349
:10771000A1140895A0E0B0E0E0E9FBE30C9446F486
:10772000EC016B01942E590100911405109115057F
:1077300080911305780196E1899FE00CF11C1124DA
:10774000209761F0C017D107F0F583E294E490939D
:107750006906809368060E94733035C0E801CE0147
:10776000801B910B66E170E00E94AFF3892B79F0EA
:1077700084E294E490936906809368060E947330D3
:1077800006C01D89143A39F01A3A29F06696CE15CA
:10779000DF05B8F313C088859812F8CF89859A85DC
:1077A000C816D90699F748E050E0B501CE010E940D
:1077B00016F5892B59F7143A49F703C080E090E099
:1077C00004C0CE0102C06696CACFCDB7DEB7EBE0EB
:1077D0000C9462F44F925F927F928F929F92AF923D
:1077E000BF92CF92DF92EF92FF920F931F93CF93AE
:1077F000DF931F92CDB7DEB72C017B010E94BB51F6
:107800006C0157018AE6A80EB11CF50100811181B7
:107810004114510431F0E114F10419F0C114D10400
:1078200051F484E194E490936906809368060E9481
:107830005B3088EA5EC058EAF20164A175A1960146
:1078400046A1C801598366DF8C015981009709F46C
:107850004FC0F20184899589892B19F5F801738449
:10786000F3E07F121EC048018CE0880E911CC40119
:107870000E943BC0892BA9F4F2017086D2011B96AD
:1078800088E0F40101900D928A95E1F78AE89CE383
:10789000F201958B848BC20106960E9435C080E070
:1078A00028C0F50111830083F80183858330B1F48A
:1078B000C8010C960E943BC0009711F459EABCCF56
:1078C000F8012489F20121A3FC0180819181F20158
:1078D000908F878BB701C2011ED80BC0F801848539
:1078E0009585F201908F878BB701C20103DE01C03D
:1078F000852F0F90DF91CF911F910F91FF90EF9007
:10790000DF90CF90BF90AF909F908F907F905F90CF
:107910004F900895FF920F931F93CF93DF938C01A5
:10792000035111092091EA13C091EF13D091F01384
:10793000F12CF216E9F08F8180FF16C088819981C1
:107940008017910789F4BE01C80144DF882381F0C4
:1079500040E050E0682FC80158DDCE010E943D3361
:1079600081E00E94253304C0F394C459DF4FE1CF76
:107970008091EA13F81640F085E194E4909369064B
:10798000809368060E947330CDB7DEB7E5E00C94B3
:1079900068F4EF92FF921F93CF93DF931F921F9291
:1079A000CDB7DEB77B010097A1F06115710589F0B5
:1079B000FC01158A148AF701E659FF4F11821082E3
:1079C000B70108DF182F882389F0C7010E943D33D3
:1079D0000DC023E134E4309369062093680689835F
:1079E0009A830E94733089819A81E2CF812F0F9010
:1079F0000F90DF91CF911F91FF90EF900895A1E03C
:107A0000B0E0E5E0FDE30C944BF48C01262FDC01A3
:107A1000ED90FC90009709F444C0E114F10409F4DE
:107A200040C02E3C61F0822F8F7D803D41F0213D92
:107A300011F082E005C0F70183A587FFFACF83E04C
:107A4000F801EB59FF4F4081518162817381D70169
:107A5000D0964D935D936D937C93D3979F962C9383
:107A6000833071F0D801ED91FC918689811108C0B5
:107A7000F701158A148AB801C701ACDE883AE1F42F
:107A8000A701405D5F4FD7019F966C91F8018081FF
:107A90009181BBDCC8010E943D3381E00E94253307
:107AA0000BC08FE494E49093690680936806298361
:107AB0000E9473302981B5CF2196E6E00C9467F4DB
:107AC000CF93DF93EC0162DC882309F454C060E0BB
:107AD000CE01D9DB892BC1F5209709F43EC08D89F1
:107AE00081113BC05091130520911405309115056B
:107AF00040E0451781F0C9012A5E3F4FF9013197F7
:107B00006081683A31F424EAFC01258B009731F456
:107B100032C04F5FEECF8EEA8D8B2DC0209719F0CB
:107B20003D89332349F087E294E49093690680937A
:107B300068060E945B301AC036E1FE01DC0101904C
:107B40000D923A95E1F706C066EACE019CDB0097FC
:107B500091F024EAFC01258B09C080E294E4909323
:107B60006906809368060E947330BCCF60E070E0C5
:107B700080E10E94B12EDF91CF910895CF93DF93E2
:107B8000EC010097D9F08091140590911505C81764
:107B9000D907A0F02091130536E1239F800D911D98
:107BA0001124C817D90750F48D89843A11F08A3A04
:107BB00071F488EA8D8BDF91CF91089581E294E48E
:107BC00090936906809368060E947330EDCF82E23D
:107BD00094E490936906809368060E947330E9CF1D
:107BE000CF93DF93EC01D2DB882359F064EACE0116
:107BF0004ADB009731F0C2DF60E070E080E10E9474
:107C0000B12EDF91CF910895209114053091150583
:107C1000009751F0FC0176968091130596E1899FBB
:107C2000200D311D112408C0F901F6CF8589843A51
:107C300049F08A3A39F07696E217F307B8F380E014
:107C400090E00895CF010895CF93DF93EC01BC013C
:107C500081E195E00E94F12F1D8A1C8A81E00E943B
:107C60002533DF91CF910895CF93DF93EC01BC01D1
:107C70008FE095E00E94F12F198A188A81E00E9416
:107C80002533DF91CF910895AAE0B0E0EAE4FEE366
:107C90000C9445F410911313BE01665F7F4F87E08B
:107CA00091E00E94AA32BE016F5F7F4F8AE190E0AF
:107CB0000E94AA32C980DA80EB80FC80812F90E09C
:107CC000A0E0B0E08C159D05AE05BF0578F0CC0CAA
:107CD000DD1CEE1CFF1CC982DA82EB82FC82BE0135
:107CE0006F5F7F4F8AE190E00E94E232C12ED12C7B
:107CF00087E0C80ED11CEE24D7FCE094FE2CC09285
:107D0000F804D092F904E092FA04F092FB042A8578
:107D100030E0A3E0B0E00E941AF49B01AC01C7017F
:107D2000B6010E9494F309811A812B813C81600F76
:107D3000711F821F931F6093F4047093F504809366
:107D4000F6049093F70481E08887BE01675F7F4F58
:107D500087E091E00E94AA32BE01685F7F4F84E213
:107D600090E00E94AA32898590E0A0E0B0E0880F00
:107D7000991FAA1FBB1F8F3F9105A105B10529F0CF
:107D800020F08FEF90E0A0E0B0E00E943A36E88566
:107D9000EE2309F45AC0812C912C54018B019C01D3
:107DA00001501E4F2F4F3F4F800E911EA21EB31E3B
:107DB000660F771F881F991FE15081F7188675019C
:107DC000640129E0F694E794D794C7942A95D1F7F3
:107DD000D501C4019170AA27BB2741E050E060E0C3
:107DE00070E0892B8A2B8B2B19F440E050E0BA010C
:107DF000C40ED51EE61EF71E1E821D821F82BE0106
:107E0000695F7F4F81E191E00E94AA32BE016B5F02
:107E10007F4F88E092E00E948832970186010F3FF1
:107E200011052105310529F020F00FEF10E020E0C9
:107E300030E06D817E81C12CEE24E39420E032E0BD
:107E40004F8185EE94E00E948B302A96ECE00C94F2
:107E500061F4882331F00E94FFF480930A051092A8
:107E6000F304109212051092110510921005109251
:107E70000F0510920E0510920D0510920C05109230
:107E80000B058AE090E0A0E0B0E08093A914909305
:107E9000AA14A093AB14B093AC148EEC95E390931A
:107EA000AF148093AE1481E08093AD14109201144E
:107EB00010920A141092FF131092061410920514D7
:107EC00010920014109204141092081410920714C7
:107ED0001092031410920214109209141092F413C9
:107EE0001092FB131092FC131092FD131092FE13CC
:107EF0008CE6EBE0F4E1DF011D928A95E9F783E27D
:107F0000E7E7F4E1DF011D928A95E9F78091FA1322
:107F100090E001962091F913289FA001299F500D10
:107F2000112460E070E08091F5139091F6130E94A7
:107F30003DF58FE894E19093601480935F14A4CE94
:107F40004F925F927F928F929F92AF92BF92CF9209
:107F5000DF92EF92FF920F931F93CF93DF931F92C5
:107F6000CDB7DEB77C01009781F02C0127E0421AE3
:107F700051088091E3049091E4048415950529F457
:107F8000D20112968C91893149F086E694E490935F
:107F90006906809368060E945B30CBC08091DF0445
:107FA0009091E0048115B7E09B0709F07FC0009134
:107FB0001105109112050115110551F081E195E0AF
:107FC0000E94B52F40E050E063EAC8011EDAEFCF0F
:107FD0006CE6C62ED12C7CE6772EE2E4AE2EE4E4ED
:107FE000BE2EF3E48F2EF4E49F2E00910D05109128
:107FF0000E050115110509F444C0B8018DE095E0A6
:108000000E94C12F8091EF139091F013F801E81BAB
:10801000F90BCF01B6010E94AFF38091EA13681704
:1080200040F0B0926906A092680669830E9473309E
:108030006981E091EF13F091F013679DE00DF11D60
:108040001124808191812781269530E021303105EE
:1080500061F02230310549F2232B61F4A8014B5F16
:108060005F4FD80112966C9103C040E050E067EA80
:10807000CCD9BBCF90926906809268060E9473307B
:10808000B4CF10E08091EA131817D8F48091EF1361
:108090009091F013BCE61B9F800D911D1124FC01F3
:1080A000278120FD0E943D331F5FECCF8115924058
:1080B00041F087E694E490936906809368060E94F5
:1080C00073301092E2041092E10481E0C2DE0E945B
:1080D00086360E94F93682E393E09093E004809321
:1080E000DF04D7018C91F201828783EE94E00E9435
:1080F000B52FD20118968D919C911997892B41F437
:1081000089E694E490936906809368060E94733030
:10811000D2011896ED91FC911997C7010396199514
:108120008091E3049091E404892B19F080E00E948F
:1081300025330F90DF91CF911F910F91FF90EF901A
:10814000DF90CF90BF90AF909F908F907F905F9087
:108150004F900895CF93DF93C091E304D091E4044E
:10816000209741F484E694E490936906809368062E
:108170000E9473308A818A38F9F0853C09F44FC037
:10818000893109F06CC08091DF049091E004803166
:10819000914019F480E092E002C080E097E0909373
:1081A000E0048093DF0480EA9FE39E838D83CE0109
:1081B00003960E9453A85BC08091DF049091E00475
:1081C000823323E0920719F08031964049F48FE31F
:1081D00094E09093E0048093DF0456DD1D8202C09A
:1081E00083EA8D8383EE94E00E94B52F8B819C817E
:1081F000892B41F48AE694E490936906809368069B
:108200000E947330EB81FC81CE0105961995809117
:10821000E3049091E404892B51F180E018C080912F
:10822000DF049091E0048F339440A1F480E095E066
:108230009093E0048093DF0482E090E09C838B8342
:108240008CEF94E00E94C3311092F30481E00E940D
:1082500025330DC063EACE010E94233708C085E6AE
:1082600094E490936906809368060E947330DF91CE
:10827000CF910895AAE0B0E0E0E4F1E40C944FF46B
:10828000DC011396ED91FC9114972181328140E439
:1082900050E05A834983AE01495F5F4F5C834B8353
:1082A00041E050E05E834D836F3FBFEF7B0719F4E1
:1082B00037FF15C003C02617370789F098878F83CB
:1082C0007A876987BE016F5F7F4F8EE10E94B12E72
:1082D00081E02D813E81232B19F080E001C081E0F7
:1082E0002A96E2E00C946BF4009729F48091F10453
:1082F0009091F2040895FC01808191810895CF93BB
:10830000C82FE0E0F0E0CF01EFDFFC01009739F08B
:10831000A381B4818C91C813F6CFCF0102C080E055
:1083200090E0CF910895CF93DF93EC010097D9F0BF
:1083300086EA8F83EB81FC813097A9F080819FEFE3
:10834000980F903F80F4DBDF892B69F421E08D8169
:108350009E81892B09F020E02A83BE0181EF94E001
:108360000E94F12F1F82DF91CF910895DF92EF924B
:10837000FF920F931F93CF93DF938C01009741F4EB
:1083800080E394E490936906809368060E947330BA
:10839000C0E0D0E0A1E3EA2EA4E4FA2ECE01A4DFEF
:1083A000EC01009789F18A818111F8CF8B819C8142
:1083B000892B31F4F0926906E09268060E947330CE
:1083C000F80160A171A1CE0155DF882339F3EB815B
:1083D000FC81D0806D2DF801878190850E94B7883F
:1083E0008823E1F2F801D18AED81FE81309749F4CA
:1083F00082E394E490936906809368060E945B3060
:1084000003C0C8011995CACFCDB7DEB7E7E00C9419
:1084100066F4A1E3B0E0EFE0F2E40C9445F48C01E3
:10842000B62EDC015A96ED90FC905B9755966D91B7
:108430007C915697F701478185EE94E00E94BD300C
:10844000882309F414C1D70111968C919FEF980FDE
:108450009E3F28F454DF6C01009719F408C1C12C29
:10846000D12CF801228983899489213009F022E0F6
:108470002F8399878887D70111968C918A8BF80171
:10848000858996890E943EC0FC01009799F083E09F
:108490008B8B7081618152814381348125819681EA
:1084A00087817E8B6F8B588F498F3A8F2B8F9C8F54
:1084B0008D8F02C082E08B8BD80155968D919C9157
:1084C00056979D8B8C8B57968D919C9158979F8F2B
:1084D0008E8FF701868188A3848195819AA389A3D1
:1084E000828193819CA38BA359968C9190E09C01EF
:1084F0002A5031093EA32DA319A6208127FD04C0CF
:108500009C012850310906C02085237029F49C0164
:10851000295031093EA32DA32DA13EA1821B930B0F
:10852000F801228D338D280F391F38A72FA3BAA643
:1085300082A18BA7848D8CA7468D578D60A171A1D8
:108540004DA75EA76FA778AB858D89ABD7018C91BE
:1085500087FF48C018968C918370823009F042C022
:10856000E091F713F091F813808190E09EA38DA322
:108570008080912CAA24A394B12C2091FF1330E089
:108580008091F5139091F613A216B3064CF5E09185
:10859000F713F091F813EA0DFB1D408150E0209194
:1085A000FA132A9DB0012B9D700D1124680F791FBD
:1085B000880D991D0E9423F5E091F713F091F813AF
:1085C000EA0DFB1D20818DA19EA1820F911D9EA30E
:1085D0008DA3BFEFAB1ABB0A8081880E911CCDCF53
:1085E00098A78FA3C114D10449F0D6011596ED9137
:1085F000FC911697CE010196199539C0F801828930
:10860000813021F4CE010196B1DE31C0D70111963F
:108610008C918F3F41F5E12CF12CC70165DE7C0187
:10862000009729F1D7011396ED91FC911497808161
:10863000882399F312968C918111EFCF69A17AA1C9
:10864000C70118DE882349F3D7011396ED91FC91F9
:10865000149780818A8B1596ED91FC911697CE0127
:1086600001961995DACFCE0101960E949FC7C801E5
:108670000E94A433E196ECE00C9461F4A1E0B0E038
:10868000E4E4F3E40C9447F45C01DC015A960D91A8
:108690001C915B97F80181812FEF280F2E3F80F40A
:1086A00029832DDE7C012981009751F0D801149691
:1086B0006D917C911597DEDD882309F405C105C015
:1086C0002E3F08F401C1E12CF12CF801808187FFD5
:1086D00004C09085937009F0F7C086FFF7C08C70D6
:1086E000883009F4F1C0D50155968D919C9156972B
:1086F000883FBFEF9B0708F0E7C0E114F10421F0C9
:10870000F70122812111E0C0D5015A960D911C91EB
:108710005B97F801208126FD02C090E0D2C0237053
:10872000213009F027E0F090EA13E091EF13F09187
:10873000F01330E0422F50E0B801640F751F3F1571
:10874000E9F0A781A530B1F4DF01AF5ABF4F0D901A
:10875000BC91A02D8A179B0769F4DF01AC5ABF4F6B
:10876000CD90DC90C40ED51EDB01EC90D601DC90E0
:10877000ED1499F23F5FE459FF4FE1CF82E0298386
:108780000E94BB332981009741F2FC01EC5AFF4F54
:108790000190F081E02DDF0158973FEA11963C935C
:1087A00011971396BC92AE92129762E0DC01A05B27
:1087B000BF4F6C93D50155964D915C915697DC0156
:1087C000AF5ABF4F11965C934E9317961C92119619
:1087D0001C9231E011963C9311963C9311961C9299
:1087E00041E454E3129611965C934E9311973C9397
:1087F00030813C7F32603083D8014C914C70337FA4
:10880000342B30834C914295417040FB34F93E7DCE
:108810003F7B30834C9147FB442740F940FB37F9BD
:1088200030834C9130E0DC01AD5ABF4F7D0144FFF5
:108830000DC0D5015A964D915C915B97420F531F25
:10884000DA012C912183F701608337C048E04C9313
:10885000D80116964C911697418312964D915C91D2
:1088600013975383428314964D915C9115975583CA
:10887000448311964C914683D5015A964D915C9153
:108880005B97420F531FDA012C912783D8012C915B
:1088900027FF13C018962C91237031F41086F7012E
:1088A00020812F5F208309C0D7012C912D5F2C934D
:1088B000D80118962C912370208709960E94843441
:1088C00091E081E08927A1C190E001C091E0F80129
:1088D000808187FF92C18085837009F48EC1D501A4
:1088E0005A960D911C915B9759968C91F801F184E1
:1088F0002091F913222309F487C196EFE92EE80E9F
:108900008091F413813009F456C030F0843008F0BF
:108910006BC180E494E46AC1D084B1E0DB1274C11D
:108920002F1508F471C18091FA138E1508F46CC1EB
:1089300090E00196289FA001299F500D112460E02E
:1089400070E08091F5139091F6130E943DF58FEA47
:1089500080939A14D092F413F092FF13F501858955
:1089600096899093031480930214D80111968C91E8
:1089700011978093041412968D919C911397909364
:1089800006148093051414968D919C9115979093DD
:1089900008148093071416968C91169780930914E7
:1089A00017968C9180930A148091CF1280939B1418
:1089B00010920014F12CF8018085982F937092305A
:1089C00011F0F11021C18C7F09F01EC18091FF13BD
:1089D0008F1508F419C12091021430910314D501A8
:1089E00055968D919C9156972817390709F00CC11F
:1089F00090910414F8018181981306C12091051407
:108A000030910614828193812817390709F0FCC040
:108A10002091071430910814848195812817390713
:108A200009F0F2C09091091486819813EDC09091DD
:108A30000A1487819813E8C0209100144091D01245
:108A40000F2D10E0822F90E0840F911D0817190759
:108A50000CF0DAC08F2D642F0E94A3F3D92EF216EA
:108A600068F48F2D891B8093001421E030E001C051
:108A7000220F4A95EAF72195209301142091FA13C9
:108A80008091F5139091F6134E2D50E0D5015A9632
:108A90006D917C915B97665F7F4FF29E800D911D7B
:108AA00011240E9423F5E091F713F091F813E00FE1
:108AB000F11FE082709100142091FF137F1111C00B
:108AC0009091D012822F8F19981708F4892F41E0C6
:108AD00050E0082E01C0440F0A94EAF741954093F4
:108AE000011441E050E00D2C01C0440F0A94EAF754
:108AF00060910114642B609301146F3F79F4FF249B
:108B0000FA94F70E822F90E04091D01250E0871B2C
:108B10009109481759070CF4CA01F80E8F2D90E0FF
:108B200030E0215031098217930751F46F3F21F44F
:108B300083E00E94D63563C082E00E94D63564C0CF
:108B4000A091D012B0E011979D01270F311D82171F
:108B5000930711F06F3F09F582E00E94D6358091AE
:108B600001148F3F09F050C08091D01290910014F1
:108B7000980F909300142091FF1321502F19821702
:108B800008F4282F81E090E0022E01C0880F0A949B
:108B9000EAF781958093011437C02AE030E00E9403
:108BA00029F49B01AC018091F4049091F504A0910B
:108BB000F604B091F704280F391F4A1F5B1FA091DC
:108BC000CF12B0E00E942FF49B01AC016093FB1325
:108BD0007093FC138093FD139093FE1361E080E08B
:108BE00090E00E944C3710C083E594E490936906AE
:108BF000809368060E94733007C0992329F06FEABA
:108C0000C50107DC80E001C081E02196EAE00C9418
:108C100063F4A7E3B0E0EFE0F6E40C943FF4A09037
:108C2000DF04B090E00420E1A21621E0B20609F4CE
:108C300069C12DE4222E24E4322E88248394912CC1
:108C40008DE095E00E94B52F7C01009709F45AC190
:108C50000091EF131091F013C701801B910B6CE68C
:108C600070E00E94AFF38091EA13681748F089E43E
:108C700094E490936906809368060E945B3042C139
:108C80003CE6639F000D111D1124D80117968C91AD
:108C9000B0E1AB16B6E0BB0621F0A114E5E0BE06DC
:108CA00099F58E7F843019F5C8018C5A9F4F0E9428
:108CB000393A6C01DC0111966C91119712968D91E5
:108CC0009C911397892B51F4EAE4F4E4F09369063C
:108CD000E09368066CAB0E9473306CA9D7011296C2
:108CE0008C91811104C0F6018281938192DBA701EE
:108CF0004B5F5F4F63EAD8018D919C910E94053ACA
:108D0000C7010E943D339CCF8695482E512CB1E07F
:108D10004B165104B1F054F4452809F0EAC0D701CC
:108D200012966C91C8010E94FF3C8ACFF2E04F1668
:108D3000510409F4BBC023E04216510409F47BC07E
:108D4000D8C0F80180858F70813009F079CF6080BC
:108D50007180D70119968C910E943A369B01AC0123
:108D6000C090CF12D12CF801808582958F70C81ADF
:108D7000D108D70112966C9161111EC02FAB3CAB8C
:108D80004DAB5EAB0E94FFF4FC01F170D20102C05A
:108D9000AA0FBB1FCA94E2F72FA93CA94DA95EA94F
:108DA0000E9439F46E0F7F1F811D911DF8016383AE
:108DB0007483858396832DC06E3C59F0603F49F0E3
:108DC000603D39F0613D91F4D3019B968C9187FF12
:108DD0000DC0A7014B5F5F4FC3010E94053AC70159
:108DE0000E943D3381E00E9425338CC00E94FFF435
:108DF0009170E8EEF3E002C0EE0FFF1FCA94E2F7B5
:108E00008E0F9F1FA0E0B0E0F80183839483A583B9
:108E1000B683D80118968C911897807F8260189637
:108E20008C93189713962D913D914D915C911697C7
:108E300060E0C80102C2F80180858F70813009F0BE
:108E4000FFCE20919D1430E08091A01490E0019716
:108E50002817390709F4B5C1E091D01270919F1419
:108E6000272F30E080E090E0682F8E1708F0A9C12E
:108E70000196A901062E02C0559547950A94E2F77E
:108E800040FFF2CFC401062E01C0880F0A94EAF712
:108E90008095872380939F1480919E14860F8093E2
:108EA0009D1483EA94E10E9451E1CACEC8018C5A14
:108EB0009F4F0E94393A8C01DC0111966C911197F9
:108EC00012968D919C911397892B41F430926906EB
:108ED000209268066CAB0E9473306CA9F801828105
:108EE000938197DAC7010E943D3381E00E942533C8
:108EF000A7CE2EE434E430936906209368060E94DE
:108F000073309ECE1BAA1AAAA4E74A2EA4E35A2EB7
:108F1000BFEA2B2E13E0312EAA24A394B12C662491
:108F20006A94712C95E4892E94E4992E8FE095E053
:108F30000E94B52F8C01C090DF04D090E004009710
:108F400061F1D80150968D919C915197892B09F030
:108F500077C15A96ED91FC915B9780818370813047
:108F600009F06EC18281853009F46AC155968D91F0
:108F70009C9156970E943EC0892B09F061C122E066
:108F8000F80124838589968996838583518A408A4E
:108F9000C80102960E9435C0C9CFC1FE11C050E57C
:108FA000C52E54E4D52E62E0462E72E1A72E74E45D
:108FB000B72EE8E05E2EFCE78F2EF4E39F2E3BC039
:108FC00000911105109112050115110509F458C001
:108FD000B80181E195E00E94C12F40E050E063EAD2
:108FE000C8010E94053AECCF8689833081F578016B
:108FF000F9E1EF0EF11CC7010E943BC0892B39F546
:10900000D8011B96F701852D01900D928A95E1F705
:10901000D80156968C91569718968C93189755961A
:109020009C928E925497C80106960E9435C081E1A9
:1090300095E00E94B52F00911105109112050115C0
:109040001105F1F0F80184899589892B69F28091E5
:10905000B0149091B114892B09F4BCC2C8010E94CC
:109060000B33882309F4B6C2C8010E940B3388234E
:1090700009F4B0C2F8010081118101151105A1F7B1
:109080008091DF049091E0048115B5E09B0721F009
:109090008031F6E09F0769F5F12C0EC02CE6F29EB8
:1090A00080011124E091EF13F091F013E00FF11F14
:1090B0008781833031F0F3948091EA13F81670F3CE
:1090C00020C080858F70843011F08230A1F740E09D
:1090D00050E063EA808191810E94053A8091EF130C
:1090E0009091F013800F911F805A9F4F0E943D3343
:1090F000E2CF8F33944029F4F12C8091EA13F816D3
:1091000048F08091DF049091E0048115954009F0CA
:109110007EC351C00091EF131091F0138CE6F89EBE
:10912000000D111D1124D80117968C91179780FFFF
:1091300040C018969C911897292F2F702430C9F59C
:10914000282F2A7F2230A9F5907F79F191609051E4
:1091500018969C938E7F823071F4C80109960E9404
:109160008434F801238134814581568160E0C8014F
:109170000E944C371EC08630E1F480919F148E7F90
:1091800080939F1480919E1480939D148091A214CB
:1091900081508093A214E091B014F091B114BF01FA
:1091A000808191810E948B3404C067EAC8010E94CB
:1091B000FF3CF394A2CF8091F304882309F4A8C262
:1091C00026C3F70181850E943A369B01AC01A0912C
:1091D000CF12F801808582958F70A81BC40102C050
:1091E000880F991FAA95E2F7DC010E9439F46B0100
:1091F0007C010091B0141091B1140E94FFF49170A1
:10920000C80ED91EE11CF11CD8011396CD92DD9237
:10921000ED92FC921697E091B014F091B114808514
:10922000807F826080878091B0149091B114FC019E
:10923000238134814581568160E00E944C3700CD06
:10924000D8015A96ED90FC905B97BFE3CB16B4E043
:10925000DB0669F0D7018C918370813041F0F80111
:1092600083A1811104C0C8010E94A433A4C1D70105
:109270004C91642F607446FF11C05091ED13209102
:10928000EA1330E08091EE1390E0850F911D821774
:1092900093074CF78091EB13581728F7242F2C7065
:1092A000243009F3662331F0842F83708230D9F2A1
:1092B00043FDD9CF45FDD7CFF801D288F1E0DF16C5
:1092C00071F032E0D312CFCF4370842F90E000973B
:1092D00021F0029709F47AC0C6CF2C3031F0C801D2
:1092E000CDD9882309F467C1BECFD80155966D91B9
:1092F0007C915697F701408585EE94E00E94BD3041
:10930000882309F4B0CFD80159968C91893008F49C
:10931000AACFB1E0BF83F7018181928199878887C5
:10932000D80155968D919C9156970E943EC0FC01A4
:10933000009791F03B8A7081618152814381348131
:109340002581968187817E8B6F8B588F498F3A8FCD
:109350002B8F9C8F8D8F01C0DB8AF80185899689C0
:109360009D8B8C8B8789908D9F8F8E8FD7011796C1
:109370008C91179788A315968D919C9116979AA317
:1093800089A313968D919C9114979CA38BA3818D97
:1093900090E009979EA38DA3828D938D099698A73F
:1093A0008FA319A62AA682A18BA7848D8CA7868D50
:1093B000978DA0A1B1A18DA79EA7AFA7B8AB858DB2
:1093C00089ABCE0101960E94B6414DCF423031F0BB
:1093D00090926906809268060E947330C090EF13E5
:1093E000D090F0138091EA13F6012CE6829FE00DF5
:1093F000F11D1124CF01C816D90608F034CFD601CB
:1094000017966C91179760FFD2C018962C911897F9
:109410002F70223009F0CBC0F601EC5AFF4F0190BB
:10942000F081E02D2D913C91D80155964D915C91A4
:109430005697D90157962D913C915897421753074B
:1094400009F0B5C0D70117963C91179727813213C1
:10945000AEC014964D915C911597248135814217C9
:10946000530709F0A4C012964D915C911397228185
:1094700033814217530709F09AC011963C91119716
:109480002681321394C016963C91218132138FC0ED
:109490006E7F623031F4F6018085807F8360808743
:1094A0003FC0663009F083C0D70119969C91199787
:1094B00080919E149813D7CE6091D012262F30E061
:1094C000C501062E01C0880F0A94EAF781951A9605
:1094D0009C911A97982B1A969C931A97F60180855F
:1094E000807F836080871A96EC91EF3F99F54091D9
:1094F000A01450E070919E14E70FCA01871B9109D8
:10950000281739070CF4C9018E0F80939D1490E041
:10951000415051098417950741F4C6010E94503B00
:1095200060E0C6010E94FF3C9ECE760F70939E14B1
:109530008091CF128093A21470939D14930102C066
:10954000220F331F6A95E2F7B90160956E7F609331
:109550009F1423C0E095E0939F1480E090E02E2FAD
:1095600030E0782F8617C8F40196A901072E02C0B3
:10957000559547950A94E2F740FFF3CFC501072EB2
:1095800001C0880F0A94EAF780958E2380939F1478
:1095900080919E14870F80939D14E091B014F091F8
:1095A000B114BF01808191810E948B345CCE3CE676
:1095B000C30ED11C20CFD8015C968C915C978AABEE
:1095C0005D968C918BABBE016E5C7F4F8BE30E94EE
:1095D000B12EACCCC8010E940B33882361F080917E
:1095E000B2149091B314892B09F4BDC0D8019B9695
:1095F0008C9182FFB8C0F80187A190A585369105AE
:1096000018F083A583FFB1C0D80196963C90332013
:1096100031F0832D0E947F41892B09F448C0F80165
:1096200083A52689382F347082FF0AC0223031F496
:109630008789908D883F9F4FD0F502C02130B9F1C6
:109640008EEF820F823038F4D80191968C91815F31
:109650008E3068F18CC021118AC0332309F487C091
:10966000F80164A075A087D67C01009719F080E00E
:1096700090E00CC0B0926906A09268060E945B3030
:1096800076C0DC011B962C91213089F09701432D87
:10969000B3010E948A3B0097A1F769C0813008F4AA
:1096A00075C0823009F49AC0833009F48AC026EA72
:1096B000E12CF12C612C712CB80181E195E02FABEC
:1096C0000E94C12F2FA921111CC0E114F10431F413
:1096D000D0926906C09268060E947330F30111832C
:1096E0000083C8010E940B33882319F0C3010E9434
:1096F000503BB301C801F7011995282F882309F4BD
:109700009ACC40E050E0622FC8010E94053A93CC09
:109710000091E3041091E404F8018281853C41F05A
:109720008DE694E490936906809368060E947330F6
:10973000D80113968D919C9114978D7F14969C93CC
:109740008E931397892B09F062C080E00E94293F15
:1097500080E196E09093E0048093DF0460E0C8012C
:109760000E94233754C02AEAA3CF20EAA1CFD80110
:1097700056968C91813009F091CF80E00E94BB33E6
:109780003C013AE7E32E3AE3F32E0DC0C8010E94F4
:109790000B33882371F083E00E94BB333C0149EC1A
:1097A000E42E4CE3F42E6114710409F469CC20E03A
:1097B00083CFF80183A582FF02C081E0EDCF80E076
:1097C000EBCFC80149960E943BC00097F1F0DC0145
:1097D0008D919C91F801908F878B468AC8010E94D9
:1097E0000B33882311F083E008C0D8019B968C913D
:1097F00082FF02C081E001C080E00E94BB333C01D7
:109800002BE8E22E24E3F22ECECF29EA51CFE796C1
:10981000E2E10C945BF4AFE1B0E0E1E1FCE40C9434
:109820004CF4009749F485E495E49093690680939D
:1098300068060E945B3082C0FC012081233009F061
:109840007DC0218132813A83298328E03396DE016D
:10985000139601900D922A95E1F7FC0123852B8741
:10986000248535853D872C8728E03E96DE011E96AF
:1098700001900D922A95E1F7FC01218D2D8F238D0A
:109880002E8F0789108DF688F6E0FF1508F056C078
:10989000F8018081982F9370933009F04FC0807E3B
:1098A00009F04CC08181811149C0BE01615E7F4FCA
:1098B00084E190E00E94AA32F80120812695269545
:1098C000277030E08F8D90E028173907B9F5828135
:1098D000982F9370933091F5982F907F79F58C7035
:1098E0008C3091F481E08B87F8E0FF1538F5F801B2
:1098F000838194819F878E876FEF0E94B78888232A
:10990000E9F0F80129E003C0F801329727E08581EA
:109910009681998F888F878190859F8B8E8BF21A85
:10992000FA8E020F111D1C8F0B8FE091EF04F09146
:10993000F004309719F0CE01019619956F96E5E085
:109940000C9468F480E191E09093E0048093DF044C
:109950001092E4041092E3041092E2041092E104E5
:109960001092F2041092F1040E9486360C9472A8B0
:10997000CF93DF93EC016DE472E085E20E94302F1B
:109980006DE472E088E30E94302F209749F480E66E
:1099900094E490936906809368060E945B3005C04A
:1099A00089E18A83CE010E944C34DF91CF910895E2
:1099B000009741F481E694E49093690680936806E9
:1099C0000C945B302AE8FC0122830C944C34009701
:1099D00041F482E694E490936906809368060C94BF
:1099E0005B3025ECFC0122830C944C34CF933091F6
:1099F000F1138091F2139091F31320E0231751F0AB
:109A00008396FC01B3974081442311F081E029C083
:109A10002F5FF4CFC0E08091EA13C817E0F40E94F2
:109A2000AB2E9CE6C99F900111244091EF135091F9
:109A3000F013FA01E20FF31F882341F0878180FFC2
:109A400008C080858F70823021F0E0CF878180FD53
:109A5000DDCFCF5FE0CF81E09091F413911101C091
:109A600080E0CF9108951F93CF93DF93EB01853270
:109A700039F41881BBDF91E09827912398831FC0A8
:109A80008833E9F438814091EA13E091EF13F091C3
:109A9000F01380E0841771F0278120FF07C09085C4
:109AA0009F70923019F42A7F223031F08F5FE45991
:109AB000FF4FF0CF80E001C081E0832B8883DF91EE
:109AC000CF911F910895FC01808184FD0C94F9369B
:109AD0000895A2E0B0E0EFE6FDE40C944FF4E091CD
:109AE000E104F091E2042F2F30E09E2F9F5F983029
:109AF00008F090E0692F70E0A901092E02C0569588
:109B000047950A94E2F740FF26C09093E10481E074
:109B100090E0062E01C0880F0A94EAF78F27809301
:109B2000E204660F771F6058744B42E050E0CE01AC
:109B300001960E940DF589819A81892B41F480E07C
:109B400094E490936906809368060E947330E981DB
:109B5000FA81199504C0E913C9CFE093E10480911B
:109B6000E204882361F02FB7F8948091DD0490918E
:109B7000DE0480629093DE048093DD042FBF229682
:109B8000E2E00C946BF480911B13853091F028F483
:109B9000882349F0823069F004C0843141F0863175
:109BA00041F080E00895809114138B3010F488E028
:109BB000089582E00895833014F083E01BC096E09E
:109BC000980F923010F48BEF15C098E0980F9230F8
:109BD00010F489EF0FC09AE0980F923010F487EFDD
:109BE00009C09EE0980F943010F484EF03C0823FC8
:109BF0000CF48FEE809319130895C5DF282F220FE0
:109C0000220F280F30E0A90160E8869F400D511D0A
:109C10001124CA01089580911B138530E9F028F4BE
:109C2000882349F0823079F004C0843189F086318C
:109C300089F080E0089580911413882349F08B30D7
:109C400058F489E1089580911413811105C002C070
:109C500082E3089588E2089580E10895CF93DF9329
:109C6000EC01D9DFE82F9E01A0ECB3E00E941AF4CA
:109C70009B01AC01AE2FB0E00E942FF428EE33E040
:109C800040E050E00E94D6F3CA01B901DF91CF91C4
:109C90000895CF93DF93B1DFEC01BDDF282F2C9F18
:109CA000C0012D9F900D1124BC0180E090E028EEB2
:109CB00033E040E050E00E94D6F32F5F209313136F
:109CC000DF91CF910895CF93DF938BE080931413AE
:109CD00080E098EFAFEFB7E08093151390931613E1
:109CE000A0931713B093181369E173E183E090E038
:109CF0000E94AA32809119135EDF69E173E183E06B
:109D000090E00E94E232C1E0C0931A1310921B133C
:109D100074DF90931D1380931C1335DF94E0899FAB
:109D2000800D112480931E132EDF80931F1386E372
:109D300090E0A0E0B0E08093E8129093E912A09345
:109D4000EA12B093EB121092EC121092ED12C09343
:109D5000EE121092F0121092EF121092F1120E9475
