S02B0000416C6C5F4D65676152665F41746D656761323536726672325F384D687A5F4763632F4578652F417000
S2840000000C9483260C9424F00C9450F00C947CF00C94A8F00C94D4F00C9400F10C942CF10C9458F10C94C0260C94C0260C94C0260C94C0260C9435EC0C94C0260C948BEC0C94C0260C94C0260C94C0260C94C0260C94C0260C94C0260C94C0260C94C0260C94FAF20C94EEEE0C9491EE0C94C0EE0C94C0260C948BF20C94EBF10C94C026FF
S2840000800C94C0260C94C0260C94C0260C94C0260C9488EF0C942BEF0C945AEF0C9484F10C94C0260C94C0260C947BDD0C94DEDF0C94C0260C94C0260C94C0260C94C0260C94C0260C94C0260C94C0260C94C0260C94C0260C94C0260C94C0260C94C0260C94C0260C94C0260C94C0260C94C0260C943AE00C94C0260C94C0260C9462E0AB
S2840001000C94C0260C94C0260C94C0260C94C0260C94C0260C94C0260C94C0260C948AE00C94C0260C94C0260C94C0260C94C0260C94C0260000000000000000000000000000000000000000000000000000000000000000000000000000000000000000000000000000000000000000000000000000000000000000000000000000000028
S2840001800000000000000000000000000000000000000000000000000000000000000000000000000000000000000000000000000000000000000000000000000000000000000000000000000000000000000000000000000000000000000000000000000000000000000000000000000000000000000000000000000000000000000000FA
S284000200000000000000000000000000000000000000000000000000000000000000000000000000000000000000000000000000000000000000000000000000000000000000000000000000000000000000000000000000000000000000000000000000000000000000000000000000000000000000000000000000000000000000000079
S2840002800000000000000000000000000000000000000000000000000000000000000000000000000000000000000000000000000000000000000000000000000000000000000000000000000000000000000000000000000000000000000000000000000000000000000000000000000000000000000000000000000000000000000000F9
S284000300000000000000000000000000000000000000000000000000000000000000000000000000000000000000000000000000000000000000000000000000000000000000000000000000000000000000000000000000000000000000000000000000000000000000000000000000000000000000000000000000000000000000000078
S284004400FB0E16001900EE0C030018002A08BD001700501301001600041408001500911301001400881302001300F41301002600971301001E00871301000F000E1401000E00F81301000D00001402000C00511301000B004B1302000A006E1311000900641301000800631301000700621301000600F51301000500FE1301000400F612A4
S284004480040003007F13080002004913010001002E1308000000704712002E00944715002D00BE4719002C00F04704002A00F84711002900FE4F234F3C503C503C50284F324F3C503C503A4F3F4F674F704F3C50754F7D4F874F3C50904F954F3C509E4FD94FEB4F3C50DE4FE64FFE4FFE4FFE4FF54FF54FF54FF54FF54FF54FF54FF54F21
S284004500F54FF54FF54FF54FF54FF54FF54FF54FF54FB14FF54F3C503C503C503C503C503C503C503C503C503C503C503C503C503C50F54FF04FFE4FF54FAB4F0050FE4F175025502C50FE4FFE4FFE4F98510551DA51DA51DA510B511051AE51DA511351165127512C51DA512F5132513551DA513A513D51AE5142518C51A151DA518F5131
S2840045809251095195519551AE51AE51AE51AE51AE51AE51AE51AE51AE51AE51AE51AE51AE51AE51AE51AE51AE517251AE51DA51DA51DA51DA51DA51DA51DA51DA51DA51DA51DA51DA51DA51DA51AE51A451A751AE516A51B651BF51B951BC51DA51CD51D251D851DF52E152EC52E352E552E752E952BE52EF52F152BE52F45249534C5392
S2840046005053535357535B535E5362536253A457E257E257E257AB57C857B957C057F357B257CF57CF57D657E257EA57EE574E58515854585458565860585A585D586D5858586358655867586A58565A595A7A5A5C5A605A7A5A645A7A5A6F5A725A785AE15D8E5E9D5E9C5DE45EE45E995E9D5EA25ED05EB95EE45EE45ED05ECF5DD25EC3
S284004680D696DE96F59667976797BE96CB966797679767971597249741974D976797BB96E9968796549B549B7D9A859A859A929A929AAF9AAF9AAF9A0D9B0D9B0D9BA89B549B35A987A95BA95FA95FA95FA95FA95FA963A963A9D2BBD5BB76BC76BCDABB76BCE4BBCDBCCDBCCDBCCDBCCDBCCDBCCDBCCDBCCDBC76BC76BCCDBCCDBBDFBBE8
S28400470076BC23C771C771C771C771C771C760C74AC768C771C75AC771C764C76CC746C921CAFFCA2ACB69CB95CCDECC01D301D301D301D301D301D301D301D301D315CC23CC01D301D34ACCE0CAF8D400D512D51BD51DD51FD521D524D5F7D56FD66FD61DD626D636D63FD642D645D648D64ED600000100020003000400050006000700C3
S284004780080009000A000B000C000D000E000F001E00180000000100020003000400050006000700080009000A000B000C000D000E000F001E00130014001500160000000100020003000400050006000700080009000A000B000C000D000E000F001E0013001400150016001700180019002600130014001500160000000100020003008C
S2840048000400050006000700080009000A000B000C000D000E000F001E00930600002A08000084070000E70800001E08000000000000110900007B0E0000D30E0000250C0000770C0000410C0000AE0C0000F10C0000350E00000000000000000000EE0C0000FB0E00000000000000000000000000000000000000000000000000000000B6
S284004880000000000000000000000000000000000000000000000000000000000000110F0000390F0000180700006A4A02006E4A0100714A01006F4A0200744A0100754A0100764A0100774A0100784A0100794A01007A4A0200724A02007C4A01007D4A0100964A0200874A0100884A0100894A0100924A04007E4A01007F4A0400834A0C
S2840049000100844A01008E4A01008F4A0100904A0200000000000000000000000000000000000000000000000000000000000000000000000000000000000000000000000000854A0100864A0100984A0100994A01009A4A01009B4A0100000000008A4A04006C4A02002E130800381301004513040049130100FC130100FD130100041489
S2840049800800001402008813020091130100F81301000E140100FE1301004D1301004E1301004F130100501301004B1302005113010052130100FA130100F9130100091301000A1301007F130800F6120400651304005A1304005E1304006213010063130100641301006E131100F5130100691301006A130400F41201000B13020087133F
S284004A0001004A1301000000000000000000F51201000000000000000000000000000000000000000000000000000000000000000000000000000000000000000000531305005813010059130100000000000000000000000000000000000000000000000000000000003913010085006C0001000007050007040205040204000308FF1401
S284004A800000000108030303020A901A00000100000000000203141061620003001E000003013412000303000002000000000003031027000010270000010001E803000004E80300001041746D656C2020202020202020202020FECAAAAAAAAAAA1A000203010080000000000000000000000000000000000005FF00000000000000000018
S284004B000000000000000000000000000000000000000000000000000000000000000000000000000000000000000000000000000000000000000000000000000000000000000000000000000000000000000000000000000000000000000000000000000000000000000002010002020508080000FFFF34120000000000000000020201CB
S284004B80CE402D4600000000000000000000000002187DF67701075898AC7201015898AC720101D77C019001015C7C609F01015C7C2F9F0107117C9C720101B97B808501010000000001070000000001010000000001030000966A01040000966A010500000000010600000000010D00000000010158980000000100000000010E0000008E
S284004C0000010700000000010A00000000010000000000010100000000010100000000000000008376000900008376000C00008376000000008376001A79EC7E1796BDA823754D9C2F7AD57AA9739281D787BC76899FB6792874177300000000E1725A81000000004B685B6BE168B668DA68000052686068CF685968516B09684D6A546AEE
S284004C80C36A456AE8680000AB6B02010203030202010101010101010101020201010102010202020202020102020202020201030302020312A73E9DF595719E000074A5F48E0DAA00000000D0B66ABBF5C43BBE11D3D4C3F0E1F0E1F0E1F0E162E326E180F306EC8FDECDDDA0EA3BED44EA91E80CE7F1E143E36FE482E241E36DE480E2EF
S284004D00030405060700112480917118823159F084B780FD04C08F718093711807C081E08093711803C081E18093711814BE809160008861809360001092600011241FBECFEFD1E8DEBFCDBF00E00CBF13E0A0E0B2E0E4E9FBEE01E00BBF02C007900D92AA31B107D9F728E1AAE1B3E001C01D92A137B207E1F70E94B0310E94C631FDCF06
S284004D800C9400007F937FB7F8949D9AA5988AEF4DD08AEF4BD09D9886E448D081E0959980E08F9380EF42D08F917FBF7F9108957F937FB7F8949D9AA59886E037D09D988AE034D0889495990894881F8F9384E62DD08F917FBF7F9108959F937F9398E0E7DF879577959A959923D1F7872F7F919F9108957F937FB7F894A5989D9A8F9375
S284004E0086E014D08F91879508F49D988F9384E60DD08F919D987FBF7F9108959F9398E0E9DF9A959923E1F79F91089500000000000000008A958823C9F708955F937F937FB7F894CF93DF93C0E0D0E07F935091B2007091B2007517E1F3739521965091B2005717D9F77F91CE01DF91CF917FBF7F915F910895089584E08093B3032FB738
S284004E80F8948091020590910305906190930305809302052FBF0895CF93DF93EC018BE096E00E9475E16CA18EA19FA145D262E082ED92E041D2DF91CF910895EF920F938091590624E6829FC001112462E970E00E9449F49B01442737FD4095542F283331054105510510F4739A01C0739888E0E82E0FE06BE180E192E052D2809124029D
S284004F00809339038091250280933A038091260280933B030F91EF900895482F50E067E473E085E693E00E9465E580E00C9410320895FC018081811113C08DED95E00E9475E185E08093B3032FB7F8948091020590910305906190930305809302052FBF0895FC018785811117C062EB73E081E290E00E94CE326DE087EC92E0DDD12FB7E8
S284004F80F8948091020590910305906190930305809302052FBF089585E48093420382E780934303809344039FE690934503809346030895CF938091B303823009F494C098F4882321F1813009F0EBC081EB97E29093B1038093B0038AE993E00E941CC482E08093B303DDC0833009F4A3C0843009F0D7C061E080E092E00E942EEA83E451
S2840050008093380385E296E00E94483ECAC065D184EF91E0A0E0B0E08093110690931206A0931306B0931406C1E0C09315068BE397E2909317068093160680ED97E0A0E0B0E080931E0690931F06A0932006B0932106109222068CE397E290932406809323060E941C3288EC809370031092710389E190E09093730380937203109275032B
S28400508086E080937403109276031092850386E593E090937A03809379038FE090E090937C0380937B038DE897E2909382038093810310927E0310927D031092800310927F03109284031092830385E693E00E9479E484B18E6084B980E092E00E9404EA6B9AC093B30351C081E090E090939203809391039093900380938F0380938E035E
S28400510080919303807F8160809393038EE893E090938A03809389038CE497E290938C0380938B0386E893E00E94B74185E08093B3032BC081E090E0909348068093470682E080933B0610923D0610923C0621E02093460688E393E090934F0680934E068FE090E090934D0680934C0620934B0689E997E2909353068093520685E080930C
S284005180B30388E196E00E9475E12FB7F8948091020590910305906190930305809302052FBFCF9108950895089508950895CF92DF92FF920F931F93CF93DF93E42FF0E0F090B0042AEF30E02F1931092E173F0734F15091AF0420E030E0EC01C60FD11D0AEF10E02E173F07ACF4852F90E0BC016C547C4F6B01BE01620F731FDB015C910D
S284005200D6015C932F5F3F4F0196B8010E9449F4582FE8CF5093AF04F40EF092B004DF91CF911F910F91FF90DF90CF9008951F93CF93DF931092E3041092E4041091B004112309F446C08091AE04E1EBF4E01333E0F4212F30E0CAEFD0E0AF01415B5440421753075CF490E0DC01AC54BC4F4C9141930196BE010E9449F4EFCF8093AE04E3
S2840052801093E3041092B00418C02AEF30E090E0DC01AC54BC4F4C9141930196B9010E9449F494E0E33EF90791F78093AE0482E38093E30412531093B00481E08093E4044091E30450E061EB74E08AEE95E00E94D8E4DF91CF911F91089588EC8093F5051092F60589E190E09093F8058093F70586E08093F9051092FA051092FB051092C3
S2840053000A061092FF051092FE0510920106109200061092030610920206109205061092040687E199E290930906809308068AEE95E00C9479E40895462F2091E404222319F060E034CF0895FC01A1EBB4E0633370F4862F90E09D01215B3440281739071CF421912D93F7CF4093E3040CC021912D9324E0A33EB207D1F722E32093E30447
S284005380425362E314DF81E08093E4044091E30450E061EB74E08AEE95E00C94D8E40895A0E0B0E0E6EDF9E20C94CBF4F12CF701E00FF11DC62FD0E0CE17DF07ECF0C0E0D0E08C010E0F1F1F6AE0862E912CA12CB12C2197F701EC0FFD1F319669F06801CC0EDD1EB901CA01A50194010E945CF4605DF6016083EDCFCDB7DEB7ECE00C944A
S284005400E7F4A2E0B0E0E7E0FAE20C94CDF46C0100915A0610915B06E12CF12C80915E0690915F06E816F906A8F45801B8016C5F7F4F42E050E0CE0101960E9493F50A5F1F4F29813A812C153D0539F08FEFE81AF80AE4CF80E090E001C0C5012296EAE00C94E9F4ADE0B0E0E8E3FAE20C94CFF47C016B0123E0969587952A95E1F7FC012A
S284005480E65AF94F228D30E0B70167707727062E02C0369527950A94E2F78E010F5F1F4F20FF42C027E0E4E7F6E0D80101900D922A95E1F7A0E020E030E04A2F50E048175907D8F4F801E40FF51F4081542F569555754575540F452F4695469543735373450F4083E42FEF7042954F7050E04E0F511D240F351FAF5FE0CFE0E0D801A80F3D
S284005500B91F4E2F50E04617570780F44C9150E00E2E02C0569547950A94E2F741705527240F351FEF5FEDCF2FEF3FEF1B870A8746E0429FC001439F900D112404969987888786E090E09D878C8764EE7BE2CE01089672D18D819E81E816F90639F084E090EA90938E0680938D06E1D589819A81F601918380832D96E8E00C94EBF4A6E034
S284005580B0E0E5ECFAE20C94D1F47C018B0180E090E0FC0133E0F695E7953A95E1F7EE0DFF1D6081AC0147705527262F30E0042E02C0369527950A94E2F720FF0DC021E030E001C0220F4A95EAF720952623208318DF009731F431C0019683339105C9F62CC046E050E0BC01CE0101960E9493F589819A81F80193838283B8018D819E81FA
S28400560031DFF801808191810596918380838B819C819583848382819381892B39F480E090EA90938E0680938D0681D58D819E81F7019087878381E006C08FEF9FEFF7019087878380E02696E6E00C94EDF4A8E0B0E0EDE2FBE20C94CBF47C01A0905C06B0905D06FC01868182FD09C000E010E0812C76E0972ECC24C394D12C0CC047E0A5
S28400568050E06FEF70E0C7010E94C3F56DC0882483940F5F1F4F80916006909161060817190708F05BC0909EB001919E700D11246A0D7B1D46E050E0CE0101960E9493F52D813E81F90163E0F695E7956A95E1F7EE0DFF1D408127703327842F90E0022E02C0969587950A94E2F780FFD2CFC60102C0880F991F2A95E2F79C012095242386
S2840057002083812C882D90E02B813C818217930708F0BDCF880F991F69817A81680F791F42E050E0CE0107960E9493F58F819885FC0153E0F695E7955A95E1F7EE0DFF1D87709927960102C0220F331F8A95E2F7C9019081982B90838394D4CF882021F000E010E0812C97CF2896ECE00C94E7F4CF93DF93EC018FEF9FEF98878F8387E026
S284005780FB01DE0101900D928A95E1F7CE015FDFE4E7F6E0919188818923899386E0EB37F807C1F7DF91CF9108958091880690918906A7C208951092850685ED9BE2909387068093860608950895EDE6F6E0DC013D91CD012081232B2193B6E0E437FB07B1F780918A06846080938A0608950E948AE8882311F0DFD5FACF0895A2E0B0E08A
S284005800E4E0FCE20C94D3F48B0189839A83EFDFB80189819A810E94ADE7019631F08BE2043E180721F4E3DF02C081E001C080E02296E4E00C94EFF4A2E0B0E0E2E2FCE20C94D3F48B0189839A83D1DFB80189819A810E943AE7019631F08BE2043E180721F4C5DF02C081E001C080E02296E4E00C94EFF4A2E1B0E0E0E4FCE20C94C8F42F
S28400588080918A06982F926090938A0682FF0AC06DE676E085EE94E06BDF80918A068B7F80938A06CC24C394D12C7E013DE0E30EF11C55E0A52EB12C4E0182E1880E911CBE01695F7F4F85EE94E059DE882309F462C06090EC047090ED04F30163E0F695E7956A95E1F7E65AF94FC30187709927960102C0220F331F8A95E2F7C901809592
S28400590093898923838BFC82EB82BE82AD828F81988505979A83898364EE7BE2CE0101968BDF4B855C8569857A8580E05ED0582E8D8558123AC08889998968167906A9F52B853C858E859F852817390771F59C828B82DE82CD8200E010E02B853C850217130708F0ADCF2F813885200F311F3A83298364EE7BE2CE0101965EDFAB81BC812C
S284005980E985FA85E00FF11F9C91808198130DC00F5F1F4FE2CF80918A068D7F80938A0660E070E08FE001D21CC05D86798A688A8B859C859F878E87FC82EB8285E090E09E838D838F81988505979A8389836AE37CE2CE01079612DF64EE7BE2CE0101960DDF6296EFE00C94E4F4FB01460F571FE417F50719F09191890FFACF08954F924E
S284005A005F927F928F929F92AF92BF92CF92DF92EF92FF920F931F93CF93DF93CDB7DEB762970FB6F894DEBF0FBECDBF80E094E490935B0680935A0686E994E490935D0680935C0606E914E400501444C80166E070E00E9435F4892B39F080E290EA90938E0680938D0663D326E030E0C801B9010E9435F440915E0650915F06642B752B12
S284005A8070935F0660935E0604EB14E406591444C801B9010E9435F4892B39F081E290EA90938E0680938D0642D3C80166E070E00E9435F48091600690916106682B792B709361066093600600915A0610915B061092620610926306109264061092650687E0E4E7F6E0DF011D928A95E9F7D12CEE24E394F12C80915E0690915F062D2DF8
S284005B0030E028173907C8F546E050E0B801CE0101960E9493F52B813C812B5F3F4F8091620690916306A0916406B0916506820F931FA11DB11D8093620690936306A0936406B09365068D819E81FC0133E0F695E7953A95E1F7E65AF94F87709927970102C0220F331F8A95E2F7C901928D982B928F0A5F1F4FD394BECF26E0289F600184
S284005B80299FD00C112434E0C30ED11CE12CF12CCE010796988B8F8786E090E09A8B898BA12CB12C00E010E096E0792E22E2822E20EA922EF80183E0F695E7958A95E1F7E65AF94F828D90E098012770332702C0969587952A95E2F780FF41C07A9CC0017B9C900D112404969E878D8764EE7BE2CE010D9621DE8B859C858017910749F4A6
S284005C008F819885A985BA858C159D05AE05BF0559F01C870B87CF82D886E986FA8664EE7BE2CE010D96EADDC801EBDB2C01009729F490928E0680928D0679D246E050E0B201CE0101960E9493F58B819C810596C80ED91EE11CF11C8FEFA81AB80A0F5F1F4F0333110509F0A5CFA5DD62960FB6F894DEBF0FBECDBFDF91CF911F910F9105
S284005C80FF90EF90DF90CF90BF90AF909F908F907F905F904F90089520E0FC013191CF01311105C02F5F2730C1F780E0089581E0089527E0FB0111922A95E9F7FC0123E0F695E7952A95E1F7E60FF71F8770992721E030E001C0220F8A95EAF78081822B8083CB01B4CC0895A4E7B6E0FC013D9120812323219326E0AB37B207C1F7CCCF82
S284005D000895A7E0B0E0E7E8FEE20C94D4F4BE016F5F7F4FCEDFCE010196E6DFCE010196BBDF182F882339F0CE0101964EDD80918A0681FF9FDD812F2796E3E00C94F0F408950895A2E0B0E0E8EAFEE20C94D5F48091EE048823E9F0BE016F5F7F4F81E290E01CD4BE016E5F7F4F8DE190E016D48981823071F48A8181110BC081EA9EE281
S284005D809093F7048093F6048FEE94E00E94C3C002C00E94E2DE2296E2E00C94F1F48091EE0408950C94C9EA0895A0E0B0E0EBEDFEE20C94CDF4B82E7B01082F10E093E0169507959A95E1F78770C1E0D0E001C0CC0F8A95EAF7AC2E8FE38B1538F484E090E890938E0680938D06A1D1F801E850FB4F80818C2311F1C0910005D0910105A6
S284005E0085E0C82E80E8D82E2097C1F0FE01E00FF11F82818A2171F02A853B85232B29F4D0928E06C0928D0682D1EA85FB85B7018B2D19950990D881C02DE6CFCDB7DEB7EAE00C94E9F4E82FF0E023E0F695E7952A95E1F7E850FB4F208130E0877041E050E002C0440F551F8A95E2F72423352381E0232B09F480E00895282F30E043E080
S284005E80369527954A95E1F7620F731F877021E030E001C0220F8A95EAF7FB019281922381E009F480E008951F93CF93DF93182FEB01803438F023E030E830938E0620938D0635D1BE01812FD8DF81112AC0BE0180E095E09AD081110BC088E0FE013296DF011D928A95E9F7BE0180E095E09DD0412F50E063E0569547956A95E1F717702D
S284005F0021E030E001C0220F1A95EAF7C40FD51F8A81822B8A83FA01E850FB4F8081822B8083DF91CF911F9108951F93CF93DF93182FEB01803438F023E030E830938E0620938D06F4D0BE01812F97DF882369F1212F30E073E0369527957A95E1F7177041E050E0012E01C0440F0A94EAF7942F9095C20FD31F8A8189238A83E091000517
S284005F80F0910105309759F0DF01A20FB31F12968C91842351F40190F081E02DF3CFF901E850FB4F808189238083DF91CF911F910895DC01ED91FC911197309721F0208131812D933C93CF01089561157105A1F0DC01ED91FC911197E617F70759F4208131812D933C930FC0808191818617970729F0FC013097C1F780E00895DB018D9140
S2840060009C919183808381E00895DC01ED91FC91309739F0E617F70731F00190F081E02DF7CF80E0089581E008950F931F93CF93DF938C01EB01E9DF882349F080E090E890938E0680938D065AD080E014C019821882D801ED91FC911197309719F4CD93DC9308C080819181009711F0FC01FACFD183C08381E0DF91CF911F910F910895E3
S284006080CF93DF93FC0182819381009781F40E94C9E1C22FD32F0E94DF5144E0FC0121913191CF01C227D3274150C1F7CE010E9488F581E0809336028EE392E00E9475E1DF91CF91089580E392E00C945052089580913602882369F08EE392E00E94A5E180E490E390933D0280933C0210923602EACF08958EE392E00C94A5E1089582E055
S28400610090E09093900680938F0680918D0690918E069093920680939106E0918B06F0918C06309719F08FE896E01995089583E090E09093900680938F0680918D0690918E069093920680939106E0918B06F0918C06309719F08FE896E019950895EF920F93FC01618372834F3740F081E090E890938E0680938D06C2DF20C0403808F089
S2840061804FE7440F808181700187842BE0FA80F9808334832383CB01AC016081669504962181328174E0679F200D311D11244217530720F4DC0111971C92EECF0F91EF900895A0E0B0E0E7EEF0E30C94CEF4EC018B01B42E0E94C9E169017A018D819E81AF81B885A7019601281B390B4A0B5B0BCA01B9012B813C8140E050E00E945CF483
S2840062002F3F31054105510518F42223F9F001C02FEF89819A81BC0138813695049649815A81E4E03E9F400D511D11246417750748F4FC013291432F231708F4422F341B3083E9CFCD82DE82EF82F886A981BA814881842F86959D0154E0859F200D311D1124C901E0E0F0E0A817B907C0F413965C911397552359F02D913C91119720178C
S284006280310729F412962C9112972B15C1F0309719F02381521708F4FD011496E5CF40FD06C0309771F0838181110BC002C0309751F011830083B2828985838304C080E003C082E001C081E0CDB7DEB7E9E00C94EAF4FECE08950895CF93DF9360914B0270914C0280E090E0E1E0F0E09F01082E02C0220F331F0A94E2F74091020550917D
S28400630003054623572342235323452B11F16FB7F8944091020550910305209530952423352330930305209302056FBFFC01EE0FFF1FEB52FD4FC081D181209739F486E090E890938E0680938D06F1DEFE01199504C001968E30910549F6DF91CF9108950E946DDF0E9421B1882371F02FB7F8948091020590910305806190930305809337
S28400638002052FBF81E0089582E00895A5DF60E070E08BE20ADD8091020590910305892B09F4D0DC209102053091030581E0232B09F480E0089590CF0895FC012081211105C021E02193CF010C9475E10895FC012081213021F41192CF010C94A5E10895A5E0B0E0E6EFF1E30C94D1F47C012A833B834C835D836983EADFF70110826981B0
S28400640063872A813B814C815D812783308741875287158704872596E6E00C94EDF40895813031F018F0823029F008952F9808952E9808952C980895279A269A249A2F9881E0EEDF82E0ECDF80E0089588E3EDE0F3E1DF011D928A95E9F7EEE2F3E181E080839AE0918312821382148285831682178285E08093381347E850E069EF7AE48B
S28400648088E893E10E9493F547E150E062EE7AE486EF92E10E9493F543E050E06FED7AE483EF92E10E9493F543E450E06CE97AE485E493E10E9493F580E69CE0E3E9F6E0DF019C011D9221503040E1F70895A4E0B0E0EDE6F2E30C94D5F4BC011A8219821C821B828827811521E0920769F0811522E09207B9F0892BE9F4660F771F660FC7
S284006500771F6A59764B07C07727660F771F660F771F6655774B44E050E0CE0101960E9493F50FC07727660F771F660F771F665E774BF1CF8AE090E690938E0680938D06F6DD69817A818B819C812496E2E00C94F1F47CDF54CA0895A4E0B0E0E2EBF2E30C94D1F47C018B01B2DFEE24E11422E0F20669F026E030E630938E0620938D065A
S28400658069837A838B839C83D2DD7A816981F801718360832496E6E00C94EDF4A4E0B0E0E4EDF2E30C94D1F48C017B0190DFE114F10479F420E030E630938E0620938D0669837A838B839C83B2DD9C818B817A81698100270115110549F0011521E0120751F4AC01C7010E9493F50CC0AC01C7010E94A9F507C081E090E690938E0680933E
S2840066008D0695DD2496E6E00C94EDF4A0E0B0E0ECE0F3E30C94CFF48C01EB0158DF6B017C01209739F484E090E690938E0680938D067DDD00270115110539F085E090E690938E0680938D0672DDA701BE01C6010E94A9F5CDB7DEB7E8E00C94EBF4FC0193A5892F887090FF09C0882379F081E027A130A52236310550F408C0882331F066
S28400668081E027A130A52436310508F480E08170089521E030E001C0220F8A95EAF780910705822B809307052FB7F8948091020590910305806290930305809302052FBF0895CF93DF93E0911414F09115148E179F0718F482E894E446C08E1B9F0B6CE670E00E9435F480910F14681718F083E894E439C08CE6689FE00DF11D112487816E
S284006700869590E08230910559F014F00397D1F5809113148823B1F181508093131432C080911214882319F0815080931214DF01AC5ABF4FCD91DC912091171430911814CE01821B930B63E270E00E9435F4C217D30718F484E894E406C080911014681740F085E894E490938E0680938D06C7DC0CC0D90183E2689FA00DB11D11248C911A
S28400678081111C9287818E7F8783DF91CF910895CF93DF93EC011EA28CA19DA1892B39F484E494E490938E0680938D06C0DCECA1FDA1CE0186961995DF91CF910895EF92FF920F931F93CF93DF93A0910F14409114145091151420E030E090E09A1709F45AC0FA01E20FF31FB90164597F4FB781B0FD63C07F0194E5E90EF11CD7011D9249
S2840068001C928230B1F010F08330F1F59091131440911114941708F03EC09F5F90931314138214821582168290859F709087128235C01091121490911014191760F500911614409117145091181490E09017B9F0EA014D5D5F4FBA0163527109DB016C9161110BC01F5F1093121441E048836896D701CD93DC93428302C09F5FE7CF4091F8
S284006880161449130BC007C081E894E490938E0680938D064CDC80E090E012C09085907F9087880F81608783118210828091141490911514820F931F03C09F5F9B018ECFCDB7DEB7E6E00C94EDF420911805215020931805BC0182E395E0A7DB81E0D9CE0F931F93CF93DF938C01C0910805D0910905809104059091050580519140813F58
S284006900954048F4B80188E095E08FDBCD2B59F480E0BFDE08C083E694E490938E0680938D0605DCEFCFDF91CF911F910F910895BC016F50710984E395E077DB81E0A9CEBC016351710986E395E06FDB81E0A1CE209118052F5F209318050C94B8916F927F929F92AF92BF92CF92DF92EF92FF920F931F93CF93DF931F92CDB7DEB78C0131
S2840069807B01FB01E25AFF4F85E694E3918380833E9782E08083D80157968D919C9158973196918380839C968C919C97379680833196108231969B968C919B978095881F8827881F8083319681E08083319680839B968C919B9786FD0BC021E057968D919C915897883F9F4F08F020E0822F01C081E0F701E35AFF4F81708083C8012FDEC0
S284006A00F701ED5AFF4F6F0197012C5A3F4F3901882309F442C09090C1144091C214242F30E08091C51490E001972817390739F4D80197968C91499D80191124982EA92CB12CC5014E968236910538F081E594E490938E0680938D066ADB3091C1142091C2148091D7149091D814F80161A572A5329F600D711D1124A5014E960E94A9F5F1
S284006A808AE0890DD6018C938091D7149091D8144496F301918380830EC0D80197968C919797885F808399968D919C919A970897D9018D939C93F301C080D180D6012C912C7F2F7E2C93F8018789908D237F883F9F4F10F02860D6012C93F60180818F7D8083D8019B969C9192FD03C08F7B808322C08064F6018083D70118962C91189717
S284006B00207F216018962C93C8012983A8DD29812F70882341F08091C7148295807F822BF701808708C08091F4128295807F822BD70118968C93C80192DDF60190818823A1F0906890839091C21480858C7F911106C0816080878091C514818709C0826080878091C214818703C09F77F6019083D80191968C919197F601818394968D9193
S284006B809C9195979383828392968D919C9193979583848396968C918683C80160DD882331F08091C614D60117968C9308C080912F0591E0980F90932F05F6018783C7010996C6DE80E00F90DF91CF911F910F91FF90EF90DF90CF90BF90AF909F907F906F900895E091D514F091D614BF0180819181B5CEE4EBF4E1F0938514E0938414DD
S284006C0092E090938014209127143091281430938214209381149BE090938314109288141092891491E090938A1490938B1410928C1423E638E330938F1420938E1490938D149081907892609068908390912E149093B51420912A1430912B143093B7142093B61420912C1430912D143093B9142093B814909129149093BA1490912F14BD
S284006C809093BB1492E09093BC14909125149093BD14909126149093BE149091BF1490939D14109220141092211410922214109223148093191489E394E14ACEA4E0B0E0E4E6F6E30C94D3F4182FBE016F5F7F4F8AE190E063DC20911D0530911E0540911F0550912005A12FB0E00E94B5F409811A812B813C81600F711F821F931F24966A
S284006D00E4E00C94EFF40F931F93CF93DF93EC018C0107551109FC013C970190F081E02D6FEF818192810E94DB88882361F0FE01329785E694E39183808323971882C8010E94A89102C0CE01C0DDDF91CF911F910F91089566E174E180E191E01FDC67E174E18EE092E0F8DB809117149091181420E030911614231748F4FC0133E2239F41
S284006D80E00DF11D112410822F5FF3CF6FE074E18FE091E003DC64E174E18DE092E0DCDB20910F14E0911414F091151480E0821739F097819E7F97838F5FE459FF4FF7CF9091161490931014823008F0815080931114109212141092131461EC74E188E291E0DCDB6FE174E189E291E0D7DB6EE174E188E191E0D2DB80911E14882351F08B
S284006E006AE174E18FE092E0A7DB67ED74E180E192E0A2DB30911E1420911F1480911A1490911B14329F800D911D112490931D1480931C1410921914089569E375E082E192E08ADB68E375E087E191E0A7DB80913805E0913905F0913A05882349F0309739F489E294E490938E0680938D0647C99F0146E1849F200D311D1124C90128EA36
S284006E80E817F90718F4258B7696FACF08951F93CF93DF93EC01162F0097B1F08D819E81892B91F088E095E084D81F83ED81FE81CE01079619958091080590910905892B59F080E0E6DB08C08BE694E490938E0680938D062CD9E6CFDF91CF911F910895A1E1B0E0E6E7F7E30C94C5F48C01262E29873A874B875C870E9471DDE09121053C
S284006F0029853A854B855C85EE2361F130900F14C0902405D0902505E0902605F09027052B013C014C185D086E087F084D825E826F827886E0911414F0911514198A66246A94762C430169827A828B829C8246015701861A970AA80AB90A8D869E86AF86B88A0BC004EB18E3A3C0A781A0FD09C0A989AF5FA98BE459FF4FB989B311F5CFB9
S284006F8040C0B085BF70B23099F7AA7FA23081F783809480A580B68081149104A104B10439F3E017F10721F34D805E806F807884481459046A047B0468F44D845E846F847888840C951CA61CB71C83829482A582B68204C0138214821582168283809480A580B68049805A806B807C8084149504A604B70408F0BCCF89829A82AB82BC82CB
S284007000B7CF211046C08090201490902114A0902214B090231481149104A104B104C9F12B013C014C185D086E087F08481459046A047B0488F4C80CD91CEA1CFB1CC61AD70AE80AF90AC0922014D0922114E0922214F092231408C0109220141092211410922214109223148091201490912114A0912214B091231449805A806B807C8005
S28400708084159505A605B70520F489839A83AB83BC8389819A81AB81BC81281739074A075B0710F4DA01C90104EB18E39C01AD0161E081E295E094D981E295E07ED96196E2E10C94E1F48091180581508093180580911914833009F43CC0823039F082E594E490938E0680938D0621D8E091C014EE2379F181E080931914A091F512B0E073
S28400710011972AE030E00E94AFF49B01AC018091190590911A05A0911B05B0911C05280F391F4A1F5B1FA091F412B0E00E94B5F49B01AC0160932014709321148093221490932314E150E093C01461E080E090E0C7CE10921914109220141092211410922214109223140895A4E0B0E0EAEBF8E30C94CDF42FEF3FEFA90110E0AA24AA94CA
S284007180B12C80910F14181708F054C0E0911414F09115148CE6189FE00DF11D1124678160FF46C07085872F8F70823009F040C0862F8A7F8230E1F583819481A581B681C0902805D0902905E0902A05F0902B058C199D09AE09BF0983839483A583B6830097A105B105E9F4872F807F846080876E7F663059F4C5010090F51202C0880FAC
S284007200991F0A94E2F780958093C41481E029833A834B835C833DDA29813A814B815C8107C082179307A407B50710F49C01AD011F5FA7CF8091201490912114A0912214B09123140097A105B10551F1C0902805D0902905E0902A05F0902B058C199D09AE09BF098093201490932114A0932214B09323140097A105B10559F482E02983F7
S2840072803A834B835C83B6DC29813A814B815C8107C082179307A407B50710F49C01AD012F3FEFEF3E074E075E0751F004EB18E361E081E295E094D881E295E07ED803C081E295E084D82496EAE00C94E9F4A0E0B0E0EDE6F9E30C94CCF48C01962EC0913905D0913A05809138056E0196E1899FC00CD11C1124F8018589811109C07E01E4
S284007300F6E1EF0EF11C58018CE0A80EB11C09C085E294E432C08A3A89F06696F6E1EF0EF11CF801CC15DD0508F04AC0908521853285F70131978081843A69F7F7013E9780819813EACF89859A852817390729F748E050E0B801CE010E949CF5892BE9F6F8018385F7013B9790818913D6CF813059F0833091F086E294E490938E06809383
S2840073808D060E947F301DC0F801248535858C859D852817390709F617C0F8019489F701329780819813B9CF48E050E0BE01645F7F4FC5010E949CF5892B09F0AECF04C0958A80E090E001C0CE01CDB7DEB7EBE00C94E8F4CF93DF93EC010097B1F18AEA8D8B0E94DF5148E050E0BC01CE010E949CF5892B51F582E88D8B888581508E3FD4
S28400740020F58B858330C9F48C8981508E3FE8F42C853D854E855F85688979898A899B89A0E00E9430F571F480E194E490938E0680938D060E947F3008C0813019F086EA8D8B03C01D8A81E001C080E0DF91CF910895CF93DF93EC01009761F16FA74115510551F0FA01408151816281738148AB59AB6AAB7BAB04C018AA19AA1AAA1BAAE3
S284007480EDA5FEA5309749F484E594E490938E0680938D060E947F300DC0CE018F961995CE01DDD8882331F01092D6141092D51481E0EFD8DF91CF910895A1E0B0E0E3E6FAE30C94D3F48C01FC012081318180911714909118142817390740F487E494E490938E0680938D060E949730F801808191812091171430911814821B930B63E21F
S28400750070E00E9435F480911014681750F088E494E490938E0680938D0669830E94973069818091171490911814F3E26F9F800D911D11242196E4E00C94EFF4A3E0B0E0E4EAFAE30C94D3F48C01675F7F4F7A836983BE016D5F7F4F8DE090E01FD88B81D80197965C91979740912F05882309F442C089819A81FC01E95BFF4F21E020830D
S28400758057962D913C9158973196318320833296585F50839996ED91FC919A979C01255B3F4F3897D901ED93FC938FEF8183D80194968D919C9195979383828392968D919C9193979583848396968C91868381E0840F80932F054783D901ED91FC918081807888608F778083E981FA81EB5AFF4F85E694E344C089819A81FC01E95BFF4FD6
S28400760022E0208331962DEF3FEF318320833296575F5083D8019996ED91FC919A979C01255B3F4F3997D901ED93FC93D80157968D919C9158979283818394968D919C9195979483838392968D919C9193979683858396968C91878381E0840F80932F054087D901ED91FC91808180788C608F778083E981FA81EB5AFF4F83E896E39183D2
S2840076808083E981FA81D8019C968C919C97E15BFF4F8083E981FA81E05BFF4F8091F3128083E981FA81EF5AFF4F9B968C918095881F8827881F8083E981FA81EE5AFF4F81E08083E981FA81ED5AFF4F8083E981FA81EC5AFF4F808389819A8139D980E02396E4E00C94EFF4DC01ED91FC919093D6148093D5141092C2141092C3148091ED
S284007700F4128093C7142091C11430E087A190A5B9010E9435F4462F6093C51487A190A5B9010E9435F4892B19F04F5F4093C5148FEF90E00090F51202C0880F991F0A94E2F780958E7F8093C41480912F0591E0980F90932F058093C6140895A0E0B0E0E4EBFBE30C94CCF4EC016B01942E59010091390510913A0580913805780196E187
S284007780899FE00CF11C1124209761F0C017D107F0F583E294E490938E0680938D060E94973035C0E801CE01801B910B66E170E00E9435F4892B79F084E294E490938E0680938D060E94973006C01D89143A39F01A3A29F06696CE15DF05B8F313C088859812F8CF89859A85C816D90699F748E050E0B501CE010E949CF5892B59F7143AFD
S28400780049F703C080E090E004C0CE0102C06696CACFCDB7DEB7EBE00C94E8F44F925F927F928F929F92AF92BF92CF92DF92EF92FF920F931F93CF93DF931F92CDB7DEB72C017B010E94DF516C0157018AE6A80EB11CF501008111814114510431F0E114F10419F0C114D10451F484E194E490938E0680938D060E947F3088EA5EC058EA03
S284007880F20164A175A1960146A1C801598366DF8C015981009709F44FC0F20184899589892B19F5F8017384F3E07F121EC048018CE0880E911CC4010E945FC0892BA9F4F2017086D2011B9688E0F40101900D928A95E1F78EEA9CE3F201958B848BC20106960E9459C080E028C0F50111830083F80183858330B1F4C8010C960E945FC024
S284007900009711F459EABCCFF8012489F20121A3FC0180819181F201908F878BB701C2011ED80BC0F80184859585F201908F878BB701C20103DE01C0852F0F90DF91CF911F910F91FF90EF90DF90CF90BF90AF909F908F907F905F904F900895FF920F931F93CF93DF938C010351110920910F14C0911414D0911514F12CF216E9F08F8130
S28400798080FF16C0888199818017910789F4BE01C80144DF882381F040E050E0682FC80158DDCE010E94613381E00E94493304C0F394C459DF4FE1CF80910F14F81640F085E194E490938E0680938D060E949730CDB7DEB7E5E00C94EEF4EF92FF921F93CF93DF931F921F92CDB7DEB77B010097A1F06115710589F0FC01158A148AF70124
S284007A00E659FF4F11821082B70108DF182F882389F0C7010E9461330DC023E134E430938E0620938D0689839A830E94973089819A81E2CF812F0F900F90DF91CF911F91FF90EF900895A1E0B0E0E9E2FDE30C94D1F48C01262FDC01ED90FC90009709F444C0E114F10409F440C02E3C61F0822F8F7D803D41F0213D11F082E005C0F701F4
S284007A8083A587FFFACF83E0F801EB59FF4F4081518162817381D701D0964D935D936D937C93D3979F962C93833071F0D801ED91FC918689811108C0F701158A148AB801C701ACDE883AE1F4A701405D5F4FD7019F966C91F80180819181BBDCC8010E94613381E00E9449330BC08FE494E490938E0680938D0629830E9497302981B5CF8B
S284007B002196E6E00C94EDF4CF93DF93EC0162DC882309F454C060E0CE01D9DB892BC1F5209709F43EC08D8981113BC0509138052091390530913A0540E0451781F0C9012A5E3F4FF90131976081683A31F424EAFC01258B009731F432C04F5FEECF8EEA8D8B2DC0209719F03D89332349F087E294E490938E0680938D060E947F301AC0B2
S284007B8036E1FE01DC0101900D923A95E1F706C066EACE019CDB009791F024EAFC01258B09C080E294E490938E0680938D060E949730BCCF60E070E080E10E94D52EDF91CF910895CF93DF93EC010097D9F08091390590913A05C817D907A0F02091380536E1239F800D911D1124C817D90750F48D89843A11F08A3A71F488EA8D8BDF913F
S284007C00CF91089581E294E490938E0680938D060E949730EDCF82E294E490938E0680938D060E949730E9CFCF93DF93EC01D2DB882359F064EACE014ADB009731F0C2DF60E070E080E10E94D52EDF91CF9108952091390530913A05009751F0FC0176968091380596E1899F200D311D112408C0F901F6CF8589843A49F08A3A39F0769659
S284007C80E217F307B8F380E090E00895CF010895CF93DF93EC01BC0186E395E00E9415301D8A1C8A81E00E944933DF91CF910895CF93DF93EC01BC0184E395E00E941530198A188A81E00E944933DF91CF910895AAE0B0E0EEE6FEE30C94CBF410913813BE01665F7F4F87E091E00E94CE32BE016F5F7F4F8AE190E00E94CE32C980DA80B8
S284007D00EB80FC80812F90E0A0E0B0E08C159D05AE05BF0578F0CC0CDD1CEE1CFF1CC982DA82EB82FC82BE016F5F7F4F8AE190E00E940633C12ED12C87E0C80ED11CEE24D7FCE094FE2CC0921D05D0921E05E0921F05F09220052A8530E0A3E0B0E00E94A0F49B01AC01C701B6010E941AF409811A812B813C81600F711F821F931F60930A
S284007D80190570931A0580931B0590931C0581E08887BE01675F7F4F87E091E00E94CE32BE01685F7F4F84E290E00E94CE32898590E0A0E0B0E0880F991FAA1FBB1F8F3F9105A105B10529F020F08FEF90E0A0E0B0E00E945E36E885EE2309F45AC0812C912C54018B019C0101501E4F2F4F3F4F800E911EA21EB31E660F771F881F991FA2
S284007E00E15081F718867501640129E0F694E794D794C7942A95D1F7D501C4019170AA27BB2741E050E060E070E0892B8A2B8B2B19F440E050E0BA01C40ED51EE61EF71E1E821D821F82BE01695F7F4F81E191E00E94CE32BE016B5F7F4F88E092E00E94AC32970186010F3F11052105310529F020F00FEF10E020E030E06D817E81C12C00
S284007E80EE24E39420E032E04F818AE095E00E94AF302A96ECE00C94E7F4882331F00E9485F580932F051092180510923705109236051092350510923405109233051092320510923105109230058AE090E0A0E0B0E08093CE149093CF14A093D014B093D11482EF95E39093D4148093D31481E08093D2141092261410922F1410922414E2
S284007F0010922B1410922A14109225141092291410922D1410922C14109228141092271410922E1410921914109220141092211410922214109223148CE6E0E3F4E1DF011D928A95E9F783E2ECE9F4E1DF011D928A95E9F780911F1490E0019620911E14289FA001299F500D112460E070E080911A1490911B140E94C3F584EB94E190934B
S284007F80851480938414A4CE4F925F927F928F929F92AF92BF92CF92DF92EF92FF920F931F93CF93DF931F92CDB7DEB77C01009781F02C0127E0421A510880910805909109058415950529F4D20112968C91893149F086E694E490938E0680938D060E947F30CBC080910405909105058115B7E09B0709F07FC0009136051091370501156B
S284008000110551F086E395E00E94D92F40E050E063EAC8011EDAEFCF6CE6C62ED12C7CE6772EE2E4AE2EE4E4BE2EF3E48F2EF4E49F2E00913205109133050115110509F444C0B80182E395E00E94E52F8091141490911514F801E81BF90BCF01B6010E9435F480910F14681740F0B0928E06A0928D0669830E9497306981E0911414F09164
S2840080801514679DE00DF11D1124808191812781269530E02130310561F02230310549F2232B61F4A8014B5F5F4FD80112966C9103C040E050E067EACCD9BBCF90928E0680928D060E949730B4CF10E080910F141817D8F48091141490911514BCE61B9F800D911D1124FC01278120FD0E9461331F5FECCF8115924041F087E694E49093C1
S2840081008E0680938D060E949730109207051092060581E0C2DE0E94AA360E941D3782E393E09093050580930405D7018C91F201828788E095E00E94D92FD20118968D919C911997892B41F489E694E490938E0680938D060E949730D2011896ED91FC911997C701039619958091080590910905892B19F080E00E9449330F90DF91CF9196
S2840081801F910F91FF90EF90DF90CF90BF90AF909F908F907F905F904F900895CF93DF93C0910805D0910905209741F484E694E490938E0680938D060E9497308A818A38F9F0853C09F44FC0893109F06CC080910405909105058031914019F480E092E002C080E097E0909305058093040584EC9FE39E838D83CE0103960E9477A85BC072
S2840082008091040590910505823323E0920719F08031964049F48FE394E0909305058093040556DD1D8202C083EA8D8388E095E00E94D92F8B819C81892B41F48AE694E490938E0680938D060E949730EB81FC81CE01059619958091080590910905892B51F180E018C080910405909105058F339440A1F480E095E0909305058093040505
S28400828082E090E09C838B8381E295E00E94E7311092180581E00E9449330DC063EACE010E94473708C085E694E490938E0680938D060E949730DF91CF910895AAE0B0E0E4E6F1E40C94D5F4DC011396ED91FC9114972181328140E450E05A834983AE01495F5F4F5C834B8341E050E05E834D836F3FBFEF7B0719F437FF15C003C0261769
S284008300370789F098878F837A876987BE016F5F7F4F8EE10E94D52E81E02D813E81232B19F080E001C081E02A96E2E00C94F1F4009729F480911605909117050895FC01808191810895CF93C82FE0E0F0E0CF01EFDFFC01009739F0A381B4818C91C813F6CFCF0102C080E090E0CF910895CF93DF93EC010097D9F086EA8F83EB81FC8156
S2840083803097A9F080819FEF980F903F80F4DBDF892B69F421E08D819E81892B09F020E02A83BE0186E195E00E9415301F82DF91CF910895DF92EF92FF920F931F93CF93DF938C01009741F480E394E490938E0680938D060E949730C0E0D0E0A1E3EA2EA4E4FA2ECE01A4DFEC01009789F18A818111F8CF8B819C81892B31F4F0928E06AF
S284008400E0928D060E949730F80160A171A1CE0155DF882339F3EB81FC81D0806D2DF801878190850E94DB888823E1F2F801D18AED81FE81309749F482E394E490938E0680938D060E947F3003C0C8011995CACFCDB7DEB7E7E00C94ECF4A1E3B0E0E3E3F2E40C94CBF48C01B62EDC015A96ED90FC905B9755966D917C915697F701478149
S2840084808AE095E00E94E130882309F414C1D70111968C919FEF980F9E3F28F454DF6C01009719F408C1C12CD12CF801228983899489213009F022E02F8399878887D70111968C918A8BF801858996890E9462C0FC01009799F083E08B8B708161815281438134812581968187817E8B6F8B588F498F3A8F2B8F9C8F8D8F02C082E08B8BD2
S284008500D80155968D919C9156979D8B8C8B57968D919C9158979F8F8E8FF701868188A3848195819AA389A3828193819CA38BA359968C9190E09C012A5031093EA32DA319A6208127FD04C09C012850310906C02085237029F49C01295031093EA32DA32DA13EA1821B930BF801228D338D280F391F38A72FA3BAA682A18BA7848D8CA75D
S284008580468D578D60A171A14DA75EA76FA778AB858D89ABD7018C9187FF48C018968C918370823009F042C0E0911C14F0911D14808190E09EA38DA38080912CAA24A394B12C2091241430E080911A1490911B14A216B3064CF5E0911C14F0911D14EA0DFB1D408150E020911F142A9DB0012B9D700D1124680F791F880D991D0E94A9F575
S284008600E0911C14F0911D14EA0DFB1D20818DA19EA1820F911D9EA38DA3BFEFAB1ABB0A8081880E911CCDCF98A78FA3C114D10449F0D6011596ED91FC911697CE010196199539C0F8018289813021F4CE010196B1DE31C0D70111968C918F3F41F5E12CF12CC70165DE7C01009729F1D7011396ED91FC9114978081882399F312968C913B
S2840086808111EFCF69A17AA1C70118DE882349F3D7011396ED91FC91149780818A8B1596ED91FC911697CE0101961995DACFCE0101960E94C3C7C8010E94C833E196ECE00C94E7F4A1E0B0E0E8E6F3E40C94CDF45C01DC015A960D911C915B97F80181812FEF280F2E3F80F429832DDE7C012981009751F0D80114966D917C911597DEDDDE
S284008700882309F405C105C02E3F08F401C1E12CF12CF801808187FF04C09085937009F0F7C086FFF7C08C70883009F4F1C0D50155968D919C915697883FBFEF9B0708F0E7C0E114F10421F0F70122812111E0C0D5015A960D911C915B97F801208126FD02C090E0D2C02370213009F027E0F0900F14E0911414F091151430E0422F50E0AC
S284008780B801640F751F3F15E9F0A781A530B1F4DF01AF5ABF4F0D90BC91A02D8A179B0769F4DF01AC5ABF4FCD90DC90C40ED51EDB01EC90D601DC90ED1499F23F5FE459FF4FE1CF82E029830E94DF332981009741F2FC01EC5AFF4F0190F081E02DDF0158973FEA11963C9311971396BC92AE92129762E0DC01A05BBF4F6C93D501559661
S2840088004D915C915697DC01AF5ABF4F11965C934E9317961C9211961C9231E011963C9311963C9311961C9245E654E3129611965C934E9311973C9330813C7F32603083D8014C914C70337F342B30834C914295417040FB34F93E7D3F7B30834C9147FB442740F940FB37F930834C9130E0DC01AD5ABF4F7D0144FF0DC0D5015A964D9108
S2840088805C915B97420F531FDA012C912183F701608337C048E04C93D80116964C911697418312964D915C9113975383428314964D915C9115975583448311964C914683D5015A964D915C915B97420F531FDA012C912783D8012C9127FF13C018962C91237031F41086F70120812F5F208309C0D7012C912D5F2C93D80118962C9123700A
S284008900208709960E94A83491E081E08927A1C190E001C091E0F801808187FF92C18085837009F48EC1D5015A960D911C915B9759968C91F801F18420911E14222309F487C196EFE92EE80E80911914813009F456C030F0843008F06BC180E494E46AC1D084B1E0DB1274C12F1508F471C180911F148E1508F46CC190E00196289FA0011C
S284008980299F500D112460E070E080911A1490911B140E94C3F58FEA8093BF14D0921914F0922414F501858996899093281480932714D80111968C9111978093291412968D919C91139790932B1480932A1414968D919C91159790932D1480932C1416968C91169780932E1417968C9180932F148091F4128093C01410922514F12CF80110
S284008A008085982F9370923011F0F11021C18C7F09F01EC1809124148F1508F419C12091271430912814D50155968D919C9156972817390709F00CC190912914F8018181981306C120912A1430912B14828193812817390709F0FCC020912C1430912D14848195812817390709F0F2C090912E1486819813EDC090912F1487819813E8C0F1
S284008A80209125144091F5120F2D10E0822F90E0840F911D081719070CF0DAC08F2D642F0E9429F4D92EF21668F48F2D891B8093251421E030E001C0220F4A95EAF721952093261420911F1480911A1490911B144E2D50E0D5015A966D917C915B97665F7F4FF29E800D911D11240E94A9F5E0911C14F0911D14E00FF11FE082709125141F
S284008B00209124147F1111C09091F512822F8F19981708F4892F41E050E0082E01C0440F0A94EAF741954093261441E050E00D2C01C0440F0A94EAF760912614642B609326146F3F79F4FF24FA94F70E822F90E04091F51250E0871B9109481759070CF4CA01F80E8F2D90E030E0215031098217930751F46F3F21F483E00E94FA3563C082
S284008B8082E00E94FA3564C0A091F512B0E011979D01270F311D8217930711F06F3F09F582E00E94FA35809126148F3F09F050C08091F51290912514980F909325142091241421502F19821708F4282F81E090E0022E01C0880F0A94EAF781958093261437C02AE030E00E94AFF49B01AC018091190590911A05A0911B05B0911C05280F1C
S284008C00391F4A1F5B1FA091F412B0E00E94B5F49B01AC016093201470932114809322149093231461E080E090E00E94703710C083E594E490938E0680938D060E94973007C0992329F06FEAC50107DC80E001C081E02196EAE00C94E9F4A7E3B0E0E3E3F6E40C94C5F4A0900405B090050520E1A21621E0B20609F469C12DE4222E24E4D1
S284008C80322E88248394912C82E395E00E94D92F7C01009709F45AC10091141410911514C701801B910B6CE670E00E9435F480910F14681748F089E494E490938E0680938D060E947F3042C13CE6639F000D111D1124D80117968C91B0E1AB16B6E0BB0621F0A114E5E0BE0699F58E7F843019F5C8018C5A9F4F0E945D3A6C01DC0111961C
S284008D006C91119712968D919C911397892B51F4EAE4F4E4F0938E06E0938D066CAB0E9497306CA9D70112968C91811104C0F6018281938192DBA7014B5F5F4F63EAD8018D919C910E94293AC7010E9461339CCF8695482E512CB1E04B165104B1F054F4452809F0EAC0D70112966C91C8010E94233D8ACFF2E04F16510409F4BBC023E018
S284008D804216510409F47BC0D8C0F80180858F70813009F079CF60807180D70119968C910E945E369B01AC01C090F412D12CF801808582958F70C81AD108D70112966C9161111EC02FAB3CAB4DAB5EAB0E9485F5FC01F170D20102C0AA0FBB1FCA94E2F72FA93CA94DA95EA90E94BFF46E0F7F1F811D911DF80163837483858396832DC02A
S284008E006E3C59F0603F49F0603D39F0613D91F4D3019B968C9187FF0DC0A7014B5F5F4FC3010E94293AC7010E94613381E00E9449338CC00E9485F59170E8EEF3E002C0EE0FFF1FCA94E2F78E0F9F1FA0E0B0E0F80183839483A583B683D80118968C911897807F826018968C93189713962D913D914D915C91169760E0C80102C2F80153
S284008E8080858F70813009F0FFCE2091C21430E08091C51490E001972817390709F4B5C1E091F5127091C414272F30E080E090E0682F8E1708F0A9C10196A901062E02C0559547950A94E2F740FFF2CFC401062E01C0880F0A94EAF7809587238093C4148091C314860F8093C21488EC94E10E9475E1CACEC8018C5A9F4F0E945D3A8C0122
S284008F00DC0111966C91119712968D919C911397892B41F430928E0620928D066CAB0E9497306CA9F8018281938197DAC7010E94613381E00E944933A7CE2EE434E430938E0620938D060E9497309ECE1BAA1AAAA8E94A2EA4E35A2EBFEA2B2E13E0312EAA24A394B12C66246A94712C95E4892E94E4992E84E395E00E94D92F8C01C09030
S284008F800405D0900505009761F1D80150968D919C915197892B09F077C15A96ED91FC915B9780818370813009F06EC18281853009F46AC155968D919C9156970E9462C0892B09F061C122E0F80124838589968996838583518A408AC80102960E9459C0C9CFC1FE11C050E5C52E54E4D52E62E0462E72E1A72E74E4B72EE8E05E2EF0EA64
S2840090008F2EF4E39F2E3BC000913605109137050115110509F458C0B80186E395E00E94E52F40E050E063EAC8010E94293AECCF8689833081F57801F9E1EF0EF11CC7010E945FC0892B39F5D8011B96F701852D01900D928A95E1F7D80156968C91569718968C93189755969C928E925497C80106960E9459C086E395E00E94D92F00912F
S28400908036051091370501151105F1F0F80184899589892B69F28091D5149091D614892B09F4BCC2C8010E942F33882309F4B6C2C8010E942F33882309F4B0C2F8010081118101151105A1F780910405909105058115B5E09B0721F08031F6E09F0769F5F12C0EC02CE6F29E80011124E0911414F0911514E00FF11F8781833031F0F394A5
S28400910080910F14F81670F320C080858F70843011F08230A1F740E050E063EA808191810E94293A8091141490911514800F911F805A9F4F0E946133E2CF8F33944029F4F12C80910F14F81648F080910405909105058115954009F07EC351C000911414109115148CE6F89E000D111D1124D80117968C91179780FF40C018969C911897A2
S284009180292F2F702430C9F5282F2A7F2230A9F5907F79F19160905118969C938E7F823071F4C80109960E94A834F801238134814581568160E0C8010E9470371EC08630E1F48091C4148E7F8093C4148091C3148093C2148091C71481508093C714E091D514F091D614BF01808191810E94AF3404C067EAC8010E94233DF394A2CF809132
S2840092001805882309F4A8C226C3F70181850E945E369B01AC01A091F412F801808582958F70A81BC40102C0880F991FAA95E2F7DC010E94BFF46B017C010091D5141091D6140E9485F59170C80ED91EE11CF11CD8011396CD92DD92ED92FC921697E091D514F091D6148085807F826080878091D5149091D614FC01238134814581568190
S28400928060E00E94703700CDD8015A96ED90FC905B97BFE3CB16B4E0DB0669F0D7018C918370813041F0F80183A1811104C0C8010E94C833A4C1D7014C91642F607446FF11C05091121420910F1430E08091131490E0850F911D821793074CF780911014581728F7242F2C70243009F3662331F0842F83708230D9F243FDD9CF45FDD7CFDA
S284009300F801D288F1E0DF1671F032E0D312CFCF4370842F90E0009721F0029709F47AC0C6CF2C3031F0C801CDD9882309F467C1BECFD80155966D917C915697F70140858AE095E00E94E130882309F4B0CFD80159968C91893008F4AACFB1E0BF83F7018181928199878887D80155968D919C9156970E9462C0FC01009791F03B8A7081CE
S28400938061815281438134812581968187817E8B6F8B588F498F3A8F2B8F9C8F8D8F01C0DB8AF801858996899D8B8C8B8789908D9F8F8E8FD70117968C91179788A315968D919C9116979AA389A313968D919C9114979CA38BA3818D90E009979EA38DA3828D938D099698A78FA319A62AA682A18BA7848D8CA7868D978DA0A1B1A18DA75F
S2840094009EA7AFA7B8AB858D89ABCE0101960E94DA414DCF423031F090928E0680928D060E949730C0901414D090151480910F14F6012CE6829FE00DF11D1124CF01C816D90608F034CFD60117966C91179760FFD2C018962C9118972F70223009F0CBC0F601EC5AFF4F0190F081E02D2D913C91D80155964D915C915697D90157962D9121
S2840094803C9158974217530709F0B5C0D70117963C91179727813213AEC014964D915C911597248135814217530709F0A4C012964D915C911397228133814217530709F09AC011963C9111972681321394C016963C91218132138FC06E7F623031F4F6018085807F836080873FC0663009F083C0D70119969C9119978091C3149813D7CE28
S2840095006091F512262F30E0C501062E01C0880F0A94EAF781951A969C911A97982B1A969C931A97F6018085807F836080871A96EC91EF3F99F54091C51450E07091C314E70FCA01871B9109281739070CF4C9018E0F8093C21490E0415051098417950741F4C6010E94743B60E0C6010E94233D9ECE760F7093C3148091F4128093C714BD
S2840095807093C214930102C0220F331F6A95E2F7B90160956E7F6093C41423C0E095E093C41480E090E02E2F30E0782F8617C8F40196A901072E02C0559547950A94E2F740FFF3CFC501072E01C0880F0A94EAF780958E238093C4148091C314870F8093C214E091D514F091D614BF01808191810E94AF345CCE3CE6C30ED11C20CFD80146
S2840096005C968C915C978AAB5D968C918BABBE016E5C7F4F8BE30E94D52EACCCC8010E942F33882361F08091D7149091D814892B09F4BDC0D8019B968C9182FFB8C0F80187A190A58536910518F083A583FFB1C0D80196963C90332031F0832D0E94A341892B09F448C0F80183A52689382F347082FF0AC0223031F48789908D883F9F4FE9
S284009680D0F502C02130B9F18EEF820F823038F4D80191968C91815F8E3068F18CC021118AC0332309F487C0F80164A075A087D67C01009719F080E090E00CC0B0928E06A0928D060E947F3076C0DC011B962C91213089F09701432DB3010E94AE3B0097A1F769C0813008F475C0823009F49AC0833009F48AC026EAE12CF12C612C712C3A
S284009700B80186E395E02FAB0E94E52F2FA921111CC0E114F10431F4D0928E06C0928D060E949730F30111830083C8010E942F33882319F0C3010E94743BB301C801F7011995282F882309F49ACC40E050E0622FC8010E94293A93CC0091080510910905F8018281853C41F08DE694E490938E0680938D060E949730D80113968D919C9194
S28400978014978D7F14969C938E931397892B09F062C080E00E944D3F80E196E0909305058093040560E0C8010E94473754C02AEAA3CF20EAA1CFD80156968C91813009F091CF80E00E94DF333C013EE9E32E3AE3F32E0DC0C8010E942F33882371F083E00E94DF333C014DEEE42E4CE3F42E6114710409F469CC20E083CFF80183A582FFF4
S28400980002C081E0EDCF80E0EBCFC80149960E945FC00097F1F0DC018D919C91F801908F878B468AC8010E942F33882311F083E008C0D8019B968C9182FF02C081E001C080E00E94DF333C012FEAE22E24E3F22ECECF29EA51CFE796E2E10C94E1F4AFE1B0E0E5E3FCE40C94D2F4009749F485E495E490938E0680938D060E947F3082C0BD
S284009880FC012081233009F07DC0218132813A83298328E03396DE01139601900D922A95E1F7FC0123852B87248535853D872C8728E03E96DE011E9601900D922A95E1F7FC01218D2D8F238D2E8F0789108DF688F6E0FF1508F056C0F8018081982F9370933009F04FC0807E09F04CC08181811149C0BE01615E7F4F84E190E00E94CE328E
S284009900F801208126952695277030E08F8D90E028173907B9F58281982F9370933091F5982F907F79F58C708C3091F481E08B87F8E0FF1538F5F801838194819F878E876FEF0E94DB888823E9F0F80129E003C0F801329727E085819681998F888F878190859F8B8E8BF21AFA8E020F111D1C8F0B8FE0911405F0911505309719F0CE01F5
S284009980019619956F96E5E00C94EEF480E191E090930505809304051092090510920805109207051092060510921705109216050E94AA360C9496A8CF93DF93EC016DE472E085E20E94542F6DE472E088E30E94542F209749F480E694E490938E0680938D060E947F3005C089E18A83CE010E947034DF91CF910895009741F481E694E415
S284009A0090938E0680938D060C947F302AE8FC0122830C947034009741F482E694E490938E0680938D060C947F3025ECFC0122830C947034CF9330911614809117149091181420E0231751F08396FC01B3974081442311F081E029C02F5FF4CFC0E080910F14C817E0F40E94CF2E9CE6C99F900111244091141450911514FA01E20FF31FA2
S284009A80882341F0878180FF08C080858F70823021F0E0CF878180FDDDCFCF5FE0CF81E090911914911101C080E0CF9108951F93CF93DF93EB01853239F41881BBDF91E09827912398831FC08833E9F4388140910F14E0911414F091151480E0841771F0278120FF07C090859F70923019F42A7F223031F08F5FE459FF4FF0CF80E001C002
S284009B0081E0832B8883DF91CF911F910895FC01808184FD0C941D370895A2E0B0E0E3E9FDE40C94D5F4E0910605F09107052F2F30E09E2F9F5F983008F090E0692F70E0A901092E02C0569547950A94E2F740FF26C09093060581E090E0062E01C0880F0A94EAF78F2780930705660F771F6058744B42E050E0CE0101960E9493F58981C4
S284009B809A81892B41F480E094E490938E0680938D060E949730E981FA81199504C0E913C9CFE093060580910705882361F02FB7F8948091020590910305806290930305809302052FBF2296E2E00C94F1F480914013853091F028F4882349F0823069F004C0843141F0863141F080E00895809139138B3010F488E0089582E0089583306E
S284009C0014F083E01BC096E0980F923010F48BEF15C098E0980F923010F489EF0FC09AE0980F923010F487EF09C09EE0980F943010F484EF03C0823F0CF48FEE80933E130895C5DF282F220F220F280F30E0A90160E8869F400D511D1124CA010895809140138530E9F028F4882349F0823079F004C0843189F0863189F080E00895809167
S284009C803913882349F08B3058F489E1089580913913811105C002C082E3089588E2089580E10895CF93DF93EC01D9DFE82F9E01A0ECB3E00E94A0F49B01AC01AE2FB0E00E94B5F428EE33E040E050E00E945CF4CA01B901DF91CF910895CF93DF93B1DFEC01BDDF282F2C9FC0012D9F900D1124BC0180E090E028EE33E040E050E00E94AC
S284009D005CF42F5F20933813DF91CF910895CF93DF938BE08093391380E098EFAFEFB7E080933A1390933B13A0933C13B0933D136EE373E183E090E00E94CE3280913E135EDF6EE373E183E090E00E940633C1E0C0933F131092401374DF909342138093411335DF94E0899F800D1124809343132EDF8093441386E390E0A0E0B0E080932E
S284009D800D1390930E13A0930F13B09310131092111310921213C09313131092151310921413109216130E9485F580931713E8E1F3E18FEF80838183828383838483858386838783CFEFDFEFD0932113C09320130E9485F58093221385E08093231384E08093241383E08093251380932613D0932813C093271380E28093291310922A1315
S284009E0010922B13D0932D13C0932C13109236131092371362DFDF91CF910895A4E0B0E0E4E1FFE40C94D5F4DC014C9150E0CA01805491098434910508F0D7C0865A9D4DFC010C949AF411968C918093121308C011968D919C911297909315138093141380E00DC111968C91853308F007C180931613F6CF11968C9180931713F1CF119672
S284009E808C9111978093181312968C9112978093191313968C91139780931A1314968C91149780931B1315968C91159780931C1316968C91169780931D1317968C91179780931E1318968C9180931F13C9CF11968D919C9112979093211380932013C0CF11968C9180932213BBCF11968C91863008F0C4C080932413B3CF11968C91909173
S284009F002313981708F4BAC080932613A9CF11968D919C9112979093281380932713A0CF11968C9180932A139BCF11968D919C91129790932D1380932C1392CF11968D919C911297AFDE69837A838B839C83BE016F5F7F4F03C0BD016F5F7F4F82E090E071C011967C91119712966C91129713965C91139714964C91149715963C911597E0
S284009F8016962C91169717969C91179718968C9170932E1360932F1350933013409331133093321320933313909334138093351357CF11968C918093111352CF11968C91883008F05BC0809325134ACF11968C918093291345CF11968C918093231340CF11968C91809337133BCF4830510508F043C042565D4DFA010C949AF48BEF3FC027
S28400A00011962C9180913A1390913B13A0913C13B0913D13022E04C0B695A795979587950A94D2F780FF2AC02093391323C011968C9190E2980F903408F5E1DD6EE373E183E090E00E9406330BCF11968C918430A8F480933F1304CF11968C91853041F018F4833058F404C0843111F0863131F48093401332DEF4CE84EF01C088EE2496A8
S28400A080E2E00C94F1F4A4E0B0E0E9E4F0E50C94C7F4609024136091231370E0E0912613F0E0262D30E0CB018E1B9F0B281739070CF4C901AA2797FDA095BA2F0097A105B10521F481E090E0A0E0B0E0712CC12CD12C76018C019D01015011092109310942E0442E512C872C912CA12CB12C081519052A053B05B0F0AF01470D511D415044
S28400A1005109520102C0AA0CBB1C4A95E2F74501AA2497FCA094BA2CC80CD91CEA1CFB1C7394E1CF262D30E040E050E0281B390B4A0B5B0B61507109A2E0B0E002C0AA0FBB1F6A95E2F711970E94BFF49B01AC012C0D3D1D4E1D5F1DA4E1B0E00E94B5F49B01AC0169833A834B835C836ADD29813A814B815C81280F391F411D511D29834E
S28400A1803A834B835C836BDDA82FB0E029813A814B815C810E94B5F428EE33E040E050E00E945CF4CA01B9012496E0E10C94E3F456DDE82F2091291330E0A0ECB3E00E94A0F49B01AC01AE2FB0E00E94B5F428EE33E040E050E00E945CF4CA01B9010895A4E0B0E0E6EFF0E50C94CFF48C01FC01408150E0FA01E054F109E434F10508F011
S28400A200ADC0EA55FD4D0C949AF480911213F801818380E0D0C08091141390911513BEC080911613F4CF80911713F1CF709118136091191350911A1340911B1330911C1320911D1390911E1380911F135BC08091201390912113A2C080912213D8CF80912413D5CF80912613D2CF809127139091281394C080912A13CACF80912C139091B2
S28400A2802D138CC0BE016F5F7F4F82E090E00E94CE32C980DA80EB80FC80C114D104E104F10491F0DCDC282F30E0A0ECB3E00E94A0F428EE33E040E050E00E945CF4C701B6010E945CF402C024EF31E0F801328321839FCFBC016F5F7F4F82E090E00E94CE3297CF70912E1360912F13509130134091311330913213209133139091341333
S28400A30080913513F801718362835383448335832683978380877DCF8091111378CF8091251375CF8091291372CFFC01118271CF80910D1390910E13A0910F13B091101326C08091231363CF8091371360CF30DFF80161837283838394835BCF4830510548F5FA01E651FD4D0C949AF4809139134ECF80913E134BCF80913F1348CF80916A
S28400A3803A1390913B13A0913C13B0913D13F80181839283A383B4833CCF53DCF8019283818337CF14DCF4E08F9F800D11242FCF0EDC2DCF84EF2496E8E00C94EBF48EE293E1089548E050E0BC018EE293E10E949CF521E0892B09F020E0822F0895CF92DF92EF92FF92CF936B017C01F0DBC82F36DC2C2F30E0A82FB0E00E94A0F49B016E
S28400A400AC01C701B6010E941AF428EE33E040E050E00E945CF4CA01B901CF91FF90EF90DF90CF9008952FB7F89480917F059091800594609093800580937F053FB7F89480913B0581110FC04FB7F8948091020590910305816090930305809302054FBF81E080933B053FBF2FBF0895BC018DE395E00E94153080913C05811101C0D3CF0A
S28400A4800895FC011282F2CF21E0FC012283EECF22E0FC012283EACF23E0FC012283E6CF25E0FC0122831186108622E02783DECFA1E0B0E0EEE5F2E50C94D4F410923E0510923D055AD11FB7F894CE0101960E94A7D6811104C082E080933C0502C010923C051092800510927F051FBF2196E3E00C94F0F4A2E0B0E0E0E8F2E50C94D3F434
S28400A5001FB7F89410923B05CE0102960E94A7D6882339F080913C058230C9F410923C0516C081E090E00A8002C0880F991F0A94E2F78095909520917F0530918005282339233093800520937F0580E001C081E01FBF8111BAC081E080933C058A818A3029F500913D0510913E052091590230915A0241E050E00115110539F4CE0101960C
S28400A5800E94A7D681114BC033C0CA01F801028002C0880F991F0A94E2F782239323892B09F065C0F80100811181E5CF90E08C30910520F7FC01EE50FD4D0C949AF4B0D214C0B7D212C026D410C0C1D30EC05AD30CC00E942CD409C00E94B0D306C03DD104C00E94FBD301C0A5D0811127C0C6CF2FB7F89480913B0581110FC03FB7F89408
S28400A6008091020590910305816090930305809302053FBF81E080933B052FBF56C080914605811152C080913D0590913E05892B11F0F9DE4AC010923C0547C0813009F044C04FB7F89421E030E00A8002C0220F331F0A94E2F780917F0590918005822B932B9093800580937F054FBF2EC0B8018DE395E00E94E52FF801428150E0493050
S28400A680510508F07BCFFA01E250FD4DC8010C949AF493D393E002C03CD394E09A83A5CF87D295E0FBCF0E9418D496E0F7CF0E948DD392E0F3CFB5D098E0F0CF0E94DBD399E0ECCF06D09BE0E9CF2296E4E00C94EFF4CF93DF93EC0118868B819C819C01215031092F333105C8F4805C9E4F9C838B838A81873031F0883081F4CE010E9425
S28400A70053B103C0CE010E9439B1882339F0813061F4D0937E05C0937D0507C01886EE81FF81CE010896199580E080933F05DF91CF910895CF93DF93C0917D05D0917E058A81873031F0883041F4CE010E9453B107C0CE010E9439B103C081E0888702C0811106C0EE81FF81CE010896199580E080933F05DF91CF910895AEE0B0E0E3EC30
S28400A780F3E50C94D3F40E946DB182E088871E861D861A86198681E08F83CE0101960E949BB48B859C850E9488F573D00E9440D485D2ECD26AD30E94D6D368D00E9415D48EE48983809124138A83CE0101960E9460B58FE48983809126138A83CE0101960E9460B589E58983809125138A83CE0101960E9460B580E589830FEF1FEF1B8300
S28400A8000A83CE0101960E9460B583E589831B830A83CE0101960E9460B52E96E4E00C94EFF41F93CF93DF93EC010E949BB4182F882339F0813051F4D0937E05C0937D0505C0EC85FD85CE010896199510934005812FDF91CF911F9108951F93CF93DF93C0917D05D0917E05CE010E949BB4182F811105C0EC85FD85CE010896199510935E
S28400A8804005812FDF91CF911F910895109240050895A2E0B0E0EFE4F4E50C94D5F464EF77E180E092E00E94AC32BE016F5F7F4F80E091E00E94CE3229813A818091F4179091F5179093F9178093F8179093FB178093FA179093FD178093FC17280F391F3093FF172093FE171092F7171092F61760E078E183E292E00E94AC32BE016F5F06
S28400A9007F4F8EE291E00E94CE3229813A818091001890910118909305188093041890930718809306189093091880930818280F391F30930B1820930A1810920318109202182296E2E00C94F1F49CE0899FF0011124EC50F84E86819781019608959CE0899FF0011124EC50F84E4FB7F894A681B7818C9190E001968A0F9B1F9783868328
S28400A9801C9226813781808591852817390751F484819581918780878081918195838483978386834FBF08959CE0899FF0011124EC50F84EA681B78182819381A817B90721F081E09C91911101C080E0089581E0EBDF8823F9F080917F059091800581609093800580937F052FB7F89480913B0581110FC03FB7F8948091020590910305EB
S28400AA00816090930305809302053FBF81E080933B052FBF80E0C8DF8823F9F080917F059091800582609093800580937F052FB7F89480913B0581110FC03FB7F8948091020590910305816090930305809302053FBF81E080933B052FBF0895A6E3B0E0E4E3F5E50C94D4F4182F6FDFFC01208130E0DC01A20FB31F12968C912F5F3F4F24
S28400AA802E0F3F1FD9016C91813220F4811103C081E001C080E26295669566956370689FB00111248FEF869FA001879F500D1124CA0160E670E00E9435F4D9016C93BF01CE0101960E948FD4882319F18A81982F977029F4807619F48B818C70B1F020914B0230914C022E7F30934C0220934B02CE010196A4D420914B0230914C022160D8
S28400AB0030934C0220934B0204C080913913898FE6CF812F24DF80E0E696E3E00C94F0F481E042DF882311F081E098DF50DF80E0089580E039DF882311F080E08FDF47DF80E00895A9E0B0E0E8EAF5E50C94D2F48C018091430565E0813029F4C0D0F82E811121C01EC080E0BAD0F82E81111BC0F8018381898388E03496DE0112960190B9
S28400AB800D928A95E1F7CE0101960E9460B5F82E80914305823039F480914205AFD065E09ED0109243058F2D2996E5E00C94EEF4A9E0B0E0EEEDF5E50C94D3F48C01DC0113968C91813530F48E3480F48823D1F09EEF09C08F36B1F028F4833599F08935D1F40CC090E1980F9330A8F4813F41F4F801948120914105921339C091E00CC074
S28400AC008935E1F39091101890934205963119F492E09093430590E020914305211111C0911113C0898388E0F8013496DE01129601900D928A95E1F7CE0101960E9460B502C0C8017FDF811108C0D8011C96ED91FC911D97199580E004C010937E0500937D05809344052996E4E00C94EFF4909341059091101890934205963109F0BECF91
S28400AC8091E0C7CFA1E0B0E0E8E4F6E50C94D3F400917D0510917E05C80154DF811108C0D8011C96ED91FC911D97898319958981809344052196E4E00C94EFF41092440510924305109241050895882331F0813011F083E0089586E1089589E108956093D914F3DF0C94FDB5882331F0813011F088E0089586E1089589E108958850823134
S28400AD0030F4E82FF0E0EF50FD4F8081089588E008951F93CF93DF93EC01109110188B81E3DF181729F064E08B81D9DF811105C0EC81FD81199580E004C0D0937E05C0937D0580934505DF91CF911F910895A1E0B0E0EDEAF6E50C94D3F400917D0510917E0564E0D80113968C91B9DF811108C0D8011496ED91FC911597898319958981BE
S28400AD80809345052196E4E00C94EFF4109245050895CF93DF93EC0163E080E0A0DF811109C082E080934605CE0103960E94D1D50E945BB6DF91CF910895CF93DF93EC0189AD83DF80930E18D0937E05C0937D05809125138093DA140E9485F59093DC148093DB1480911018893151F482E080934605CE0103960E94D1D50E945BB605C0B4
S28400AE0081E080934605CE01C4DF80934705DF91CF910895A2E0B0E0E0E1F7E50C94D3F400917D0510917E0580914605813021F4C801AFDF811123C00E9404B10E94DBB01A8219820E948FB4D801DC968C93DC97DA96ED91FC91DB97C801CC9619958091251390E02091DA14821B91099A838983BE016F5F7F4F8DE30E94D52E80E08093B7
S28400AE8047052296E4E00C94EFF4109247051092460508958091DA1481508093DA140E9490DF63E080E01BDF81110CC080917D0590917E0522E02093460503960E94D1D50C945BB681E0809347058093460580917F059091800588609093800580937F0508952FB7F8948091020590910305846090930305809302052FBF0895BC018DE82E
S28400AF0097E10E94153080917C1781110CC02FB7F8948091020590910305846090930305809302052FBF0895CF93DF93DC0112964C9150E0FA013197E031F10508F053C0E95FFC4D0C949AF4DC011C96ED91FC911D970E963DC0DC011B96ED91FC911C970D9636C0DC011796ED91FC91189709962FC0DC015196ED91FC915297439628C0EB
S28400AF80DC015396ED91FC9154974596199543C0DC011996ED91FC911A970B9619C0DC011E96ED91FC911F97409612C0FC01C08DC470D0E0018CF28DE02D4B961995CD2B51F511C0DC011496ED91FC9115970696199509C08091ED178E7F03C08091ED178D7F8093ED1710927C172091ED1780918D1790918E17892B11F4222361F02FB75B
S28400B000F8948091020590910305846090930305809302052FBFDF91CF910895CF93DF9380917C17882319F0833009F06AC08091ED17882389F080FF09C08FE080937C170E94956661EF0E94ED645BC080E180937C170E944DDA55C080915B02882309F450C0C0918D17D0918E17209709F449C08DE897E10E94D92F8A8180937C17D09379
S28400B0807F17C0937E178A8190E0FC013197EE30F10518F5E95EFC4D0C949AF40E94DE621AC00E94B86217C05CD415C0C7D713C0AAD411C00E94ADD80EC00E94F4D80BC00E94AB6408C0EED006C052D304C00E9459DB01C01ED4811114C010927C1780918D1790918E17892B61F02FB7F89480910205909103058460909303058093020506
S28400B1002FBFDF91CF91089527E0FC012283F6CE28E0FC012283F2CE2BE0FC012283EECE22E0FC012283EACECF93DF93EC018B81882331F183E08A8380937C1710928E1710928D171092ED176CE572E085E20E94542FBE018DE897E10E941530A9D980E897E10E94A5E12FB7F8948091020590910305846090930305809302052FBF04C016
S28400B18084E08A83CE01BADEDF91CF9108952AE0FC012283B3CE25E0FC012283AFCE21E0FC012283ABCE26E0FC012283A7CE2CE0FC012283A3CE2DE0FC0122839FCE20917C17233011F00C9456A4089520917C17233011F00C94E0AC089520917C17233011F00C9478A0089520917C17233011F00C942EB0089520917C17233011F00C9438
S28400B20025A8089520917C17233011F00C9406B008958091ED1781608093ED1780917C17811101C05ECE08958091ED1782608093ED1780917C17811101C053CE089520917C17211104C021E120937C171DC308958091ED17811105C00E94006891E0982701C091E0892F08951F93CF93DF93EB011881EEDF91E0982791239883DF91CF9171
S28400B2801F910895CF93DF93C0917E17D0917F17FC0180810E94BCDA8CA3CE0145DEDF91CF9108951F93CF93DF93C0917E17D0917F178091271390912813998B888B13E01A8B7DD8DE01539628E0FC0101900D922A95E1F71B8F8B818C8F8C818D8F8D818E8F8E818F8F8F8188A3888589A389858AA38A858BA38D85811105C01CA2CE0191
S28400B30013DE80E077C08BE080939C178091221391E0980F9093221380939F1780919D17807820919E172C6083628F7780939D172C7C20939E178FEF9FEF9093A1178093A017EB817C816D815E814F81388599858A85E093A2177093A3176093A4175093A5174093A6173093A7179093A8178093A917206C20939E178091271390912813E7
S28400B3809093AB178093AA171AD828E0FC01ACEAB7E101900D922A95E1F780912713909128139093B5178093B41780912C1390912D139093B7178093B6178B859C859093BA178093B917809139138093B81782E499E59093D4178093D31780912A13882311F081E001C082E08093D21789E997E148D881E0DF91CF911F910895A8E0B0E05D
S28400B400E4E0FAE50C94D5F4FC018281807C81F08089898381898A8382898B8383898C8384898D8385898E8386898F8387898887CE010196E0DE2896E2E00C94F1F4EF92FF920F931F93CF93DF93EC018A81807C8038C1F4AE014C5C5F4FBE016D5C7F4F888999890E948AD9811144C0488150E0FA013197EB30F10508F03CC0EB5DFC4D33
S28400B4800C949AF4803C91F7288939894A895B896C897D897E0184E3E80EF11C8E010D5C1F4F8E899F890E94C8D9DECFCE018DD621C0CE01ADD01EC0CE010E9484D81AC0CE010E9404D916C08DA980FD05C0CE010E94A36681119DDECE0173D00BC0CE018DDF08C080913713882321F09DDE02C0CE01A7D7CDB7DEB7E6E00C94EDF481E0E9
S28400B50080933713089510923713089583E080937D171092E91763E97AE589E997E10C94D464F4CF089580917E1790917F17FCDC10927D170895A3E0B0E0E1EAFAE50C94D5F481E18B83CE010196EEDC2396E2E00C94F1F4CF93DF93C0917E17D0917F17FC018081833028F4813048F00E94BCDA03C0833001F58BEE888BC8DF1CC08BEE69
S28400B580888B81E080938A1781E99AE590938C1780938B170E9443506093861770938717809388179093891782E080937D1780E897E10E9475E1DF91CF91089510927D170895AEE0B0E0E7EEFAE50C94D5F4FC01228122952695269523702983268537853B832A8328E07096DE01149601900D922A95E1F7FC0123A92C8723812D8784A946
S28400B6008E87CE010196FEDD2E96E2E00C94F1F4ACE1B0E0EEE0FBE50C94C9F4FC01428142954695469543704983268537853B832A8328E07096DE01149601900D922A95E1F7FC01628066946694F62DF3706F2EFC87FC01248135813E872D8728E03696DE011F9601900D922A95E1F7FC0172A87F8A20A931A9398F288F23A92A8F23815C
S28400B6802B8F84A98C8F80917D17882309F44CC080907E1790907F178EEF840F823008F063C0F4018381481320C0423029F42C813D818681978127C0433009F055C02C813D814E815F8168857985F401A680B780C084D184E284F384048515858A859B850E9427F509F040C023C0823091F0833021F0811139C0423051F42C813D8180918F
